{
  "contractName": "KittyContract",
  "abi": [
    {
      "constant": true,
      "inputs": [
        {
          "internalType": "uint256",
          "name": "",
          "type": "uint256"
        }
      ],
      "name": "kitties",
      "outputs": [
        {
          "internalType": "bool",
          "name": "isGestating",
          "type": "bool"
        },
        {
          "internalType": "bool",
          "name": "isReady",
          "type": "bool"
        },
        {
          "internalType": "uint256",
          "name": "cooldownIndex",
          "type": "uint256"
        },
        {
          "internalType": "uint256",
          "name": "cooldownEndBlock",
          "type": "uint256"
        },
        {
          "internalType": "uint256",
          "name": "nextActionAt",
          "type": "uint256"
        },
        {
          "internalType": "uint256",
          "name": "siringWithId",
          "type": "uint256"
        },
        {
          "internalType": "uint256",
          "name": "birthTime",
          "type": "uint256"
        },
        {
          "internalType": "uint256",
          "name": "matronId",
          "type": "uint256"
        },
        {
          "internalType": "uint256",
          "name": "sireId",
          "type": "uint256"
        },
        {
          "internalType": "uint256",
          "name": "generation",
          "type": "uint256"
        },
        {
          "internalType": "uint256",
          "name": "genes",
          "type": "uint256"
        }
      ],
      "payable": false,
      "stateMutability": "view",
      "type": "function"
    },
    {
      "constant": true,
      "inputs": [
        {
          "internalType": "uint256",
          "name": "_id",
          "type": "uint256"
        }
      ],
      "name": "getKitty",
      "outputs": [
        {
          "internalType": "bool",
          "name": "isGestating",
          "type": "bool"
        },
        {
          "internalType": "bool",
          "name": "isReady",
          "type": "bool"
        },
        {
          "internalType": "uint256",
          "name": "cooldownIndex",
          "type": "uint256"
        },
        {
          "internalType": "uint256",
          "name": "nextActionAt",
          "type": "uint256"
        },
        {
          "internalType": "uint256",
          "name": "siringWithId",
          "type": "uint256"
        },
        {
          "internalType": "uint256",
          "name": "birthTime",
          "type": "uint256"
        },
        {
          "internalType": "uint256",
          "name": "matronId",
          "type": "uint256"
        },
        {
          "internalType": "uint256",
          "name": "sireId",
          "type": "uint256"
        },
        {
          "internalType": "uint256",
          "name": "generation",
          "type": "uint256"
        },
        {
          "internalType": "uint256",
          "name": "genes",
          "type": "uint256"
        }
      ],
      "payable": false,
      "stateMutability": "view",
      "type": "function"
    }
  ],
  "bytecode": "0x608060405234801561001057600080fd5b5061024b806100206000396000f3fe608060405234801561001057600080fd5b50600436106100365760003560e01c80638cc51eda1461003b578063e98b7f4d146100b0575b600080fd5b6100586004803603602081101561005157600080fd5b503561011f565b604080519b15158c5299151560208c01528a8a019890985260608a0196909652608089019490945260a088019290925260c087015260e086015261010085015261012084015261014083015251908190036101600190f35b6100cd600480360360208110156100c657600080fd5b503561018e565b604080519a15158b5298151560208b0152898901979097526060890195909552608088019390935260a087019190915260c086015260e085015261010084015261012083015251908190036101400190f35b6000818154811061012c57fe5b60009182526020909120600a9091020180546001820154600283015460038401546004850154600586015460068701546007880154600889015460099099015460ff808a169b506101009099049098169896979596949593949293919290918b565b6000806000806000806000806000806000808c815481106101ab57fe5b90600052602060002090600a020190508060040154600014159a5043816002015411159950806001015498508060020154975080600401549650806005015495508060060154945080600701549350806008015492508060090154915050919395979950919395979956fea265627a7a7231582058270add5b6c494df6ee2980327e5bbd8e26c013eb0f5245c70bac8d8460af6c64736f6c634300050c0032",
  "source": "\npragma solidity >0.4.99 <0.6.0;\n\ncontract KittyContract {\n\nstruct Kitty { //struct de un Kitty\n    bool isGestating;\n    bool isReady;\n    uint256 cooldownIndex;\n    uint256 cooldownEndBlock;\n    uint256 nextActionAt;\n    uint256 siringWithId;\n    uint256 birthTime;\n    uint256 matronId;\n    uint256 sireId;\n    uint256 generation;\n    uint256 genes;\n    } //Autom치ticamente se genera la 'function Kitty(isGestarting) external view returns struct' por ser public.\n\nKitty[] public kitties; //Array din치mico de N struct Kitty\n    //Autom치ticamente se genera la 'function kitties() external view returns Kitty[]' por ser public.\n        //pero Al ser un array de structs nos dar치 problemas si externamente queremos que nos devuelva el Array o un Struct.\n\n  function getKitty(uint256 _id) external view returns (\n    bool isGestating,\n    bool isReady,\n    uint256 cooldownIndex,\n    uint256 nextActionAt,\n    uint256 siringWithId,\n    uint256 birthTime,\n    uint256 matronId,\n    uint256 sireId,\n    uint256 generation,\n    uint256 genes\n  ) {\n    Kitty storage kit = kitties[_id];\n\n    // si esta variable es 0 entonces no se esta gestando\n    isGestating = (kit.siringWithId != 0);\n    isReady = (kit.cooldownEndBlock <= block.number);\n    cooldownIndex = uint256(kit.cooldownIndex);\n    nextActionAt = uint256(kit.cooldownEndBlock);\n    siringWithId = uint256(kit.siringWithId);\n    birthTime = uint256(kit.birthTime);\n    matronId = uint256(kit.matronId);\n    sireId = uint256(kit.sireId);\n    generation = uint256(kit.generation);\n    genes = kit.genes;\n  }\n}",
  "sourcePath": "E:/dev/ethereum/zombies/contracts/Kitty.sol",
  "compiler": {
    "name": "solc",
    "version": "0.5.12+commit.7709ece9.Emscripten.clang"
  },
  "schemaVersion": "3.0.18",
  "updatedAt": "2019-11-16T10:09:10.403Z",
  "devdoc": {
    "methods": {}
  },
  "userdoc": {
    "methods": {}
  }
}