{
  "contractName": "KittyFactory",
  "abi": [
    {
      "anonymous": false,
      "inputs": [
        {
          "indexed": false,
          "internalType": "uint256",
          "name": "kittyId",
          "type": "uint256"
        },
        {
          "indexed": false,
          "internalType": "string",
          "name": "name",
          "type": "string"
        },
        {
          "indexed": false,
          "internalType": "uint256",
          "name": "dna",
          "type": "uint256"
        },
        {
          "indexed": false,
          "internalType": "string",
          "name": "animalType",
          "type": "string"
        }
      ],
      "name": "NewKitty",
      "type": "event"
    },
    {
      "constant": true,
      "inputs": [
        {
          "internalType": "uint256",
          "name": "",
          "type": "uint256"
        }
      ],
      "name": "kitties",
      "outputs": [
        {
          "internalType": "bool",
          "name": "isGestating",
          "type": "bool"
        },
        {
          "internalType": "bool",
          "name": "isReady",
          "type": "bool"
        },
        {
          "internalType": "uint256",
          "name": "cooldownIndex",
          "type": "uint256"
        },
        {
          "internalType": "uint256",
          "name": "cooldownEndBlock",
          "type": "uint256"
        },
        {
          "internalType": "uint256",
          "name": "nextActionAt",
          "type": "uint256"
        },
        {
          "internalType": "uint256",
          "name": "siringWithId",
          "type": "uint256"
        },
        {
          "internalType": "uint256",
          "name": "birthTime",
          "type": "uint256"
        },
        {
          "internalType": "uint256",
          "name": "matronId",
          "type": "uint256"
        },
        {
          "internalType": "uint256",
          "name": "sireId",
          "type": "uint256"
        },
        {
          "internalType": "uint256",
          "name": "generation",
          "type": "uint256"
        },
        {
          "internalType": "uint256",
          "name": "genes",
          "type": "uint256"
        },
        {
          "internalType": "string",
          "name": "name",
          "type": "string"
        },
        {
          "internalType": "string",
          "name": "animalType",
          "type": "string"
        }
      ],
      "payable": false,
      "stateMutability": "view",
      "type": "function"
    },
    {
      "constant": true,
      "inputs": [
        {
          "internalType": "uint256",
          "name": "_id",
          "type": "uint256"
        }
      ],
      "name": "getKitty",
      "outputs": [
        {
          "internalType": "bool",
          "name": "isGestating",
          "type": "bool"
        },
        {
          "internalType": "bool",
          "name": "isReady",
          "type": "bool"
        },
        {
          "internalType": "uint256",
          "name": "cooldownIndex",
          "type": "uint256"
        },
        {
          "internalType": "uint256",
          "name": "nextActionAt",
          "type": "uint256"
        },
        {
          "internalType": "uint256",
          "name": "siringWithId",
          "type": "uint256"
        },
        {
          "internalType": "uint256",
          "name": "birthTime",
          "type": "uint256"
        },
        {
          "internalType": "uint256",
          "name": "matronId",
          "type": "uint256"
        },
        {
          "internalType": "uint256",
          "name": "sireId",
          "type": "uint256"
        },
        {
          "internalType": "uint256",
          "name": "generation",
          "type": "uint256"
        },
        {
          "internalType": "uint256",
          "name": "genes",
          "type": "uint256"
        },
        {
          "internalType": "string",
          "name": "name",
          "type": "string"
        },
        {
          "internalType": "string",
          "name": "animalType",
          "type": "string"
        }
      ],
      "payable": false,
      "stateMutability": "view",
      "type": "function"
    },
    {
      "constant": true,
      "inputs": [],
      "name": "getCount",
      "outputs": [
        {
          "internalType": "uint256",
          "name": "count",
          "type": "uint256"
        }
      ],
      "payable": false,
      "stateMutability": "view",
      "type": "function"
    },
    {
      "constant": false,
      "inputs": [
        {
          "internalType": "string",
          "name": "_name",
          "type": "string"
        }
      ],
      "name": "createRandomKitty",
      "outputs": [],
      "payable": false,
      "stateMutability": "nonpayable",
      "type": "function"
    }
  ],
  "bytecode": "0x60806040526010600055662386f26fc1000060015534801561002057600080fd5b50610af2806100306000396000f3fe608060405234801561001057600080fd5b506004361061004c5760003560e01c80638cc51eda14610051578063a87d942c146101a1578063b0f25d6d146101bb578063e98b7f4d14610263575b600080fd5b61006e6004803603602081101561006757600080fd5b50356103ac565b604051808e1515151581526020018d1515151581526020018c81526020018b81526020018a81526020018981526020018881526020018781526020018681526020018581526020018481526020018060200180602001838103835285818151815260200191508051906020019080838360005b838110156100f95781810151838201526020016100e1565b50505050905090810190601f1680156101265780820380516001836020036101000a031916815260200191505b50838103825284518152845160209182019186019080838360005b83811015610159578181015183820152602001610141565b50505050905090810190601f1680156101865780820380516001836020036101000a031916815260200191505b509f5050505050505050505050505050505060405180910390f35b6101a961055b565b60408051918252519081900360200190f35b610261600480360360208110156101d157600080fd5b8101906020810181356401000000008111156101ec57600080fd5b8201836020820111156101fe57600080fd5b8035906020019184600183028401116401000000008311171561022057600080fd5b91908080601f016020809104026020016040519081016040528093929190818152602001838380828437600092019190915250929550610562945050505050565b005b6102806004803603602081101561027957600080fd5b5035610583565b604051808d1515151581526020018c1515151581526020018b81526020018a81526020018981526020018881526020018781526020018681526020018581526020018481526020018060200180602001838103835285818151815260200191508051906020019080838360005b838110156103055781810151838201526020016102ed565b50505050905090810190601f1680156103325780820380516001836020036101000a031916815260200191505b50838103825284518152845160209182019186019080838360005b8381101561036557818101518382015260200161034d565b50505050905090810190601f1680156103925780820380516001836020036101000a031916815260200191505b509e50505050505050505050505050505060405180910390f35b600281815481106103b957fe5b90600052602060002090600c02016000915090508060000160009054906101000a900460ff16908060000160019054906101000a900460ff169080600101549080600201549080600301549080600401549080600501549080600601549080600701549080600801549080600901549080600a018054600181600116156101000203166002900480601f0160208091040260200160405190810160405280929190818152602001828054600181600116156101000203166002900480156104c15780601f10610496576101008083540402835291602001916104c1565b820191906000526020600020905b8154815290600101906020018083116104a457829003601f168201915b50505050600b8301805460408051602060026001851615610100026000190190941693909304601f81018490048402820184019092528181529495949350908301828280156105515780601f1061052657610100808354040283529160200191610551565b820191906000526020600020905b81548152906001019060200180831161053457829003601f168201915b505050505090508d565b6002545b90565b600061056d82610740565b905060648106900361057f82826107c9565b5050565b600080600080600080600080600080606080600060028e815481106105a457fe5b90600052602060002090600c020190508060040154600014159c5043816002015411159b5080600101549a508060020154995080600401549850806005015497508060060154965080600701549550806008015494508060090154935080600a018054600181600116156101000203166002900480601f0160208091040260200160405190810160405280929190818152602001828054600181600116156101000203166002900480156106995780601f1061066e57610100808354040283529160200191610699565b820191906000526020600020905b81548152906001019060200180831161067c57829003601f168201915b50505050600b8301805460408051602060026001851615610100026000190190941693909304601f81018490048402820184019092528181529497509192508301828280156107295780601f106106fe57610100808354040283529160200191610729565b820191906000526020600020905b81548152906001019060200180831161070c57829003601f168201915b505050505091505091939597999b5091939597999b565b600080826040516020018082805190602001908083835b602083106107765780518252601f199092019160209182019101610757565b6001836020036101000a0380198251168184511680821785525050505050509050019150506040516020818303038152906040528051906020012060001c905060015481816107c157fe5b069392505050565b600060016002604051806101a001604052806001151581526020016001151581526020016000815260200160008152602001600081526020016000815260200160008152602001600081526020016000815260200160008152602001858152602001868152602001604051806040016040528060058152602001646b6974747960d81b8152508152509080600181540180825580915050906001820390600052602060002090600c02016000909192909190915060008201518160000160006101000a81548160ff02191690831515021790555060208201518160000160016101000a81548160ff02191690831515021790555060408201518160010155606082015181600201556080820151816003015560a0820151816004015560c0820151816005015560e0820151816006015561010082015181600701556101208201518160080155610140820151816009015561016082015181600a019080519060200190610937929190610a25565b50610180820151805161095491600b840191602090910190610a25565b5050500390507fcd17858e046638838719d990e5ea11008942792b00b9ba192e0a93daaf3542be818484604051808481526020018060200183815260200180602001838103835285818151815260200191508051906020019080838360005b838110156109cb5781810151838201526020016109b3565b50505050905090810190601f1680156109f85780820380516001836020036101000a031916815260200191505b5092830390525060058152646b6974747960d81b60208201526040805191829003019350915050a1505050565b828054600181600116156101000203166002900490600052602060002090601f016020900481019282601f10610a6657805160ff1916838001178555610a93565b82800160010185558215610a93579182015b82811115610a93578251825591602001919060010190610a78565b50610a9f929150610aa3565b5090565b61055f91905b80821115610a9f5760008155600101610aa956fea265627a7a7231582030b0c47e4db503b72964fcd4c4f884c5281ee7c5239e42d74c7d8716ca61e28e64736f6c634300050c0032",
  "source": "\npragma solidity >0.4.99 <0.6.0;\n\ncontract KittyFactory {\n\nuint dnaDigits = 16; //digitos del dna\nuint dnaModulus = 10 ** dnaDigits; //Modulo.\n\nstruct Kitty { //struct de un Kitty\n    bool isGestating;\n    bool isReady;\n    uint256 cooldownIndex;\n    uint256 cooldownEndBlock;\n    uint256 nextActionAt;\n    uint256 siringWithId;\n    uint256 birthTime;\n    uint256 matronId;\n    uint256 sireId;\n    uint256 generation;\n    uint256 genes;\n    string name;\n    string animalType;\n    } //Automáticamente se genera la 'function Kitty(isGestarting) external view returns struct' por ser public.\n\nKitty[] public kitties; //Array dinámico de N struct Kitty\n    //Automáticamente se genera la 'function kitties() external view returns Kitty[]' por ser public.\n        //pero Al ser un array de structs nos dará problemas si externamente queremos que nos devuelva el Array o un Struct.\n\n\nevent NewKitty(uint kittyId, string name, uint dna, string animalType); // declara un evento del nuevo kitty\n\n//**PUBLIC FUNCTIONS**//\n\n  function getKitty(uint256 _id) external view returns (\n    bool isGestating,\n    bool isReady,\n    uint256 cooldownIndex,\n    uint256 nextActionAt,\n    uint256 siringWithId,\n    uint256 birthTime,\n    uint256 matronId,\n    uint256 sireId,\n    uint256 generation,\n    uint256 genes,\n    string memory name,\n    string memory animalType\n  ) {\n    Kitty storage kit = kitties[_id];\n\n    // si esta variable es 0 entonces no se esta gestando\n    isGestating = (kit.siringWithId != 0);\n    isReady = (kit.cooldownEndBlock <= block.number);\n    cooldownIndex = uint256(kit.cooldownIndex);\n    nextActionAt = uint256(kit.cooldownEndBlock);\n    siringWithId = uint256(kit.siringWithId);\n    birthTime = uint256(kit.birthTime);\n    matronId = uint256(kit.matronId);\n    sireId = uint256(kit.sireId);\n    generation = uint256(kit.generation);\n    genes = kit.genes;\n    name = kit.name;\n    animalType = kit.animalType;\n  }\n\n\n  function getCount() public view returns (uint count) { //Devolvemos el tamaño del array\n        return kitties.length;\n    }\n\n  function createRandomKitty(string memory _name) public {\n        uint randDna = _generateRandomDna(_name);\n        randDna = randDna - randDna % 100;\n        _createKitty(_name, randDna);\n    }\n\n//**PRIVATE FUNCTIONS**//\n function _createKitty(string memory _name, uint _dna) internal {\n        uint id = kitties.push(Kitty(true,true,0,0,0,0,0,0,0,0,_dna,_name,\"kitty\")) - 1;\n        emit NewKitty(id, _name, _dna,\"kitty\");\n    }\n\n    function _generateRandomDna(string memory _str) private view returns (uint) {\n        uint rand = uint(keccak256(abi.encodePacked(_str)));\n        return rand % dnaModulus;\n    }\n\n}",
  "sourcePath": "E:/dev/ethereum/zombies/contracts/KittyFactory.sol",
  "compiler": {
    "name": "solc",
    "version": "0.5.12+commit.7709ece9.Emscripten.clang"
  },
  "schemaVersion": "3.0.18",
  "updatedAt": "2019-11-17T15:53:18.986Z",
  "devdoc": {
    "methods": {}
  },
  "userdoc": {
    "methods": {}
  }
}