{
  "contractName": "ZombieFactory",
  "abi": [
    {
      "anonymous": false,
      "inputs": [
        {
          "indexed": false,
          "internalType": "uint256",
          "name": "zombieId",
          "type": "uint256"
        },
        {
          "indexed": false,
          "internalType": "string",
          "name": "name",
          "type": "string"
        },
        {
          "indexed": false,
          "internalType": "uint256",
          "name": "dna",
          "type": "uint256"
        }
      ],
      "name": "NewZombie",
      "type": "event"
    },
    {
      "constant": true,
      "inputs": [
        {
          "internalType": "uint256",
          "name": "",
          "type": "uint256"
        }
      ],
      "name": "zombieToOwner",
      "outputs": [
        {
          "internalType": "address",
          "name": "",
          "type": "address"
        }
      ],
      "payable": false,
      "stateMutability": "view",
      "type": "function"
    },
    {
      "constant": true,
      "inputs": [
        {
          "internalType": "uint256",
          "name": "",
          "type": "uint256"
        }
      ],
      "name": "zombies",
      "outputs": [
        {
          "internalType": "string",
          "name": "name",
          "type": "string"
        },
        {
          "internalType": "uint256",
          "name": "dna",
          "type": "uint256"
        }
      ],
      "payable": false,
      "stateMutability": "view",
      "type": "function"
    },
    {
      "constant": false,
      "inputs": [
        {
          "internalType": "string",
          "name": "_name",
          "type": "string"
        }
      ],
      "name": "createRandomZombie",
      "outputs": [],
      "payable": false,
      "stateMutability": "nonpayable",
      "type": "function"
    }
  ],
  "bytecode": "0x60806040526010600055662386f26fc1000060015534801561002057600080fd5b506105df806100306000396000f3fe608060405234801561001057600080fd5b50600436106100415760003560e01c80632052465e14610046578063528b7b8f146100e25780637bff0a011461011b575b600080fd5b6100636004803603602081101561005c57600080fd5b50356101c3565b6040518080602001838152602001828103825284818151815260200191508051906020019080838360005b838110156100a657818101518382015260200161008e565b50505050905090810190601f1680156100d35780820380516001836020036101000a031916815260200191505b50935050505060405180910390f35b6100ff600480360360208110156100f857600080fd5b5035610276565b604080516001600160a01b039092168252519081900360200190f35b6101c16004803603602081101561013157600080fd5b81019060208101813564010000000081111561014c57600080fd5b82018360208201111561015e57600080fd5b8035906020019184600183028401116401000000008311171561018057600080fd5b91908080601f016020809104026020016040519081016040528093929190818152602001838380828437600092019190915250929550610291945050505050565b005b600281815481106101d057fe5b60009182526020918290206002918202018054604080516001831615610100026000190190921693909304601f8101859004850282018501909352828152909350918391908301828280156102665780601f1061023b57610100808354040283529160200191610266565b820191906000526020600020905b81548152906001019060200180831161024957829003601f168201915b5050505050908060010154905082565b6003602052600090815260409020546001600160a01b031681565b33600090815260046020526040902054156102dd5760405162461bcd60e51b815260040180806020018281038252602a815260200180610581602a913960400191505060405180910390fd5b60006102e8826102fe565b90506064810690036102fa8282610387565b5050565b600080826040516020018082805190602001908083835b602083106103345780518252601f199092019160209182019101610315565b6001836020036101000a0380198251168184511680821785525050505050509050019150506040516020818303038152906040528051906020012060001c9050600154818161037f57fe5b069392505050565b60408051808201909152828152602080820183905260028054600181810180845560008481528651805191979396929593949093027f405787fa12a823e0f2b7631cc41b3ba8828b3321ca811111fa75cd3aa3bb5ace01926103ed9284929101906104e5565b5060209182015160019182015592909103600081815260038352604080822080546001600160a01b0319163390811790915582526004845280822080549095019094558351828152938401869052606084840181815288519186019190915287519295507f88f026aacbbecc90c18411df4b1185fd8d9be2470f1962f192bf84a27d0704b7948694899489949293926080850192870191908190849084905b838110156104a457818101518382015260200161048c565b50505050905090810190601f1680156104d15780820380516001836020036101000a031916815260200191505b5094505050505060405180910390a1505050565b828054600181600116156101000203166002900490600052602060002090601f016020900481019282601f1061052657805160ff1916838001178555610553565b82800160010185558215610553579182015b82811115610553578251825591602001919060010190610538565b5061055f929150610563565b5090565b61057d91905b8082111561055f5760008155600101610569565b9056fe54686520636f756e746572206f662074686920636f6e7472616374206d757374206e6f7420626520302ea265627a7a72315820874c89fe26fc1bd4b3cb418072de46bbd0ec134e85cbb0cebf0908af25faba4364736f6c634300050c0032",
  "source": "pragma solidity >0.4.99 <0.6.0;\n\ncontract ZombieFactory {\n\n    event NewZombie(uint zombieId, string name, uint dna);\n\n    uint dnaDigits = 16;\n    uint dnaModulus = 10 ** dnaDigits;\n\n    struct Zombie {\n        string name;\n        uint dna;\n    }\n\n    Zombie[] public zombies;\n\n    mapping (uint => address) public zombieToOwner;\n    mapping (address => uint) ownerZombieCount;\n\n    function _createZombie(string memory _name, uint _dna) internal {\n        uint id = zombies.push(Zombie(_name, _dna)) - 1;\n        zombieToOwner[id] = msg.sender;\n        ownerZombieCount[msg.sender]++;\n        emit NewZombie(id, _name, _dna);\n    }\n\n    function _generateRandomDna(string memory _str) private view returns (uint) {\n        uint rand = uint(keccak256(abi.encodePacked(_str)));\n        return rand % dnaModulus;\n    }\n\n    function createRandomZombie(string memory _name) public {\n        require(ownerZombieCount[msg.sender] == 0, \"The counter of thi contract must not be 0.\");\n        uint randDna = _generateRandomDna(_name);\n        randDna = randDna - randDna % 100;\n        _createZombie(_name, randDna);\n    }\n\n}\n",
  "sourcePath": "E:\\dev\\ethereum\\zombies\\contracts\\ZombieFactory.sol",
  "compiler": {
    "name": "solc",
    "version": "0.5.12+commit.7709ece9.Emscripten.clang"
  },
  "schemaVersion": "3.0.18",
  "updatedAt": "2019-11-16T19:55:50.174Z",
  "devdoc": {
    "methods": {}
  },
  "userdoc": {
    "methods": {}
  }
}