{
  "contractName": "ZombieFeeding",
  "abi": [
    {
      "inputs": [
        {
          "internalType": "address",
          "name": "_ckAddress",
          "type": "address"
        }
      ],
      "payable": false,
      "stateMutability": "nonpayable",
      "type": "constructor"
    },
    {
      "anonymous": false,
      "inputs": [
        {
          "indexed": false,
          "internalType": "uint256",
          "name": "zombieId",
          "type": "uint256"
        },
        {
          "indexed": false,
          "internalType": "string",
          "name": "name",
          "type": "string"
        },
        {
          "indexed": false,
          "internalType": "uint256",
          "name": "dna",
          "type": "uint256"
        }
      ],
      "name": "NewZombie",
      "type": "event"
    },
    {
      "constant": false,
      "inputs": [
        {
          "internalType": "string",
          "name": "_name",
          "type": "string"
        }
      ],
      "name": "createRandomZombie",
      "outputs": [],
      "payable": false,
      "stateMutability": "nonpayable",
      "type": "function"
    },
    {
      "constant": true,
      "inputs": [],
      "name": "getCount",
      "outputs": [
        {
          "internalType": "uint256",
          "name": "count",
          "type": "uint256"
        }
      ],
      "payable": false,
      "stateMutability": "view",
      "type": "function"
    },
    {
      "constant": true,
      "inputs": [
        {
          "internalType": "uint256",
          "name": "_index",
          "type": "uint256"
        }
      ],
      "name": "getZombie",
      "outputs": [
        {
          "internalType": "uint256",
          "name": "id",
          "type": "uint256"
        },
        {
          "internalType": "string",
          "name": "name",
          "type": "string"
        },
        {
          "internalType": "uint256",
          "name": "dna",
          "type": "uint256"
        }
      ],
      "payable": false,
      "stateMutability": "view",
      "type": "function"
    },
    {
      "constant": true,
      "inputs": [
        {
          "internalType": "uint256",
          "name": "",
          "type": "uint256"
        }
      ],
      "name": "zombieToOwner",
      "outputs": [
        {
          "internalType": "address",
          "name": "",
          "type": "address"
        }
      ],
      "payable": false,
      "stateMutability": "view",
      "type": "function"
    },
    {
      "constant": true,
      "inputs": [
        {
          "internalType": "uint256",
          "name": "",
          "type": "uint256"
        }
      ],
      "name": "zombies",
      "outputs": [
        {
          "internalType": "string",
          "name": "name",
          "type": "string"
        },
        {
          "internalType": "uint256",
          "name": "dna",
          "type": "uint256"
        }
      ],
      "payable": false,
      "stateMutability": "view",
      "type": "function"
    },
    {
      "constant": false,
      "inputs": [
        {
          "internalType": "uint256",
          "name": "_zombieId",
          "type": "uint256"
        },
        {
          "internalType": "uint256",
          "name": "_kittyId",
          "type": "uint256"
        }
      ],
      "name": "feedOnKitty",
      "outputs": [],
      "payable": false,
      "stateMutability": "nonpayable",
      "type": "function"
    }
  ],
  "bytecode": "0x60806040526010600055662386f26fc1000060015534801561002057600080fd5b50604051610cfc380380610cfc8339818101604052602081101561004357600080fd5b505160058054336001600160a01b031991821617909155600680549091166001600160a01b03909216919091179055610c7b806100816000396000f3fe608060405234801561001057600080fd5b50600436106100625760003560e01c806317a7f4cc146100675780632052465e1461008c578063528b7b8f146101285780637bff0a0114610161578063a290561114610207578063a87d942c146102aa575b600080fd5b61008a6004803603604081101561007d57600080fd5b50803590602001356102c4565b005b6100a9600480360360208110156100a257600080fd5b50356104bf565b6040518080602001838152602001828103825284818151815260200191508051906020019080838360005b838110156100ec5781810151838201526020016100d4565b50505050905090810190601f1680156101195780820380516001836020036101000a031916815260200191505b50935050505060405180910390f35b6101456004803603602081101561013e57600080fd5b5035610572565b604080516001600160a01b039092168252519081900360200190f35b61008a6004803603602081101561017757600080fd5b81019060208101813564010000000081111561019257600080fd5b8201836020820111156101a457600080fd5b803590602001918460018302840111640100000000831117156101c657600080fd5b91908080601f01602080910402602001604051908101604052809392919081815260200183838082843760009201919091525092955061058d945050505050565b6102246004803603602081101561021d57600080fd5b50356105ae565b6040518084815260200180602001838152602001828103825284818151815260200191508051906020019080838360005b8381101561026d578181015183820152602001610255565b50505050905090810190601f16801561029a5780820380516001836020036101000a031916815260200191505b5094505050505060405180910390f35b6102b261069b565b60408051918252519081900360200190f35b6006546040805163e98b7f4d60e01b81526004810184905290516000926060926001600160a01b039091169163e98b7f4d916024808201928792909190829003018186803b15801561031557600080fd5b505afa158015610329573d6000803e3d6000fd5b505050506040513d6000823e601f3d908101601f1916820160405261016081101561035357600080fd5b815160208301516040808501516060860151608087015160a088015160c089015160e08a01516101008b01516101208c01516101408d01805199519b9d9a9c989b979a96999598949793969295919483019291846401000000008211156103b957600080fd5b9083019060208201858111156103ce57600080fd5b82516401000000008111828201881017156103e857600080fd5b82525081516020918201929091019080838360005b838110156104155781810151838201526020016103fd565b50505050905090810190601f1680156104425780820380516001836020036101000a031916815260200191505b5060405250505090919293949596979899509091929394959697985090919293949596975090919293949596509091929394955090919293945090919293509091925090915080925081935050506104b9848383604051806040016040528060058152602001646b6974747960d81b8152506106a2565b50505050565b600281815481106104cc57fe5b60009182526020918290206002918202018054604080516001831615610100026000190190921693909304601f8101859004850282018501909352828152909350918391908301828280156105625780601f1061053757610100808354040283529160200191610562565b820191906000526020600020905b81548152906001019060200180831161054557829003601f168201915b5050505050908060010154905082565b6003602052600090815260409020546001600160a01b031681565b6000610598826108a5565b90506064810690036105aa828261092e565b5050565b60006060600083600285815481106105c257fe5b9060005260206000209060020201600001600286815481106105e057fe5b906000526020600020906002020160010154818054600181600116156101000203166002900480601f0160208091040260200160405190810160405280929190818152602001828054600181600116156101000203166002900480156106875780601f1061065c57610100808354040283529160200191610687565b820191906000526020600020905b81548152906001019060200180831161066a57829003601f168201915b505050505091509250925092509193909250565b6002545b90565b6000848152600360205260409020546001600160a01b031633146106f75760405162461bcd60e51b815260040180806020018281038252602b815260200180610c1c602b913960400191505060405180910390fd5b60006002858154811061070657fe5b906000526020600020906002020190506000600154858161072357fe5b0690506002818360010154018161073657fe5b0490506040518080646b6974747960d81b81525060050190506040518091039020836040516020018082805190602001908083835b6020831061078a5780518252601f19909201916020918201910161076b565b6001836020036101000a0380198251168184511680821785525050505050509050019150506040516020818303038152906040528051906020012014156107d5576064810690036063015b815460408051602060026001851615610100026000190190941693909304601f81018490048402820184019092528181526060926108849286918301828280156108605780601f1061083557610100808354040283529160200191610860565b820191906000526020600020905b81548152906001019060200180831161084357829003601f168201915b5050505050604051806040016040528060018152602001601760f91b815250610a8c565b90506108908186610a8c565b905061089c818361092e565b50505050505050565b600080826040516020018082805190602001908083835b602083106108db5780518252601f1990920191602091820191016108bc565b6001836020036101000a0380198251168184511680821785525050505050509050019150506040516020818303038152906040528051906020012060001c9050600154818161092657fe5b069392505050565b60408051808201909152828152602080820183905260028054600181810180845560008481528651805191979396929593949093027f405787fa12a823e0f2b7631cc41b3ba8828b3321ca811111fa75cd3aa3bb5ace0192610994928492910190610b83565b5060209182015160019182015592909103600081815260038352604080822080546001600160a01b0319163390811790915582526004845280822080549095019094558351828152938401869052606084840181815288519186019190915287519295507f88f026aacbbecc90c18411df4b1185fd8d9be2470f1962f192bf84a27d0704b7948694899489949293926080850192870191908190849084905b83811015610a4b578181015183820152602001610a33565b50505050905090810190601f168015610a785780820380516001836020036101000a031916815260200191505b5094505050505060405180910390a1505050565b6060808390506060839050606081518351016040519080825280601f01601f191660200182016040528015610ac8576020820181803883390190505b509050806000805b8551811015610b2157858181518110610ae557fe5b602001015160f81c60f81b838380600101945081518110610b0257fe5b60200101906001600160f81b031916908160001a905350600101610ad0565b5060005b8451811015610b7657848181518110610b3a57fe5b602001015160f81c60f81b838380600101945081518110610b5757fe5b60200101906001600160f81b031916908160001a905350600101610b25565b5090979650505050505050565b828054600181600116156101000203166002900490600052602060002090601f016020900481019282601f10610bc457805160ff1916838001178555610bf1565b82800160010185558215610bf1579182015b82811115610bf1578251825591602001919060010190610bd6565b50610bfd929150610c01565b5090565b61069f91905b80821115610bfd5760008155600101610c0756fe20416464726573732072657175657374206d757374206265206f6e65206f6620746865206f776e6572732ea265627a7a723158209ef1103bc069dc1f411b3c5e82a37a7de278555f3734b78973b63edad6f8db0a64736f6c634300050c0032",
  "source": "pragma solidity >0.4.99 <0.6.0;\n\nimport \"./ZombieFactory.sol\";\nimport \"./KittyInterface.sol\";\n\ncontract ZombieFeeding is ZombieFactory {\n  //solamente hay que compilar ZombieFeeding — debido a que este contrato es nuestro contrato final que hereda de ZombieFactory\n        //ZombieFactory no es necesario.\n\naddress owner;\nKittyInterface kittyContract;\n\n//**CONSTRUCTOR METHOD**//\n  constructor(address _ckAddress) public { //Se va a decidir la interace\n        owner = msg.sender; // sólo el owner podrà decidir cambiar la address\n        address ckAddress = _ckAddress;\n        kittyContract = KittyInterface(ckAddress);\n     }\n\n\n//**PUBLIC FUNCTIONS**//\n  function feedOnKitty(uint _zombieId, uint _kittyId) public {\n    uint kittyDna;\n    string memory name;\n    (,,,,,,,,,kittyDna, name) = kittyContract.getKitty(_kittyId);\n    feedAndMultiply(_zombieId, kittyDna, name, \"kitty\");\n  }\n\n//**PRIVATE FUNCTIONS**//\n function feedAndMultiply(uint _zombieId, uint _targetDna, string memory _kittyName, string memory _species) private {\n    require(msg.sender == zombieToOwner[_zombieId], \" Address request must be one of the owners.\");\n    Zombie storage myZombie = zombies[_zombieId];\n    uint newDna = _targetDna % dnaModulus;\n    newDna = (myZombie.dna + newDna) / 2;\n    if (keccak256(abi.encodePacked(_species)) == keccak256(\"kitty\")) {\n       newDna = newDna - newDna % 100 + 99; //queremos reemplazar los últimos 2 dígitos del ADN con 99\n    }\n    string memory newName = stringConcat(myZombie.name,\".\"); //generamos nuevo nombre\n    newName = stringConcat(newName,_kittyName);\n    _createZombie(newName, newDna);\n  }\n\n//**INTERNAL PURE FUNCTIONS**//\n  //This function concatenates 2 strings\n  function stringConcat(string memory first, string memory second) internal pure returns (string memory name){\n    bytes memory _ba = bytes(first);\n    bytes memory _bb = bytes(second);\n    string memory _length = new string(_ba.length + _bb.length);\n    bytes memory _bytes = bytes(_length);\n    uint k = 0;\n    for (uint i = 0; i < _ba.length; i++) _bytes[k++] = _ba[i];\n    for (uint j = 0; j < _bb.length; j++) _bytes[k++] = _bb[j];\n    return string(_bytes);\n}\n\n}\n",
  "sourcePath": "E:/dev/ethereum/zombies/contracts/ZombieFeeding.sol",
  "compiler": {
    "name": "solc",
    "version": "0.5.12+commit.7709ece9.Emscripten.clang"
  },
  "schemaVersion": "3.0.18",
  "updatedAt": "2019-11-17T10:08:03.003Z",
  "devdoc": {
    "methods": {}
  },
  "userdoc": {
    "methods": {}
  }
}