{
  "contractName": "ZombieFeeding",
  "abi": [
    {
      "inputs": [
        {
          "internalType": "address",
          "name": "_ckAddress",
          "type": "address"
        }
      ],
      "payable": false,
      "stateMutability": "nonpayable",
      "type": "constructor"
    },
    {
      "anonymous": false,
      "inputs": [
        {
          "indexed": false,
          "internalType": "uint256",
          "name": "zombieId",
          "type": "uint256"
        },
        {
          "indexed": false,
          "internalType": "string",
          "name": "name",
          "type": "string"
        },
        {
          "indexed": false,
          "internalType": "uint256",
          "name": "dna",
          "type": "uint256"
        }
      ],
      "name": "NewZombie",
      "type": "event"
    },
    {
      "anonymous": false,
      "inputs": [
        {
          "indexed": true,
          "internalType": "address",
          "name": "previousOwner",
          "type": "address"
        },
        {
          "indexed": true,
          "internalType": "address",
          "name": "newOwner",
          "type": "address"
        }
      ],
      "name": "OwnershipTransferred",
      "type": "event"
    },
    {
      "constant": false,
      "inputs": [
        {
          "internalType": "string",
          "name": "_name",
          "type": "string"
        }
      ],
      "name": "createRandomZombie",
      "outputs": [],
      "payable": false,
      "stateMutability": "nonpayable",
      "type": "function"
    },
    {
      "constant": true,
      "inputs": [],
      "name": "getCount",
      "outputs": [
        {
          "internalType": "uint256",
          "name": "count",
          "type": "uint256"
        }
      ],
      "payable": false,
      "stateMutability": "view",
      "type": "function"
    },
    {
      "constant": true,
      "inputs": [
        {
          "internalType": "uint256",
          "name": "_index",
          "type": "uint256"
        }
      ],
      "name": "getZombie",
      "outputs": [
        {
          "internalType": "uint256",
          "name": "id",
          "type": "uint256"
        },
        {
          "internalType": "string",
          "name": "name",
          "type": "string"
        },
        {
          "internalType": "uint256",
          "name": "dna",
          "type": "uint256"
        }
      ],
      "payable": false,
      "stateMutability": "view",
      "type": "function"
    },
    {
      "constant": true,
      "inputs": [],
      "name": "isOwner",
      "outputs": [
        {
          "internalType": "bool",
          "name": "",
          "type": "bool"
        }
      ],
      "payable": false,
      "stateMutability": "view",
      "type": "function"
    },
    {
      "constant": true,
      "inputs": [],
      "name": "owner",
      "outputs": [
        {
          "internalType": "address",
          "name": "",
          "type": "address"
        }
      ],
      "payable": false,
      "stateMutability": "view",
      "type": "function"
    },
    {
      "constant": false,
      "inputs": [],
      "name": "renounceOwnership",
      "outputs": [],
      "payable": false,
      "stateMutability": "nonpayable",
      "type": "function"
    },
    {
      "constant": false,
      "inputs": [
        {
          "internalType": "address",
          "name": "newOwner",
          "type": "address"
        }
      ],
      "name": "transferOwnership",
      "outputs": [],
      "payable": false,
      "stateMutability": "nonpayable",
      "type": "function"
    },
    {
      "constant": true,
      "inputs": [
        {
          "internalType": "uint256",
          "name": "",
          "type": "uint256"
        }
      ],
      "name": "zombieToOwner",
      "outputs": [
        {
          "internalType": "address",
          "name": "",
          "type": "address"
        }
      ],
      "payable": false,
      "stateMutability": "view",
      "type": "function"
    },
    {
      "constant": true,
      "inputs": [
        {
          "internalType": "uint256",
          "name": "",
          "type": "uint256"
        }
      ],
      "name": "zombies",
      "outputs": [
        {
          "internalType": "string",
          "name": "name",
          "type": "string"
        },
        {
          "internalType": "uint256",
          "name": "dna",
          "type": "uint256"
        }
      ],
      "payable": false,
      "stateMutability": "view",
      "type": "function"
    },
    {
      "constant": false,
      "inputs": [
        {
          "internalType": "address",
          "name": "_address",
          "type": "address"
        }
      ],
      "name": "setKittyContractAddress",
      "outputs": [],
      "payable": false,
      "stateMutability": "nonpayable",
      "type": "function"
    },
    {
      "constant": false,
      "inputs": [
        {
          "internalType": "uint256",
          "name": "_zombieId",
          "type": "uint256"
        },
        {
          "internalType": "uint256",
          "name": "_kittyId",
          "type": "uint256"
        }
      ],
      "name": "feedOnKitty",
      "outputs": [],
      "payable": false,
      "stateMutability": "nonpayable",
      "type": "function"
    }
  ],
  "bytecode": "0x60806040526010600155662386f26fc1000060025534801561002057600080fd5b506040516110933803806110938339818101604052602081101561004357600080fd5b505160006100586001600160e01b036100c716565b600080546001600160a01b0319166001600160a01b0383169081178255604051929350917f8be0079c531659141344cd1fd0a4f28419497f9722a3daafe3b4186f6b6457e0908290a350600680546001600160a01b0319166001600160a01b03929092169190911790556100cb565b3390565b610fb9806100da6000396000f3fe608060405234801561001057600080fd5b50600436106100a95760003560e01c80637bff0a01116100715780637bff0a01146101d65780638da5cb5b1461027c5780638f32d59b14610284578063a2905611146102a0578063a87d942c14610343578063f2fde38b1461035d576100a9565b806317a7f4cc146100ae5780632052465e146100d3578063528b7b8f1461016f5780635f4623f1146101a8578063715018a6146101ce575b600080fd5b6100d1600480360360408110156100c457600080fd5b5080359060200135610383565b005b6100f0600480360360208110156100e957600080fd5b503561057e565b6040518080602001838152602001828103825284818151815260200191508051906020019080838360005b8381101561013357818101518382015260200161011b565b50505050905090810190601f1680156101605780820380516001836020036101000a031916815260200191505b50935050505060405180910390f35b61018c6004803603602081101561018557600080fd5b5035610631565b604080516001600160a01b039092168252519081900360200190f35b6100d1600480360360208110156101be57600080fd5b50356001600160a01b031661064c565b6100d16106c7565b6100d1600480360360208110156101ec57600080fd5b81019060208101813564010000000081111561020757600080fd5b82018360208201111561021957600080fd5b8035906020019184600183028401116401000000008311171561023b57600080fd5b91908080601f01602080910402602001604051908101604052809392919081815260200183838082843760009201919091525092955061076a945050505050565b61018c61078b565b61028c61079b565b604080519115158252519081900360200190f35b6102bd600480360360208110156102b657600080fd5b50356107bf565b6040518084815260200180602001838152602001828103825284818151815260200191508051906020019080838360005b838110156103065781810151838201526020016102ee565b50505050905090810190601f1680156103335780820380516001836020036101000a031916815260200191505b5094505050505060405180910390f35b61034b6108ac565b60408051918252519081900360200190f35b6100d16004803603602081101561037357600080fd5b50356001600160a01b03166108b2565b6006546040805163e98b7f4d60e01b81526004810184905290516000926060926001600160a01b039091169163e98b7f4d916024808201928792909190829003018186803b1580156103d457600080fd5b505afa1580156103e8573d6000803e3d6000fd5b505050506040513d6000823e601f3d908101601f1916820160405261016081101561041257600080fd5b815160208301516040808501516060860151608087015160a088015160c089015160e08a01516101008b01516101208c01516101408d01805199519b9d9a9c989b979a969995989497939692959194830192918464010000000082111561047857600080fd5b90830190602082018581111561048d57600080fd5b82516401000000008111828201881017156104a757600080fd5b82525081516020918201929091019080838360005b838110156104d45781810151838201526020016104bc565b50505050905090810190601f1680156105015780820380516001836020036101000a031916815260200191505b506040525050509091929394959697989950909192939495969798509091929394959697509091929394959650909192939495509091929394509091929350909192509091508092508193505050610578848383604051806040016040528060058152602001646b6974747960d81b815250610917565b50505050565b6003818154811061058b57fe5b60009182526020918290206002918202018054604080516001831615610100026000190190921693909304601f8101859004850282018501909352828152909350918391908301828280156106215780601f106105f657610100808354040283529160200191610621565b820191906000526020600020905b81548152906001019060200180831161060457829003601f168201915b5050505050908060010154905082565b6004602052600090815260409020546001600160a01b031681565b61065461079b565b6106a5576040805162461bcd60e51b815260206004820181905260248201527f4f776e61626c653a2063616c6c6572206973206e6f7420746865206f776e6572604482015290519081900360640190fd5b600680546001600160a01b0319166001600160a01b0392909216919091179055565b6106cf61079b565b610720576040805162461bcd60e51b815260206004820181905260248201527f4f776e61626c653a2063616c6c6572206973206e6f7420746865206f776e6572604482015290519081900360640190fd5b600080546040516001600160a01b03909116907f8be0079c531659141344cd1fd0a4f28419497f9722a3daafe3b4186f6b6457e0908390a3600080546001600160a01b0319169055565b600061077582610b1a565b90506064810690036107878282610ba3565b5050565b6000546001600160a01b03165b90565b600080546001600160a01b03166107b0610d00565b6001600160a01b031614905090565b60006060600083600385815481106107d357fe5b9060005260206000209060020201600001600386815481106107f157fe5b906000526020600020906002020160010154818054600181600116156101000203166002900480601f0160208091040260200160405190810160405280929190818152602001828054600181600116156101000203166002900480156108985780601f1061086d57610100808354040283529160200191610898565b820191906000526020600020905b81548152906001019060200180831161087b57829003601f168201915b505050505091509250925092509193909250565b60035490565b6108ba61079b565b61090b576040805162461bcd60e51b815260206004820181905260248201527f4f776e61626c653a2063616c6c6572206973206e6f7420746865206f776e6572604482015290519081900360640190fd5b61091481610d04565b50565b6000848152600460205260409020546001600160a01b0316331461096c5760405162461bcd60e51b815260040180806020018281038252602b815260200180610f5a602b913960400191505060405180910390fd5b60006003858154811061097b57fe5b906000526020600020906002020190506000600254858161099857fe5b069050600281836001015401816109ab57fe5b0490506040518080646b6974747960d81b81525060050190506040518091039020836040516020018082805190602001908083835b602083106109ff5780518252601f1990920191602091820191016109e0565b6001836020036101000a038019825116818451168082178552505050505050905001915050604051602081830303815290604052805190602001201415610a4a576064810690036063015b815460408051602060026001851615610100026000190190941693909304601f8101849004840282018401909252818152606092610af9928691830182828015610ad55780601f10610aaa57610100808354040283529160200191610ad5565b820191906000526020600020905b815481529060010190602001808311610ab857829003601f168201915b5050505050604051806040016040528060018152602001601760f91b815250610da4565b9050610b058186610da4565b9050610b118183610ba3565b50505050505050565b600080826040516020018082805190602001908083835b60208310610b505780518252601f199092019160209182019101610b31565b6001836020036101000a0380198251168184511680821785525050505050509050019150506040516020818303038152906040528051906020012060001c90506002548181610b9b57fe5b069392505050565b60408051808201909152828152602080820183905260038054600181810180845560009384528551805194969295919492936002027fc2575a0e9e593c00f959f8c92f12db2869c3395a3b0502d05e2516446f71f85b0192610c089284920190610e9b565b5060209182015160019182015592909103600081815260048352604080822080546001600160a01b0319163390811790915582526005845280822080549095019094558351828152938401869052606084840181815288519186019190915287519295507f88f026aacbbecc90c18411df4b1185fd8d9be2470f1962f192bf84a27d0704b7948694899489949293926080850192870191908190849084905b83811015610cbf578181015183820152602001610ca7565b50505050905090810190601f168015610cec5780820380516001836020036101000a031916815260200191505b5094505050505060405180910390a1505050565b3390565b6001600160a01b038116610d495760405162461bcd60e51b8152600401808060200182810382526026815260200180610f346026913960400191505060405180910390fd5b600080546040516001600160a01b03808516939216917f8be0079c531659141344cd1fd0a4f28419497f9722a3daafe3b4186f6b6457e091a3600080546001600160a01b0319166001600160a01b0392909216919091179055565b6060808390506060839050606081518351016040519080825280601f01601f191660200182016040528015610de0576020820181803883390190505b509050806000805b8551811015610e3957858181518110610dfd57fe5b602001015160f81c60f81b838380600101945081518110610e1a57fe5b60200101906001600160f81b031916908160001a905350600101610de8565b5060005b8451811015610e8e57848181518110610e5257fe5b602001015160f81c60f81b838380600101945081518110610e6f57fe5b60200101906001600160f81b031916908160001a905350600101610e3d565b5090979650505050505050565b828054600181600116156101000203166002900490600052602060002090601f016020900481019282601f10610edc57805160ff1916838001178555610f09565b82800160010185558215610f09579182015b82811115610f09578251825591602001919060010190610eee565b50610f15929150610f19565b5090565b61079891905b80821115610f155760008155600101610f1f56fe4f776e61626c653a206e6577206f776e657220697320746865207a65726f206164647265737320416464726573732072657175657374206d757374206265206f6e65206f6620746865206f776e6572732ea265627a7a72315820145f8be984ddb8d3187f9235e9dde2316892767655579358a9edb89a0cc67a7e64736f6c634300050c0032",
  "source": "pragma solidity >0.4.99 <0.6.0;\n\nimport \"./ZombieFactory.sol\";\nimport \"./KittyInterface.sol\";\n\ncontract ZombieFeeding is ZombieFactory {\n  //solamente hay que compilar ZombieFeeding — debido a que este contrato es nuestro contrato final que hereda de ZombieFactory\n        //ZombieFactory no es necesario.\n\nKittyInterface kittyContract;\n\n//**CONSTRUCTOR METHOD**//\n  constructor(address _ckAddress) public { //Se va a decidir la interace\n        //owner = msg.sender; // sólo el owner podrà decidir cambiar la address\n        address ckAddress = _ckAddress;\n        kittyContract = KittyInterface(ckAddress);\n     }\n\n\n\n//**PUBLIC FUNCTIONS**//\n\n function setKittyContractAddress(address _address) external onlyOwner {\n    kittyContract = KittyInterface(_address);\n  }\n\n  function feedOnKitty(uint _zombieId, uint _kittyId) public {\n    uint kittyDna;\n    string memory name;\n    (,,,,,,,,,kittyDna, name) = kittyContract.getKitty(_kittyId);\n    feedAndMultiply(_zombieId, kittyDna, name, \"kitty\");\n  }\n\n//**PRIVATE FUNCTIONS**//\n function feedAndMultiply(uint _zombieId, uint _targetDna, string memory _kittyName, string memory _species) private {\n    require(msg.sender == zombieToOwner[_zombieId], \" Address request must be one of the owners.\");\n    Zombie storage myZombie = zombies[_zombieId];\n    uint newDna = _targetDna % dnaModulus;\n    newDna = (myZombie.dna + newDna) / 2;\n    if (keccak256(abi.encodePacked(_species)) == keccak256(\"kitty\")) {\n       newDna = newDna - newDna % 100 + 99; //queremos reemplazar los últimos 2 dígitos del ADN con 99\n    }\n    string memory newName = stringConcat(myZombie.name,\".\"); //generamos nuevo nombre\n    newName = stringConcat(newName,_kittyName);\n    _createZombie(newName, newDna);\n  }\n\n//**INTERNAL PURE FUNCTIONS**//\n  //This function concatenates 2 strings\n  function stringConcat(string memory first, string memory second) internal pure returns (string memory name){\n    bytes memory _ba = bytes(first);\n    bytes memory _bb = bytes(second);\n    string memory _length = new string(_ba.length + _bb.length);\n    bytes memory _bytes = bytes(_length);\n    uint k = 0;\n    for (uint i = 0; i < _ba.length; i++) _bytes[k++] = _ba[i];\n    for (uint j = 0; j < _bb.length; j++) _bytes[k++] = _bb[j];\n    return string(_bytes);\n}\n\n function concat(string memory first, string memory second) internal pure returns (string memory name){\n    bytes memory a = bytes(first);\n    bytes memory b = bytes(second);\n    return string(abi.encodePacked(a, b));\n}\n\n}\n",
  "sourcePath": "E:/dev/ethereum/zombies/contracts/ZombieFeeding.sol",
  "compiler": {
    "name": "solc",
    "version": "0.5.12+commit.7709ece9.Emscripten.clang"
  },
  "schemaVersion": "3.0.18",
  "updatedAt": "2019-11-17T16:31:15.637Z",
  "devdoc": {
    "methods": {
      "isOwner()": {
        "details": "Returns true if the caller is the current owner."
      },
      "owner()": {
        "details": "Returns the address of the current owner."
      },
      "renounceOwnership()": {
        "details": "Leaves the contract without owner. It will not be possible to call `onlyOwner` functions anymore. Can only be called by the current owner.     * NOTE: Renouncing ownership will leave the contract without an owner, thereby removing any functionality that is only available to the owner."
      },
      "transferOwnership(address)": {
        "details": "Transfers ownership of the contract to a new account (`newOwner`). Can only be called by the current owner."
      }
    }
  },
  "userdoc": {
    "methods": {}
  }
}