{
  "contractName": "ZombieFactory",
  "abi": [
    {
      "anonymous": false,
      "inputs": [
        {
          "indexed": false,
          "internalType": "uint256",
          "name": "zombieId",
          "type": "uint256"
        },
        {
          "indexed": false,
          "internalType": "string",
          "name": "name",
          "type": "string"
        },
        {
          "indexed": false,
          "internalType": "uint256",
          "name": "dna",
          "type": "uint256"
        }
      ],
      "name": "NewZombie",
      "type": "event"
    },
    {
      "anonymous": false,
      "inputs": [
        {
          "indexed": true,
          "internalType": "address",
          "name": "previousOwner",
          "type": "address"
        },
        {
          "indexed": true,
          "internalType": "address",
          "name": "newOwner",
          "type": "address"
        }
      ],
      "name": "OwnershipTransferred",
      "type": "event"
    },
    {
      "constant": true,
      "inputs": [],
      "name": "isOwner",
      "outputs": [
        {
          "internalType": "bool",
          "name": "",
          "type": "bool"
        }
      ],
      "payable": false,
      "stateMutability": "view",
      "type": "function"
    },
    {
      "constant": true,
      "inputs": [],
      "name": "owner",
      "outputs": [
        {
          "internalType": "address",
          "name": "",
          "type": "address"
        }
      ],
      "payable": false,
      "stateMutability": "view",
      "type": "function"
    },
    {
      "constant": false,
      "inputs": [],
      "name": "renounceOwnership",
      "outputs": [],
      "payable": false,
      "stateMutability": "nonpayable",
      "type": "function"
    },
    {
      "constant": false,
      "inputs": [
        {
          "internalType": "address",
          "name": "newOwner",
          "type": "address"
        }
      ],
      "name": "transferOwnership",
      "outputs": [],
      "payable": false,
      "stateMutability": "nonpayable",
      "type": "function"
    },
    {
      "constant": true,
      "inputs": [
        {
          "internalType": "uint256",
          "name": "",
          "type": "uint256"
        }
      ],
      "name": "zombieToOwner",
      "outputs": [
        {
          "internalType": "address",
          "name": "",
          "type": "address"
        }
      ],
      "payable": false,
      "stateMutability": "view",
      "type": "function"
    },
    {
      "constant": true,
      "inputs": [
        {
          "internalType": "uint256",
          "name": "",
          "type": "uint256"
        }
      ],
      "name": "zombies",
      "outputs": [
        {
          "internalType": "string",
          "name": "name",
          "type": "string"
        },
        {
          "internalType": "uint256",
          "name": "dna",
          "type": "uint256"
        }
      ],
      "payable": false,
      "stateMutability": "view",
      "type": "function"
    },
    {
      "constant": false,
      "inputs": [
        {
          "internalType": "string",
          "name": "_name",
          "type": "string"
        }
      ],
      "name": "createRandomZombie",
      "outputs": [],
      "payable": false,
      "stateMutability": "nonpayable",
      "type": "function"
    },
    {
      "constant": true,
      "inputs": [
        {
          "internalType": "uint256",
          "name": "_index",
          "type": "uint256"
        }
      ],
      "name": "getZombie",
      "outputs": [
        {
          "internalType": "uint256",
          "name": "id",
          "type": "uint256"
        },
        {
          "internalType": "string",
          "name": "name",
          "type": "string"
        },
        {
          "internalType": "uint256",
          "name": "dna",
          "type": "uint256"
        }
      ],
      "payable": false,
      "stateMutability": "view",
      "type": "function"
    },
    {
      "constant": true,
      "inputs": [],
      "name": "getCount",
      "outputs": [
        {
          "internalType": "uint256",
          "name": "count",
          "type": "uint256"
        }
      ],
      "payable": false,
      "stateMutability": "view",
      "type": "function"
    }
  ],
  "bytecode": "0x60806040526010600155662386f26fc1000060025560006100276001600160e01b0361007616565b600080546001600160a01b0319166001600160a01b0383169081178255604051929350917f8be0079c531659141344cd1fd0a4f28419497f9722a3daafe3b4186f6b6457e0908290a35061007a565b3390565b6109bf806100896000396000f3fe608060405234801561001057600080fd5b50600436106100935760003560e01c80638da5cb5b116100665780638da5cb5b1461021d5780638f32d59b14610225578063a290561114610241578063a87d942c146102e4578063f2fde38b146102fe57610093565b80632052465e14610098578063528b7b8f14610134578063715018a61461016d5780637bff0a0114610177575b600080fd5b6100b5600480360360208110156100ae57600080fd5b5035610324565b6040518080602001838152602001828103825284818151815260200191508051906020019080838360005b838110156100f85781810151838201526020016100e0565b50505050905090810190601f1680156101255780820380516001836020036101000a031916815260200191505b50935050505060405180910390f35b6101516004803603602081101561014a57600080fd5b50356103d7565b604080516001600160a01b039092168252519081900360200190f35b6101756103f2565b005b6101756004803603602081101561018d57600080fd5b8101906020810181356401000000008111156101a857600080fd5b8201836020820111156101ba57600080fd5b803590602001918460018302840111640100000000831117156101dc57600080fd5b91908080601f016020809104026020016040519081016040528093929190818152602001838380828437600092019190915250929550610495945050505050565b6101516104b6565b61022d6104c6565b604080519115158252519081900360200190f35b61025e6004803603602081101561025757600080fd5b50356104ea565b6040518084815260200180602001838152602001828103825284818151815260200191508051906020019080838360005b838110156102a757818101518382015260200161028f565b50505050905090810190601f1680156102d45780820380516001836020036101000a031916815260200191505b5094505050505060405180910390f35b6102ec6105d7565b60408051918252519081900360200190f35b6101756004803603602081101561031457600080fd5b50356001600160a01b03166105dd565b6003818154811061033157fe5b60009182526020918290206002918202018054604080516001831615610100026000190190921693909304601f8101859004850282018501909352828152909350918391908301828280156103c75780601f1061039c576101008083540402835291602001916103c7565b820191906000526020600020905b8154815290600101906020018083116103aa57829003601f168201915b5050505050908060010154905082565b6004602052600090815260409020546001600160a01b031681565b6103fa6104c6565b61044b576040805162461bcd60e51b815260206004820181905260248201527f4f776e61626c653a2063616c6c6572206973206e6f7420746865206f776e6572604482015290519081900360640190fd5b600080546040516001600160a01b03909116907f8be0079c531659141344cd1fd0a4f28419497f9722a3daafe3b4186f6b6457e0908390a3600080546001600160a01b0319169055565b60006104a082610642565b90506064810690036104b282826106cb565b5050565b6000546001600160a01b03165b90565b600080546001600160a01b03166104db610828565b6001600160a01b031614905090565b60006060600083600385815481106104fe57fe5b90600052602060002090600202016000016003868154811061051c57fe5b906000526020600020906002020160010154818054600181600116156101000203166002900480601f0160208091040260200160405190810160405280929190818152602001828054600181600116156101000203166002900480156105c35780601f10610598576101008083540402835291602001916105c3565b820191906000526020600020905b8154815290600101906020018083116105a657829003601f168201915b505050505091509250925092509193909250565b60035490565b6105e56104c6565b610636576040805162461bcd60e51b815260206004820181905260248201527f4f776e61626c653a2063616c6c6572206973206e6f7420746865206f776e6572604482015290519081900360640190fd5b61063f8161082c565b50565b600080826040516020018082805190602001908083835b602083106106785780518252601f199092019160209182019101610659565b6001836020036101000a0380198251168184511680821785525050505050509050019150506040516020818303038152906040528051906020012060001c905060025481816106c357fe5b069392505050565b60408051808201909152828152602080820183905260038054600181810180845560009384528551805194969295919492936002027fc2575a0e9e593c00f959f8c92f12db2869c3395a3b0502d05e2516446f71f85b019261073092849201906108cc565b5060209182015160019182015592909103600081815260048352604080822080546001600160a01b0319163390811790915582526005845280822080549095019094558351828152938401869052606084840181815288519186019190915287519295507f88f026aacbbecc90c18411df4b1185fd8d9be2470f1962f192bf84a27d0704b7948694899489949293926080850192870191908190849084905b838110156107e75781810151838201526020016107cf565b50505050905090810190601f1680156108145780820380516001836020036101000a031916815260200191505b5094505050505060405180910390a1505050565b3390565b6001600160a01b0381166108715760405162461bcd60e51b81526004018080602001828103825260268152602001806109656026913960400191505060405180910390fd5b600080546040516001600160a01b03808516939216917f8be0079c531659141344cd1fd0a4f28419497f9722a3daafe3b4186f6b6457e091a3600080546001600160a01b0319166001600160a01b0392909216919091179055565b828054600181600116156101000203166002900490600052602060002090601f016020900481019282601f1061090d57805160ff191683800117855561093a565b8280016001018555821561093a579182015b8281111561093a57825182559160200191906001019061091f565b5061094692915061094a565b5090565b6104c391905b80821115610946576000815560010161095056fe4f776e61626c653a206e6577206f776e657220697320746865207a65726f2061646472657373a265627a7a72315820d5049771bf769ee225dfec552142bf8641977f82941250cb7e9ffcf26159dc1264736f6c634300050c0032",
  "source": "pragma solidity >0.4.99 <0.6.0;\n\nimport \"./Ownable.sol\";\n\ncontract ZombieFactory is Ownable {\n\n    event NewZombie(uint zombieId, string name, uint dna);\n\n    uint dnaDigits = 16;\n    uint dnaModulus = 10 ** dnaDigits;\n\n    struct Zombie {\n        string name;\n        uint dna;\n    }\n\n    Zombie[] public zombies;\n\n    mapping (uint => address) public zombieToOwner;\n    mapping (address => uint) ownerZombieCount;\n\n    function _createZombie(string memory _name, uint _dna) internal {\n        uint id = zombies.push(Zombie(_name, _dna)) - 1;\n        zombieToOwner[id] = msg.sender;\n        ownerZombieCount[msg.sender]++;\n        emit NewZombie(id, _name, _dna);\n    }\n\n    function _generateRandomDna(string memory _str) private view returns (uint) {\n        uint rand = uint(keccak256(abi.encodePacked(_str)));\n        return rand % dnaModulus;\n    }\n\n    function createRandomZombie(string memory _name) public {\n        //require(ownerZombieCount[msg.sender] == 0, \"The counter of this contract must not be 0.\");\n        uint randDna = _generateRandomDna(_name);\n        randDna = randDna - randDna % 100;\n        _createZombie(_name, randDna);\n    }\n\n    function getZombie(uint _index) public view returns (uint id, string memory name, uint dna) { //devuelve json con nombres definidos.\n        return (_index, zombies[_index].name, zombies[_index].dna); //necesitamos devolver los struct así.\n    }\n\n    function getCount() public view returns (uint count) { //Devolvemos el tamaño del array\n        return zombies.length;\n    }\n\n}\n",
  "sourcePath": "E:\\dev\\ethereum\\zombies\\contracts\\ZombieFactory.sol",
  "compiler": {
    "name": "solc",
    "version": "0.5.12+commit.7709ece9.Emscripten.clang"
  },
  "schemaVersion": "3.0.18",
  "updatedAt": "2019-11-17T16:31:15.631Z",
  "devdoc": {
    "methods": {
      "isOwner()": {
        "details": "Returns true if the caller is the current owner."
      },
      "owner()": {
        "details": "Returns the address of the current owner."
      },
      "renounceOwnership()": {
        "details": "Leaves the contract without owner. It will not be possible to call `onlyOwner` functions anymore. Can only be called by the current owner.     * NOTE: Renouncing ownership will leave the contract without an owner, thereby removing any functionality that is only available to the owner."
      },
      "transferOwnership(address)": {
        "details": "Transfers ownership of the contract to a new account (`newOwner`). Can only be called by the current owner."
      }
    }
  },
  "userdoc": {
    "methods": {}
  }
}