{
  "contractName": "ZombieFactory",
  "abi": [
    {
      "anonymous": false,
      "inputs": [
        {
          "indexed": false,
          "internalType": "uint256",
          "name": "zombieId",
          "type": "uint256"
        },
        {
          "indexed": false,
          "internalType": "string",
          "name": "name",
          "type": "string"
        },
        {
          "indexed": false,
          "internalType": "uint256",
          "name": "dna",
          "type": "uint256"
        }
      ],
      "name": "NewZombie",
      "type": "event"
    },
    {
      "constant": true,
      "inputs": [
        {
          "internalType": "uint256",
          "name": "",
          "type": "uint256"
        }
      ],
      "name": "zombies",
      "outputs": [
        {
          "internalType": "string",
          "name": "name",
          "type": "string"
        },
        {
          "internalType": "uint256",
          "name": "dna",
          "type": "uint256"
        }
      ],
      "payable": false,
      "stateMutability": "view",
      "type": "function"
    },
    {
      "constant": false,
      "inputs": [
        {
          "internalType": "string",
          "name": "_name",
          "type": "string"
        }
      ],
      "name": "createRandomZombie",
      "outputs": [
        {
          "internalType": "uint256",
          "name": "dna",
          "type": "uint256"
        }
      ],
      "payable": false,
      "stateMutability": "nonpayable",
      "type": "function"
    },
    {
      "constant": true,
      "inputs": [
        {
          "internalType": "uint256",
          "name": "_index",
          "type": "uint256"
        }
      ],
      "name": "getZombie",
      "outputs": [
        {
          "internalType": "uint256",
          "name": "id",
          "type": "uint256"
        },
        {
          "internalType": "string",
          "name": "name",
          "type": "string"
        },
        {
          "internalType": "uint256",
          "name": "dna",
          "type": "uint256"
        }
      ],
      "payable": false,
      "stateMutability": "view",
      "type": "function"
    },
    {
      "constant": true,
      "inputs": [],
      "name": "getCount",
      "outputs": [
        {
          "internalType": "uint256",
          "name": "count",
          "type": "uint256"
        }
      ],
      "payable": false,
      "stateMutability": "view",
      "type": "function"
    }
  ],
  "bytecode": "0x60806040526010600055662386f26fc1000060015534801561002057600080fd5b50610694806100306000396000f3fe608060405234801561001057600080fd5b506004361061004c5760003560e01c80632052465e146100515780637bff0a01146100ed578063a2905611146101a5578063a87d942c14610248575b600080fd5b61006e6004803603602081101561006757600080fd5b5035610250565b6040518080602001838152602001828103825284818151815260200191508051906020019080838360005b838110156100b1578181015183820152602001610099565b50505050905090810190601f1680156100de5780820380516001836020036101000a031916815260200191505b50935050505060405180910390f35b6101936004803603602081101561010357600080fd5b81019060208101813564010000000081111561011e57600080fd5b82018360208201111561013057600080fd5b8035906020019184600183028401116401000000008311171561015257600080fd5b91908080601f016020809104026020016040519081016040528093929190818152602001838380828437600092019190915250929550610303945050505050565b60408051918252519081900360200190f35b6101c2600480360360208110156101bb57600080fd5b5035610322565b6040518084815260200180602001838152602001828103825284818151815260200191508051906020019080838360005b8381101561020b5781810151838201526020016101f3565b50505050905090810190601f1680156102385780820380516001836020036101000a031916815260200191505b5094505050505060405180910390f35b61019361040f565b6002818154811061025d57fe5b60009182526020918290206002918202018054604080516001831615610100026000190190921693909304601f8101859004850282018501909352828152909350918391908301828280156102f35780601f106102c8576101008083540402835291602001916102f3565b820191906000526020600020905b8154815290600101906020018083116102d657829003601f168201915b5050505050908060010154905082565b60008061030f83610416565b905061031b838261049f565b5092915050565b600060606000836002858154811061033657fe5b90600052602060002090600202016000016002868154811061035457fe5b906000526020600020906002020160010154818054600181600116156101000203166002900480601f0160208091040260200160405190810160405280929190818152602001828054600181600116156101000203166002900480156103fb5780601f106103d0576101008083540402835291602001916103fb565b820191906000526020600020905b8154815290600101906020018083116103de57829003601f168201915b505050505091509250925092509193909250565b6002545b90565b600080826040516020018082805190602001908083835b6020831061044c5780518252601f19909201916020918201910161042d565b6001836020036101000a0380198251168184511680821785525050505050509050019150506040516020818303038152906040528051906020012060001c9050600154818161049757fe5b069392505050565b6040805180820190915282815260208082018390526002805460018181018084556000848152865180519197889794969395909493027f405787fa12a823e0f2b7631cc41b3ba8828b3321ca811111fa75cd3aa3bb5ace0192610507928492909101906105c7565b506020820151816001015550500390507f88f026aacbbecc90c18411df4b1185fd8d9be2470f1962f192bf84a27d0704b78185856040518084815260200180602001838152602001828103825284818151815260200191508051906020019080838360005b8381101561058457818101518382015260200161056c565b50505050905090810190601f1680156105b15780820380516001836020036101000a031916815260200191505b5094505050505060405180910390a15092915050565b828054600181600116156101000203166002900490600052602060002090601f016020900481019282601f1061060857805160ff1916838001178555610635565b82800160010185558215610635579182015b8281111561063557825182559160200191906001019061061a565b50610641929150610645565b5090565b61041391905b80821115610641576000815560010161064b56fea265627a7a723158209f1cfffddf87b88c07a2859c443997de68afec721a1982139b2f676023ccdade64736f6c634300050c0032",
  "source": "pragma solidity >0.4.99 <0.6.0;\n\ncontract ZombieFactory {\n\n    // declara nuestro evento aquí\n    event NewZombie(uint zombieId, string name, uint dna);\n\n    uint dnaDigits = 16;\n    uint dnaModulus = 10 ** dnaDigits;\n\n    struct Zombie { //struct de un Zombie\n        string name;\n        uint dna;\n    } //Automáticamente se genera la 'function Zombie(_name, _dna) external view returns struct' por ser public.\n\n    Zombie[] public zombies; //Array dinámico de struct Zombie\n    //Automáticamente se genera la 'function zombies() external view returns Zombie[]' por ser public.\n        //pero Al ser un array de structs nos dará problemas.\n\n    function _createZombie(string memory _name, uint _dna) private returns (uint) {\n        // memory hace una copia independiente de la variable en memoria y no soportaría .push\n        uint id = zombies.push(Zombie(_name, _dna)) - 1; // usamos el metodo auto\n        emit NewZombie(id, _name, _dna);\n     }\n\n    function _generateRandomDna(string memory _str) private view returns (uint) {\n        uint rand = uint(keccak256(abi.encodePacked(_str)));\n        return rand % dnaModulus;\n    }\n\n    function createRandomZombie(string memory _name) public returns (uint dna) {\n        uint randDna = _generateRandomDna(_name);\n        _createZombie(_name, randDna);\n        return randDna;\n    }\n\n    function getZombie(uint _index) public view returns (uint id, string memory name, uint dna) { //devuelve json con nombres definidos.\n        return (_index, zombies[_index].name, zombies[_index].dna); //necesitamos devolver los struct así.\n    }\n\n    function getCount() public view returns (uint count) { //Devolvemos el tamaño del array\n        return zombies.length;\n    }\n\n}\n",
  "sourcePath": "E:/dev/ethereum/zombies/contracts/ZombieFactory.sol",
  "compiler": {
    "name": "solc",
    "version": "0.5.12+commit.7709ece9.Emscripten.clang"
  },
  "schemaVersion": "3.0.18",
  "updatedAt": "2019-11-10T01:56:39.119Z",
  "networkType": "ethereum",
  "devdoc": {
    "methods": {}
  },
  "userdoc": {
    "methods": {}
  }
}