{
  "contractName": "ZombieFeeding",
  "abi": [
    {
      "inputs": [
        {
          "internalType": "address",
          "name": "_ckAddress",
          "type": "address"
        }
      ],
      "payable": false,
      "stateMutability": "nonpayable",
      "type": "constructor"
    },
    {
      "anonymous": false,
      "inputs": [
        {
          "indexed": false,
          "internalType": "uint256",
          "name": "zombieId",
          "type": "uint256"
        },
        {
          "indexed": false,
          "internalType": "string",
          "name": "name",
          "type": "string"
        },
        {
          "indexed": false,
          "internalType": "uint256",
          "name": "dna",
          "type": "uint256"
        }
      ],
      "name": "NewZombie",
      "type": "event"
    },
    {
      "constant": false,
      "inputs": [
        {
          "internalType": "string",
          "name": "_name",
          "type": "string"
        }
      ],
      "name": "createRandomZombie",
      "outputs": [],
      "payable": false,
      "stateMutability": "nonpayable",
      "type": "function"
    },
    {
      "constant": true,
      "inputs": [
        {
          "internalType": "uint256",
          "name": "",
          "type": "uint256"
        }
      ],
      "name": "zombieToOwner",
      "outputs": [
        {
          "internalType": "address",
          "name": "",
          "type": "address"
        }
      ],
      "payable": false,
      "stateMutability": "view",
      "type": "function"
    },
    {
      "constant": true,
      "inputs": [
        {
          "internalType": "uint256",
          "name": "",
          "type": "uint256"
        }
      ],
      "name": "zombies",
      "outputs": [
        {
          "internalType": "string",
          "name": "name",
          "type": "string"
        },
        {
          "internalType": "uint256",
          "name": "dna",
          "type": "uint256"
        }
      ],
      "payable": false,
      "stateMutability": "view",
      "type": "function"
    },
    {
      "constant": false,
      "inputs": [
        {
          "internalType": "uint256",
          "name": "_zombieId",
          "type": "uint256"
        },
        {
          "internalType": "uint256",
          "name": "_targetDna",
          "type": "uint256"
        },
        {
          "internalType": "string",
          "name": "_species",
          "type": "string"
        }
      ],
      "name": "feedAndMultiply",
      "outputs": [],
      "payable": false,
      "stateMutability": "nonpayable",
      "type": "function"
    },
    {
      "constant": false,
      "inputs": [
        {
          "internalType": "uint256",
          "name": "_zombieId",
          "type": "uint256"
        },
        {
          "internalType": "uint256",
          "name": "_kittyId",
          "type": "uint256"
        }
      ],
      "name": "feedOnKitty",
      "outputs": [],
      "payable": false,
      "stateMutability": "nonpayable",
      "type": "function"
    }
  ],
  "bytecode": "0x60806040526010600055662386f26fc1000060015534801561002057600080fd5b506040516109873803806109878339818101604052602081101561004357600080fd5b505160058054336001600160a01b031991821617909155600680549091166001600160a01b03909216919091179055610906806100816000396000f3fe608060405234801561001057600080fd5b50600436106100575760003560e01c806317a7f4cc1461005c5780632052465e14610081578063528b7b8f1461011d5780636b0bfc80146101565780637bff0a0114610208575b600080fd5b61007f6004803603604081101561007257600080fd5b50803590602001356102ae565b005b61009e6004803603602081101561009757600080fd5b503561035d565b6040518080602001838152602001828103825284818151815260200191508051906020019080838360005b838110156100e15781810151838201526020016100c9565b50505050905090810190601f16801561010e5780820380516001836020036101000a031916815260200191505b50935050505060405180910390f35b61013a6004803603602081101561013357600080fd5b5035610410565b604080516001600160a01b039092168252519081900360200190f35b61007f6004803603606081101561016c57600080fd5b81359160208101359181019060608101604082013564010000000081111561019357600080fd5b8201836020820111156101a557600080fd5b803590602001918460018302840111640100000000831117156101c757600080fd5b91908080601f01602080910402602001604051908101604052809392919081815260200183838082843760009201919091525092955061042b945050505050565b61007f6004803603602081101561021e57600080fd5b81019060208101813564010000000081111561023957600080fd5b82018360208201111561024b57600080fd5b8035906020019184600183028401116401000000008311171561026d57600080fd5b91908080601f01602080910402602001604051908101604052809392919081815260200183838082843760009201919091525092955061058d945050505050565b6006546040805163e98b7f4d60e01b81526004810184905290516000926001600160a01b03169163e98b7f4d91602480830192610140929190829003018186803b1580156102fb57600080fd5b505afa15801561030f573d6000803e3d6000fd5b505050506040513d61014081101561032657600080fd5b5061012001516040805180820190915260058152646b6974747960d81b6020820152909150610358908490839061042b565b505050565b6002818154811061036a57fe5b60009182526020918290206002918202018054604080516001831615610100026000190190921693909304601f8101859004850282018501909352828152909350918391908301828280156104005780601f106103d557610100808354040283529160200191610400565b820191906000526020600020905b8154815290600101906020018083116103e357829003601f168201915b5050505050908060010154905082565b6003602052600090815260409020546001600160a01b031681565b6000838152600360205260409020546001600160a01b031633146104805760405162461bcd60e51b815260040180806020018281038252602b81526020018061087d602b913960400191505060405180910390fd5b60006002848154811061048f57fe5b90600052602060002090600202019050600060015484816104ac57fe5b069050600281836001015401816104bf57fe5b0490506040518080646b6974747960d81b81525060050190506040518091039020836040516020018082805190602001908083835b602083106105135780518252601f1990920191602091820191016104f4565b6001836020036101000a03801982511681845116808217855250505050505090500191505060405160208183030381529060405280519060200120141561055e576064810690036063015b610586604051806040016040528060068152602001654e6f4e616d6560d01b815250826105fa565b5050505050565b33600090815260046020526040902054156105d95760405162461bcd60e51b815260040180806020018281038252602a8152602001806108a8602a913960400191505060405180910390fd5b60006105e482610758565b90506064810690036105f682826105fa565b5050565b60408051808201909152828152602080820183905260028054600181810180845560008481528651805191979396929593949093027f405787fa12a823e0f2b7631cc41b3ba8828b3321ca811111fa75cd3aa3bb5ace01926106609284929101906107e1565b5060209182015160019182015592909103600081815260038352604080822080546001600160a01b0319163390811790915582526004845280822080549095019094558351828152938401869052606084840181815288519186019190915287519295507f88f026aacbbecc90c18411df4b1185fd8d9be2470f1962f192bf84a27d0704b7948694899489949293926080850192870191908190849084905b838110156107175781810151838201526020016106ff565b50505050905090810190601f1680156107445780820380516001836020036101000a031916815260200191505b5094505050505060405180910390a1505050565b600080826040516020018082805190602001908083835b6020831061078e5780518252601f19909201916020918201910161076f565b6001836020036101000a0380198251168184511680821785525050505050509050019150506040516020818303038152906040528051906020012060001c905060015481816107d957fe5b069392505050565b828054600181600116156101000203166002900490600052602060002090601f016020900481019282601f1061082257805160ff191683800117855561084f565b8280016001018555821561084f579182015b8281111561084f578251825591602001919060010190610834565b5061085b92915061085f565b5090565b61087991905b8082111561085b5760008155600101610865565b9056fe20416464726573732072657175657374206d757374206265206f6e65206f6620746865206f776e6572732e54686520636f756e746572206f662074686920636f6e7472616374206d757374206e6f7420626520302ea265627a7a72315820962bf609152dd4f9bb0f75366212d305505a04f18b908a89b5b9c0743bfa7a3c64736f6c634300050c0032",
  "source": "pragma solidity >0.4.99 <0.6.0;\n\nimport \"./ZombieFactory.sol\";\nimport \"./KittyInterface.sol\";\n\ncontract ZombieFeeding is ZombieFactory {\n\naddress owner;\nKittyInterface kittyContract;\n\n\n  constructor(address _ckAddress) public { //Se va a decidir la interace\n        owner = msg.sender; // sólo el owner podrà decidir cambiar la address\n        address ckAddress = _ckAddress;\n        kittyContract = KittyInterface(ckAddress);\n     }\n\n  function feedAndMultiply(uint _zombieId, uint _targetDna, string memory _species) public {\n    require(msg.sender == zombieToOwner[_zombieId], \" Address request must be one of the owners.\");\n    Zombie storage myZombie = zombies[_zombieId];\n    uint newDna = _targetDna % dnaModulus;\n    newDna = (myZombie.dna + newDna) / 2;\n    if (keccak256(abi.encodePacked(_species)) == keccak256(\"kitty\")) {\n       newDna = newDna - newDna % 100 + 99; //queremos reemplazar los últimos 2 dígitos del ADN con 99\n    }\n    _createZombie(\"NoName\", newDna);\n  }\n\n  function feedOnKitty(uint _zombieId, uint _kittyId) public {\n    uint kittyDna;\n    (,,,,,,,,,kittyDna) = kittyContract.getKitty(_kittyId);\n    feedAndMultiply(_zombieId, kittyDna, \"kitty\");\n  }\n\n}\n",
  "sourcePath": "E:/dev/ethereum/zombies/contracts/ZombieFeeding.sol",
  "compiler": {
    "name": "solc",
    "version": "0.5.12+commit.7709ece9.Emscripten.clang"
  },
  "schemaVersion": "3.0.18",
  "updatedAt": "2019-11-16T16:50:20.429Z",
  "devdoc": {
    "methods": {}
  },
  "userdoc": {
    "methods": {}
  }
}