{
  "contractName": "ZombieFactory",
  "abi": [
    {
      "anonymous": false,
      "inputs": [
        {
          "indexed": false,
          "internalType": "uint256",
          "name": "zombieId",
          "type": "uint256"
        },
        {
          "indexed": false,
          "internalType": "string",
          "name": "name",
          "type": "string"
        },
        {
          "indexed": false,
          "internalType": "uint256",
          "name": "dna",
          "type": "uint256"
        }
      ],
      "name": "NewZombie",
      "type": "event"
    },
    {
      "constant": true,
      "inputs": [
        {
          "internalType": "uint256",
          "name": "",
          "type": "uint256"
        }
      ],
      "name": "zombieToOwner",
      "outputs": [
        {
          "internalType": "address",
          "name": "",
          "type": "address"
        }
      ],
      "payable": false,
      "stateMutability": "view",
      "type": "function"
    },
    {
      "constant": true,
      "inputs": [
        {
          "internalType": "uint256",
          "name": "",
          "type": "uint256"
        }
      ],
      "name": "zombies",
      "outputs": [
        {
          "internalType": "string",
          "name": "name",
          "type": "string"
        },
        {
          "internalType": "uint256",
          "name": "dna",
          "type": "uint256"
        }
      ],
      "payable": false,
      "stateMutability": "view",
      "type": "function"
    },
    {
      "constant": false,
      "inputs": [
        {
          "internalType": "string",
          "name": "_name",
          "type": "string"
        }
      ],
      "name": "createRandomZombie",
      "outputs": [],
      "payable": false,
      "stateMutability": "nonpayable",
      "type": "function"
    },
    {
      "constant": true,
      "inputs": [
        {
          "internalType": "uint256",
          "name": "_index",
          "type": "uint256"
        }
      ],
      "name": "getZombie",
      "outputs": [
        {
          "internalType": "uint256",
          "name": "id",
          "type": "uint256"
        },
        {
          "internalType": "string",
          "name": "name",
          "type": "string"
        },
        {
          "internalType": "uint256",
          "name": "dna",
          "type": "uint256"
        }
      ],
      "payable": false,
      "stateMutability": "view",
      "type": "function"
    },
    {
      "constant": true,
      "inputs": [],
      "name": "getCount",
      "outputs": [
        {
          "internalType": "uint256",
          "name": "count",
          "type": "uint256"
        }
      ],
      "payable": false,
      "stateMutability": "view",
      "type": "function"
    }
  ],
  "bytecode": "0x60806040526010600055662386f26fc1000060015534801561002057600080fd5b5061072d806100306000396000f3fe608060405234801561001057600080fd5b50600436106100575760003560e01c80632052465e1461005c578063528b7b8f146100f85780637bff0a0114610131578063a2905611146101d9578063a87d942c1461027c575b600080fd5b6100796004803603602081101561007257600080fd5b5035610296565b6040518080602001838152602001828103825284818151815260200191508051906020019080838360005b838110156100bc5781810151838201526020016100a4565b50505050905090810190601f1680156100e95780820380516001836020036101000a031916815260200191505b50935050505060405180910390f35b6101156004803603602081101561010e57600080fd5b5035610349565b604080516001600160a01b039092168252519081900360200190f35b6101d76004803603602081101561014757600080fd5b81019060208101813564010000000081111561016257600080fd5b82018360208201111561017457600080fd5b8035906020019184600183028401116401000000008311171561019657600080fd5b91908080601f016020809104026020016040519081016040528093929190818152602001838380828437600092019190915250929550610364945050505050565b005b6101f6600480360360208110156101ef57600080fd5b5035610385565b6040518084815260200180602001838152602001828103825284818151815260200191508051906020019080838360005b8381101561023f578181015183820152602001610227565b50505050905090810190601f16801561026c5780820380516001836020036101000a031916815260200191505b5094505050505060405180910390f35b610284610472565b60408051918252519081900360200190f35b600281815481106102a357fe5b60009182526020918290206002918202018054604080516001831615610100026000190190921693909304601f8101859004850282018501909352828152909350918391908301828280156103395780601f1061030e57610100808354040283529160200191610339565b820191906000526020600020905b81548152906001019060200180831161031c57829003601f168201915b5050505050908060010154905082565b6003602052600090815260409020546001600160a01b031681565b600061036f82610479565b90506064810690036103818282610502565b5050565b600060606000836002858154811061039957fe5b9060005260206000209060020201600001600286815481106103b757fe5b906000526020600020906002020160010154818054600181600116156101000203166002900480601f01602080910402602001604051908101604052809291908181526020018280546001816001161561010002031660029004801561045e5780601f106104335761010080835404028352916020019161045e565b820191906000526020600020905b81548152906001019060200180831161044157829003601f168201915b505050505091509250925092509193909250565b6002545b90565b600080826040516020018082805190602001908083835b602083106104af5780518252601f199092019160209182019101610490565b6001836020036101000a0380198251168184511680821785525050505050509050019150506040516020818303038152906040528051906020012060001c905060015481816104fa57fe5b069392505050565b60408051808201909152828152602080820183905260028054600181810180845560008481528651805191979396929593949093027f405787fa12a823e0f2b7631cc41b3ba8828b3321ca811111fa75cd3aa3bb5ace0192610568928492910190610660565b5060209182015160019182015592909103600081815260038352604080822080546001600160a01b0319163390811790915582526004845280822080549095019094558351828152938401869052606084840181815288519186019190915287519295507f88f026aacbbecc90c18411df4b1185fd8d9be2470f1962f192bf84a27d0704b7948694899489949293926080850192870191908190849084905b8381101561061f578181015183820152602001610607565b50505050905090810190601f16801561064c5780820380516001836020036101000a031916815260200191505b5094505050505060405180910390a1505050565b828054600181600116156101000203166002900490600052602060002090601f016020900481019282601f106106a157805160ff19168380011785556106ce565b828001600101855582156106ce579182015b828111156106ce5782518255916020019190600101906106b3565b506106da9291506106de565b5090565b61047691905b808211156106da57600081556001016106e456fea265627a7a72315820e49170dab4236dbeb1bcd182371ac74038bde106f75169a1a6fe6eb3a1348b0a64736f6c634300050c0032",
  "source": "pragma solidity >0.4.99 <0.6.0;\n\ncontract ZombieFactory {\n\n    event NewZombie(uint zombieId, string name, uint dna);\n\n    uint dnaDigits = 16;\n    uint dnaModulus = 10 ** dnaDigits;\n\n    struct Zombie {\n        string name;\n        uint dna;\n    }\n\n    Zombie[] public zombies;\n\n    mapping (uint => address) public zombieToOwner;\n    mapping (address => uint) ownerZombieCount;\n\n    function _createZombie(string memory _name, uint _dna) internal {\n        uint id = zombies.push(Zombie(_name, _dna)) - 1;\n        zombieToOwner[id] = msg.sender;\n        ownerZombieCount[msg.sender]++;\n        emit NewZombie(id, _name, _dna);\n    }\n\n    function _generateRandomDna(string memory _str) private view returns (uint) {\n        uint rand = uint(keccak256(abi.encodePacked(_str)));\n        return rand % dnaModulus;\n    }\n\n    function createRandomZombie(string memory _name) public {\n        //require(ownerZombieCount[msg.sender] == 0, \"The counter of this contract must not be 0.\");\n        uint randDna = _generateRandomDna(_name);\n        randDna = randDna - randDna % 100;\n        _createZombie(_name, randDna);\n    }\n\n    function getZombie(uint _index) public view returns (uint id, string memory name, uint dna) { //devuelve json con nombres definidos.\n        return (_index, zombies[_index].name, zombies[_index].dna); //necesitamos devolver los struct así.\n    }\n\n    function getCount() public view returns (uint count) { //Devolvemos el tamaño del array\n        return zombies.length;\n    }\n\n}\n",
  "sourcePath": "E:\\dev\\ethereum\\zombies\\contracts\\ZombieFactory.sol",
  "compiler": {
    "name": "solc",
    "version": "0.5.12+commit.7709ece9.Emscripten.clang"
  },
  "schemaVersion": "3.0.18",
  "updatedAt": "2019-11-17T10:08:03.000Z",
  "devdoc": {
    "methods": {}
  },
  "userdoc": {
    "methods": {}
  }
}