{
  "contractName": "Apuestas",
  "abi": [
    {
      "inputs": [],
      "payable": false,
      "stateMutability": "nonpayable",
      "type": "constructor"
    },
    {
      "anonymous": false,
      "inputs": [
        {
          "indexed": false,
          "internalType": "string",
          "name": "_value",
          "type": "string"
        }
      ],
      "name": "logApuestaGanadora",
      "type": "event"
    },
    {
      "constant": true,
      "inputs": [],
      "name": "apostado",
      "outputs": [
        {
          "internalType": "uint256",
          "name": "",
          "type": "uint256"
        }
      ],
      "payable": false,
      "stateMutability": "view",
      "type": "function"
    },
    {
      "constant": true,
      "inputs": [],
      "name": "estadoActual",
      "outputs": [
        {
          "internalType": "enum Apuestas.Estado",
          "name": "",
          "type": "uint8"
        }
      ],
      "payable": false,
      "stateMutability": "view",
      "type": "function"
    },
    {
      "constant": true,
      "inputs": [],
      "name": "jugador1",
      "outputs": [
        {
          "internalType": "address payable",
          "name": "",
          "type": "address"
        }
      ],
      "payable": false,
      "stateMutability": "view",
      "type": "function"
    },
    {
      "constant": true,
      "inputs": [],
      "name": "jugador2",
      "outputs": [
        {
          "internalType": "address payable",
          "name": "",
          "type": "address"
        }
      ],
      "payable": false,
      "stateMutability": "view",
      "type": "function"
    },
    {
      "constant": true,
      "inputs": [],
      "name": "numeroBloqueSemilla",
      "outputs": [
        {
          "internalType": "uint256",
          "name": "",
          "type": "uint256"
        }
      ],
      "payable": false,
      "stateMutability": "view",
      "type": "function"
    },
    {
      "constant": false,
      "inputs": [],
      "name": "apostar",
      "outputs": [],
      "payable": true,
      "stateMutability": "payable",
      "type": "function"
    },
    {
      "constant": false,
      "inputs": [],
      "name": "aceptarApuesta",
      "outputs": [],
      "payable": true,
      "stateMutability": "payable",
      "type": "function"
    },
    {
      "constant": false,
      "inputs": [],
      "name": "resolverApuesta",
      "outputs": [],
      "payable": false,
      "stateMutability": "nonpayable",
      "type": "function"
    },
    {
      "constant": true,
      "inputs": [],
      "name": "obtenerBalanceContrato",
      "outputs": [
        {
          "internalType": "uint256",
          "name": "",
          "type": "uint256"
        }
      ],
      "payable": false,
      "stateMutability": "view",
      "type": "function"
    },
    {
      "constant": true,
      "inputs": [],
      "name": "obtenerBalanceJugador1",
      "outputs": [
        {
          "internalType": "uint256",
          "name": "",
          "type": "uint256"
        }
      ],
      "payable": false,
      "stateMutability": "view",
      "type": "function"
    },
    {
      "constant": true,
      "inputs": [],
      "name": "obtenerBalanceJugador2",
      "outputs": [
        {
          "internalType": "uint256",
          "name": "",
          "type": "uint256"
        }
      ],
      "payable": false,
      "stateMutability": "view",
      "type": "function"
    },
    {
      "constant": true,
      "inputs": [],
      "name": "obtenerDireccionContrato",
      "outputs": [
        {
          "internalType": "address",
          "name": "",
          "type": "address"
        }
      ],
      "payable": false,
      "stateMutability": "view",
      "type": "function"
    },
    {
      "constant": true,
      "inputs": [],
      "name": "obtenerDireccionJugador1",
      "outputs": [
        {
          "internalType": "address",
          "name": "",
          "type": "address"
        }
      ],
      "payable": false,
      "stateMutability": "view",
      "type": "function"
    },
    {
      "constant": true,
      "inputs": [],
      "name": "obtenerDireccionJugador2",
      "outputs": [
        {
          "internalType": "address",
          "name": "",
          "type": "address"
        }
      ],
      "payable": false,
      "stateMutability": "view",
      "type": "function"
    },
    {
      "constant": true,
      "inputs": [],
      "name": "obtenerEstado",
      "outputs": [
        {
          "internalType": "string",
          "name": "",
          "type": "string"
        }
      ],
      "payable": false,
      "stateMutability": "view",
      "type": "function"
    }
  ],
  "bytecode": "0x608060405234801561001057600080fd5b506000805460ff191681556107a790819061002b90396000f3fe6080604052600436106100e85760003560e01c806342fe04e01161008a5780638ea2b0d0116100595780638ea2b0d014610290578063c1811269146102a5578063dae9d4e2146102ad578063e22069e5146102c2576100e8565b806342fe04e0146101c7578063597c60da146101dc5780636772f6ae146101f1578063722d22fc14610206576100e8565b80632ff7a944116100c65780632ff7a9441461015757806337c2fe731461016c57806337ed0da4146101815780633dc7a9eb14610196576100e8565b806325637f58146100ed57806327272eb4146101145780632af46d2b1461014d575b600080fd5b3480156100f957600080fd5b506101026102d7565b60408051918252519081900360200190f35b34801561012057600080fd5b506101296102dd565b6040518082600281111561013957fe5b60ff16815260200191505060405180910390f35b6101556102e6565b005b34801561016357600080fd5b506101026103b0565b34801561017857600080fd5b506101026103b6565b34801561018d57600080fd5b506101026103bc565b3480156101a257600080fd5b506101ab6103cc565b604080516001600160a01b039092168252519081900360200190f35b3480156101d357600080fd5b506101ab6103db565b3480156101e857600080fd5b506101ab6103ea565b3480156101fd57600080fd5b506101ab6103ee565b34801561021257600080fd5b5061021b6103fd565b6040805160208082528351818301528351919283929083019185019080838360005b8381101561025557818101518382015260200161023d565b50505050905090810190601f1680156102825780820380516001836020036101000a031916815260200191505b509250505060405180910390f35b34801561029c57600080fd5b506101556104c5565b610155610679565b3480156102b957600080fd5b506101026106fa565b3480156102ce57600080fd5b506101ab61070a565b30315b90565b60005460ff1681565b60005460019060ff1660028111156102fa57fe5b81600281111561030657fe5b146103425760405162461bcd60e51b815260040180806020018281038252603381526020018061071a6033913960400191505060405180910390fd5b60015434146103825760405162461bcd60e51b815260040180806020018281038252602681526020018061074d6026913960400191505060405180910390fd5b43600455600380546001600160a01b03191633179055600080546002919060ff19166001835b021790555050565b60045481565b60015481565b6003546001600160a01b03163190565b6003546001600160a01b031681565b6003546001600160a01b031690565b3090565b6002546001600160a01b031690565b60606000805460ff16600281111561041157fe5b141561043e575060408051808201909152600a81526973696e4170756573746160b01b60208201526102da565b600160005460ff16600281111561045157fe5b1415610480575060408051808201909152600c81526b61707565737461486563686160a01b60208201526102da565b600260005460ff16600281111561049357fe5b14156102da575060408051808201909152600f81526e61707565737461416365707461646160881b60208201526102da565b60005460029060ff16818111156104d857fe5b8160028111156104e457fe5b146105205760405162461bcd60e51b815260040180806020018281038252603381526020018061071a6033913960400191505060405180910390fd5b6004546000805460ff19169055407f7fffffffffeefbe3a9866aa166f115a6993e8d0646cf50b28000000000000000808204806105e757604080516020808252600d908201526c47616e61204a756761646f723160981b8183015290517f074527a12777bc92102433347d463da42ffab275d636b624fc609f95e47540999181900360600190a16002546040516001600160a01b0390911690303180156108fc02916000818181858888f193505050501580156105e1573d6000803e3d6000fd5b50610673565b604080516020808252600d908201526c23b0b73090253ab3b0b237b91960991b8183015290517f074527a12777bc92102433347d463da42ffab275d636b624fc609f95e47540999181900360600190a16003546040516001600160a01b0390911690303180156108fc02916000818181858888f19350505050158015610671573d6000803e3d6000fd5b505b50505050565b6000805460ff16600281111561068b57fe5b81600281111561069757fe5b146106d35760405162461bcd60e51b815260040180806020018281038252603381526020018061071a6033913960400191505060405180910390fd5b346001908155600280546001600160a01b031916331790556000805460ff191682806103a8565b6002546001600160a01b03163190565b6002546001600160a01b03168156fe4552524f523a2065737461646f457370657261646f206973206469666572656e74207468616e2065737461646f41637475616c4552524f523a2076616c7565206973206469666572656e74207468616e2061706f737461646fa265627a7a723158209d1b6be1e538af988e52c36c984843c2fe78fe5e9e512e8a1336b703d6ae663c64736f6c634300050c0032",
  "source": "pragma solidity >0.4.99 <0.6.0;\r\n\r\n// SMART CONTRACT de pruebas, que permite que un jugador1 realice una apuesta,\r\n// que otro jugador2 acepte la apuesta y que gane alguien aleatoriamente.  **/\r\n\r\ncontract Apuestas {\r\n    enum Estado {sinApuesta, apuestaHecha, apuestaAceptada}\r\n    Estado public estadoActual;\r\n    uint public apostado;\r\n    address payable public jugador1;\r\n    address payable public jugador2;\r\n    uint public numeroBloqueSemilla;\r\n\r\n    constructor () public {\r\n        estadoActual = Estado.sinApuesta; // asignamos estado inical\r\n    }\r\n\r\n    event logApuestaGanadora(string _value);  //para escribir logs\r\n\r\n    modifier soloEstado (Estado estadoEsperado) {  //modifier lleva restricciones para functiones que lo pidan.\r\n            require(estadoEsperado == estadoActual, \"ERROR: estadoEsperado is diferent than estadoActual\");\r\n                //Comprueba que el estado actual corresponda con esperado\r\n            _;\r\n    }\r\n\r\n    function apostar() public soloEstado(Estado.sinApuesta) payable { //recibe from y value (payable), que irá a Apuestas address.\r\n        apostado = msg.value;\r\n        jugador1 = msg.sender;\r\n        estadoActual = Estado.apuestaHecha; //cambiamos estado\r\n    }\r\n\r\n    function aceptarApuesta() public soloEstado(Estado.apuestaHecha) payable { //recibe from y value (payable), que irá a Apuestas address.\r\n        require(msg.value == apostado, \"ERROR: value is diferent than apostado\");\r\n        numeroBloqueSemilla = block.number;\r\n        jugador2 = msg.sender;\r\n        estadoActual = Estado.apuestaAceptada;\r\n    }\r\n\r\n\r\n    function resolverApuesta() public soloEstado(Estado.apuestaAceptada)  { //recibe from y value (payable), que irá a Apuestas address.\r\n        uint256 bloque = uint256(blockhash(numeroBloqueSemilla));\r\n        uint256 halfMaxValue = 57896044618651097711785492504343953926634992332820282019728792003956564819968; //mitad del màximo entero\r\n        uint256 flip = uint256(uint256(bloque)/halfMaxValue);\r\n\r\n        estadoActual = Estado.sinApuesta;\r\n        if (flip == 0){\r\n            emit logApuestaGanadora(\"Gana Jugador1\");\r\n            jugador1.transfer(address(this).balance);\r\n        } else{\r\n            emit logApuestaGanadora(\"Gana Jugador2\");\r\n            jugador2.transfer(address(this).balance);\r\n        }\r\n\r\n    }\r\n\r\n    /** FUNCIONES INFORMATIVAS, NO RELEVANTES */\r\n\r\n    function obtenerBalanceContrato() public view returns (uint) {\r\n        return address(this).balance;\r\n\r\n    }\r\n\r\n    function obtenerBalanceJugador1() public view returns (uint) {\r\n        return address(jugador1).balance;\r\n\r\n    }\r\n\r\n    function obtenerBalanceJugador2() public view returns (uint) {\r\n        return address(jugador2).balance;\r\n\r\n    }\r\n\r\n    function obtenerDireccionContrato() public view returns (address) {\r\n        return address(this);\r\n    }\r\n\r\n    function obtenerDireccionJugador1() public view returns (address) {\r\n        return address(jugador1);\r\n    }\r\n\r\n    function obtenerDireccionJugador2() public view returns (address) {\r\n        return address(jugador2);\r\n    }\r\n\r\n    function obtenerEstado() public view returns (string  memory) {\r\n        if(estadoActual == Estado.sinApuesta) return \"sinApuesta\";\r\n        if(estadoActual == Estado.apuestaHecha) return \"apuestaHecha\";\r\n        if(estadoActual == Estado.apuestaAceptada) return \"apuestaAceptada\";\r\n    }\r\n\r\n}\r\n",
  "sourcePath": "E:/dev/ethereum/BetsArbitration/contracts/Apuestas.sol",
  "compiler": {
    "name": "solc",
    "version": "0.5.12+commit.7709ece9.Emscripten.clang"
  },
  "schemaVersion": "3.0.18",
  "updatedAt": "2019-11-09T22:36:58.224Z",
  "networkType": "ethereum",
  "devdoc": {
    "methods": {}
  },
  "userdoc": {
    "methods": {
      "obtenerBalanceContrato()": {
        "notice": "FUNCIONES INFORMATIVAS, NO RELEVANTES "
      }
    }
  }
}