{
  "contractName": "Apuestas",
  "abi": [
    {
      "constant": true,
      "inputs": [],
      "name": "estadoActual",
      "outputs": [
        {
          "name": "",
          "type": "uint8"
        }
      ],
      "payable": false,
      "stateMutability": "view",
      "type": "function"
    },
    {
      "constant": true,
      "inputs": [],
      "name": "numeroBloqueSemilla",
      "outputs": [
        {
          "name": "",
          "type": "uint256"
        }
      ],
      "payable": false,
      "stateMutability": "view",
      "type": "function"
    },
    {
      "constant": true,
      "inputs": [],
      "name": "apostado",
      "outputs": [
        {
          "name": "",
          "type": "uint256"
        }
      ],
      "payable": false,
      "stateMutability": "view",
      "type": "function"
    },
    {
      "constant": true,
      "inputs": [],
      "name": "jugador2",
      "outputs": [
        {
          "name": "",
          "type": "address"
        }
      ],
      "payable": false,
      "stateMutability": "view",
      "type": "function"
    },
    {
      "constant": true,
      "inputs": [],
      "name": "jugador1",
      "outputs": [
        {
          "name": "",
          "type": "address"
        }
      ],
      "payable": false,
      "stateMutability": "view",
      "type": "function"
    },
    {
      "inputs": [],
      "payable": false,
      "stateMutability": "nonpayable",
      "type": "constructor"
    },
    {
      "anonymous": false,
      "inputs": [
        {
          "indexed": false,
          "name": "_value",
          "type": "string"
        }
      ],
      "name": "log",
      "type": "event"
    },
    {
      "constant": false,
      "inputs": [],
      "name": "apostar",
      "outputs": [],
      "payable": true,
      "stateMutability": "payable",
      "type": "function"
    },
    {
      "constant": false,
      "inputs": [],
      "name": "aceptarApuesta",
      "outputs": [],
      "payable": true,
      "stateMutability": "payable",
      "type": "function"
    },
    {
      "constant": false,
      "inputs": [],
      "name": "resolverApuesta",
      "outputs": [],
      "payable": false,
      "stateMutability": "nonpayable",
      "type": "function"
    },
    {
      "constant": true,
      "inputs": [],
      "name": "obtenerBalanceContrato",
      "outputs": [
        {
          "name": "",
          "type": "uint256"
        }
      ],
      "payable": false,
      "stateMutability": "view",
      "type": "function"
    },
    {
      "constant": true,
      "inputs": [],
      "name": "obtenerBalanceJugador1",
      "outputs": [
        {
          "name": "",
          "type": "uint256"
        }
      ],
      "payable": false,
      "stateMutability": "view",
      "type": "function"
    },
    {
      "constant": true,
      "inputs": [],
      "name": "obtenerBalanceJugador2",
      "outputs": [
        {
          "name": "",
          "type": "uint256"
        }
      ],
      "payable": false,
      "stateMutability": "view",
      "type": "function"
    },
    {
      "constant": true,
      "inputs": [],
      "name": "obtenerDireccionContrato",
      "outputs": [
        {
          "name": "",
          "type": "address"
        }
      ],
      "payable": false,
      "stateMutability": "view",
      "type": "function"
    },
    {
      "constant": true,
      "inputs": [],
      "name": "obtenerDireccionJugador1",
      "outputs": [
        {
          "name": "",
          "type": "address"
        }
      ],
      "payable": false,
      "stateMutability": "view",
      "type": "function"
    },
    {
      "constant": true,
      "inputs": [],
      "name": "obtenerDireccionJugador2",
      "outputs": [
        {
          "name": "",
          "type": "address"
        }
      ],
      "payable": false,
      "stateMutability": "view",
      "type": "function"
    },
    {
      "constant": true,
      "inputs": [],
      "name": "obtenerEstado",
      "outputs": [
        {
          "name": "",
          "type": "string"
        }
      ],
      "payable": false,
      "stateMutability": "view",
      "type": "function"
    }
  ],
  "bytecode": "0x608060405234801561001057600080fd5b5060008060006101000a81548160ff0219169083600281111561002f57fe5b0217905550610b04806100436000396000f3006080604052600436106100db576000357c0100000000000000000000000000000000000000000000000000000000900463ffffffff16806325637f58146100e057806327272eb41461010b5780632af46d2b146101445780632ff7a9441461014e57806337c2fe731461017957806337ed0da4146101a45780633dc7a9eb146101cf57806342fe04e014610226578063597c60da1461027d5780636772f6ae146102d4578063722d22fc1461032b5780638ea2b0d0146103bb578063c1811269146103d2578063dae9d4e2146103dc578063e22069e514610407575b600080fd5b3480156100ec57600080fd5b506100f561045e565b6040518082815260200191505060405180910390f35b34801561011757600080fd5b5061012061047d565b6040518082600281111561013057fe5b60ff16815260200191505060405180910390f35b61014c61048f565b005b34801561015a57600080fd5b50610163610541565b6040518082815260200191505060405180910390f35b34801561018557600080fd5b5061018e610547565b6040518082815260200191505060405180910390f35b3480156101b057600080fd5b506101b961054d565b6040518082815260200191505060405180910390f35b3480156101db57600080fd5b506101e461058e565b604051808273ffffffffffffffffffffffffffffffffffffffff1673ffffffffffffffffffffffffffffffffffffffff16815260200191505060405180910390f35b34801561023257600080fd5b5061023b6105b4565b604051808273ffffffffffffffffffffffffffffffffffffffff1673ffffffffffffffffffffffffffffffffffffffff16815260200191505060405180910390f35b34801561028957600080fd5b506102926105de565b604051808273ffffffffffffffffffffffffffffffffffffffff1673ffffffffffffffffffffffffffffffffffffffff16815260200191505060405180910390f35b3480156102e057600080fd5b506102e96105e6565b604051808273ffffffffffffffffffffffffffffffffffffffff1673ffffffffffffffffffffffffffffffffffffffff16815260200191505060405180910390f35b34801561033757600080fd5b50610340610610565b6040518080602001828103825283818151815260200191508051906020019080838360005b83811015610380578082015181840152602081019050610365565b50505050905090810190601f1680156103ad5780820380516001836020036101000a031916815260200191505b509250505060405180910390f35b3480156103c757600080fd5b506103d0610753565b005b6103da6109cf565b005b3480156103e857600080fd5b506103f1610a71565b6040518082815260200191505060405180910390f35b34801561041357600080fd5b5061041c610ab2565b604051808273ffffffffffffffffffffffffffffffffffffffff1673ffffffffffffffffffffffffffffffffffffffff16815260200191505060405180910390f35b60003073ffffffffffffffffffffffffffffffffffffffff1631905090565b6000809054906101000a900460ff1681565b60016000809054906101000a900460ff1660028111156104ab57fe5b8160028111156104b757fe5b1415156104c357600080fd5b600154341415156104d357600080fd5b4360048190555033600360006101000a81548173ffffffffffffffffffffffffffffffffffffffff021916908373ffffffffffffffffffffffffffffffffffffffff16021790555060026000806101000a81548160ff0219169083600281111561053957fe5b021790555050565b60045481565b60015481565b6000600360009054906101000a900473ffffffffffffffffffffffffffffffffffffffff1673ffffffffffffffffffffffffffffffffffffffff1631905090565b600360009054906101000a900473ffffffffffffffffffffffffffffffffffffffff1681565b6000600360009054906101000a900473ffffffffffffffffffffffffffffffffffffffff16905090565b600030905090565b6000600260009054906101000a900473ffffffffffffffffffffffffffffffffffffffff16905090565b60606000600281111561061f57fe5b6000809054906101000a900460ff16600281111561063957fe5b141561067c576040805190810160405280600a81526020017f73696e41707565737461000000000000000000000000000000000000000000008152509050610750565b6001600281111561068957fe5b6000809054906101000a900460ff1660028111156106a357fe5b14156106e6576040805190810160405280600c81526020017f61707565737461486563686100000000000000000000000000000000000000008152509050610750565b6002808111156106f257fe5b6000809054906101000a900460ff16600281111561070c57fe5b141561074f576040805190810160405280600f81526020017f61707565737461416365707461646100000000000000000000000000000000008152509050610750565b5b90565b600080600060026000809054906101000a900460ff16600281111561077457fe5b81600281111561078057fe5b14151561078c57600080fd5b600454406001900493507f7fffffffffeefbe3a9866aa166f115a6993e8d0646cf50b28000000000000000925082848115156107c457fe5b04915060008060006101000a81548160ff021916908360028111156107e557fe5b021790555060008214156108e0577f41304facd9323d75b11bcdd609cb38effffdb05710f7caf0e9b16c6d9d709f5060405180806020018281038252600d8152602001807f47616e61204a756761646f72310000000000000000000000000000000000000081525060200191505060405180910390a1600260009054906101000a900473ffffffffffffffffffffffffffffffffffffffff1673ffffffffffffffffffffffffffffffffffffffff166108fc3073ffffffffffffffffffffffffffffffffffffffff16319081150290604051600060405180830381858888f193505050501580156108da573d6000803e3d6000fd5b506109c9565b7f41304facd9323d75b11bcdd609cb38effffdb05710f7caf0e9b16c6d9d709f5060405180806020018281038252600d8152602001807f47616e61204a756761646f72320000000000000000000000000000000000000081525060200191505060405180910390a1600360009054906101000a900473ffffffffffffffffffffffffffffffffffffffff1673ffffffffffffffffffffffffffffffffffffffff166108fc3073ffffffffffffffffffffffffffffffffffffffff16319081150290604051600060405180830381858888f193505050501580156109c7573d6000803e3d6000fd5b505b50505050565b60008060009054906101000a900460ff1660028111156109eb57fe5b8160028111156109f757fe5b141515610a0357600080fd5b3460018190555033600260006101000a81548173ffffffffffffffffffffffffffffffffffffffff021916908373ffffffffffffffffffffffffffffffffffffffff16021790555060016000806101000a81548160ff02191690836002811115610a6957fe5b021790555050565b6000600260009054906101000a900473ffffffffffffffffffffffffffffffffffffffff1673ffffffffffffffffffffffffffffffffffffffff1631905090565b600260009054906101000a900473ffffffffffffffffffffffffffffffffffffffff16815600a165627a7a723058208d8e69e0c8647075014e5c4d711c72c118401d37ecbf3e36cce06859547ebcb10029",
  "source": "pragma solidity ^0.4.18;\r\n\r\n/* SMART CONTRACT de pruebas, que permite que un jugador1 realice una apuesta, \r\nque otro jugador2 acepte la apuesta y que gane alguien aleatoriamente.  */\r\n\r\ncontract Apuestas {\r\n    \r\n    enum Estado {sinApuesta, apuestaHecha, apuestaAceptada}\r\n    Estado public estadoActual;\r\n    uint public apostado;\r\n    address public jugador1;\r\n    address public jugador2;\r\n    uint public numeroBloqueSemilla;\r\n \r\n    constructor () public {\r\n        estadoActual = Estado.sinApuesta; // asignamos estado inical\r\n    }\r\n         \r\n    event log(string _value);  //para escribir logs\r\n\r\n    modifier soloEstado (Estado estadoEsperado) {  //modifier lleva restricciones para functiones que lo pidan. \r\n        require(estadoEsperado == estadoActual); //Comprueba que el estado actual corresponda con esperado\r\n        _;\r\n    }\r\n    \r\n    function apostar() public soloEstado(Estado.sinApuesta) payable { //recibe from y value (payable), que irá a Apuestas address.\r\n        apostado = msg.value;\r\n        jugador1 = msg.sender;\r\n        estadoActual = Estado.apuestaHecha; //cambiamos estado\r\n    }\r\n    \r\n    function aceptarApuesta() public soloEstado(Estado.apuestaHecha) payable { //recibe from y value (payable), que irá a Apuestas address.\r\n        require(msg.value == apostado);\r\n        numeroBloqueSemilla = block.number;\r\n        jugador2 = msg.sender;\r\n        estadoActual = Estado.apuestaAceptada;\r\n    }\r\n    \r\n   \r\n    \r\n    \r\n\r\n    function resolverApuesta() public soloEstado(Estado.apuestaAceptada)  { //recibe from y value (payable), que irá a Apuestas address.\r\n        uint256 bloque = uint256(blockhash(numeroBloqueSemilla)); \r\n        uint256 halfMaxValue = 57896044618651097711785492504343953926634992332820282019728792003956564819968; //mitad del màximo entero\r\n        uint256 flip = uint256(uint256(bloque)/halfMaxValue);\r\n        \r\n        estadoActual = Estado.sinApuesta;\r\n        if (flip == 0){\r\n            emit log(\"Gana Jugador1\");\r\n            jugador1.transfer(address(this).balance);\r\n        } else{\r\n            emit log(\"Gana Jugador2\");\r\n            jugador2.transfer(address(this).balance);\r\n        }\r\n     \r\n        \r\n    }\r\n\r\n    /** FUNCIONES INFORMATIVAS, NO RELEVANTES */\r\n\r\n    function obtenerBalanceContrato() public view returns (uint) {\r\n        return address(this).balance;\r\n        \r\n    }\r\n    \r\n    function obtenerBalanceJugador1() public view returns (uint) {\r\n        return address(jugador1).balance;\r\n        \r\n    }\r\n\r\n    function obtenerBalanceJugador2() public view returns (uint) {\r\n        return address(jugador2).balance;\r\n        \r\n    }\r\n\r\n    function obtenerDireccionContrato() public view returns (address) {\r\n        return address(this);\r\n    }\r\n    \r\n    function obtenerDireccionJugador1() public view returns (address) {\r\n        return address(jugador1);\r\n    }\r\n\r\n    function obtenerDireccionJugador2() public view returns (address) {\r\n        return address(jugador2);\r\n    }\r\n  \r\n    function obtenerEstado() public view returns (string) {\r\n        if(estadoActual == Estado.sinApuesta) return \"sinApuesta\";\r\n        if(estadoActual == Estado.apuestaHecha) return \"apuestaHecha\";\r\n        if(estadoActual == Estado.apuestaAceptada) return \"apuestaAceptada\";\r\n    }\r\n\r\n} \r\n ",
  "sourcePath": "C:\\Users\\Oriol\\Downloads\\solidity\\BlockChainEthereumBets-Arbitration\\contracts\\Apuestas.sol",
  "compiler": {
    "name": "solc",
    "version": "0.4.23+commit.124ca40d.Emscripten.clang"
  },
  "schemaVersion": "2.0.0",
  "updatedAt": "2018-05-23T08:29:27.630Z"
}