{
  "contractName": "CompraArbitrada",
  "abi": [
    {
      "constant": true,
      "inputs": [],
      "name": "comprador",
      "outputs": [
        {
          "name": "",
          "type": "address"
        }
      ],
      "payable": false,
      "stateMutability": "view",
      "type": "function"
    },
    {
      "constant": true,
      "inputs": [],
      "name": "vendedor",
      "outputs": [
        {
          "name": "",
          "type": "address"
        }
      ],
      "payable": false,
      "stateMutability": "view",
      "type": "function"
    },
    {
      "constant": true,
      "inputs": [],
      "name": "arbitro",
      "outputs": [
        {
          "name": "",
          "type": "address"
        }
      ],
      "payable": false,
      "stateMutability": "view",
      "type": "function"
    },
    {
      "inputs": [
        {
          "name": "_vendedor",
          "type": "address"
        },
        {
          "name": "_arbitro",
          "type": "address"
        }
      ],
      "payable": false,
      "stateMutability": "nonpayable",
      "type": "constructor"
    },
    {
      "constant": false,
      "inputs": [],
      "name": "compra",
      "outputs": [],
      "payable": true,
      "stateMutability": "payable",
      "type": "function"
    },
    {
      "constant": false,
      "inputs": [],
      "name": "pagarAlVendedor",
      "outputs": [],
      "payable": false,
      "stateMutability": "nonpayable",
      "type": "function"
    },
    {
      "constant": false,
      "inputs": [],
      "name": "devolverAlComprador",
      "outputs": [],
      "payable": false,
      "stateMutability": "nonpayable",
      "type": "function"
    },
    {
      "constant": true,
      "inputs": [],
      "name": "obtenerBalanceContrato",
      "outputs": [
        {
          "name": "",
          "type": "uint256"
        }
      ],
      "payable": false,
      "stateMutability": "view",
      "type": "function"
    },
    {
      "constant": true,
      "inputs": [],
      "name": "obtenerBalanceComprador",
      "outputs": [
        {
          "name": "",
          "type": "uint256"
        }
      ],
      "payable": false,
      "stateMutability": "view",
      "type": "function"
    },
    {
      "constant": true,
      "inputs": [],
      "name": "obtenerBalanceVendedor",
      "outputs": [
        {
          "name": "",
          "type": "uint256"
        }
      ],
      "payable": false,
      "stateMutability": "view",
      "type": "function"
    },
    {
      "constant": true,
      "inputs": [],
      "name": "obtenerDireccionContrato",
      "outputs": [
        {
          "name": "",
          "type": "address"
        }
      ],
      "payable": false,
      "stateMutability": "view",
      "type": "function"
    },
    {
      "constant": true,
      "inputs": [],
      "name": "obtenerDireccionComprador",
      "outputs": [
        {
          "name": "",
          "type": "address"
        }
      ],
      "payable": false,
      "stateMutability": "view",
      "type": "function"
    },
    {
      "constant": true,
      "inputs": [],
      "name": "obtenerDireccionArbitro",
      "outputs": [
        {
          "name": "",
          "type": "address"
        }
      ],
      "payable": false,
      "stateMutability": "view",
      "type": "function"
    },
    {
      "constant": true,
      "inputs": [],
      "name": "obtenerDireccionVendedor",
      "outputs": [
        {
          "name": "",
          "type": "address"
        }
      ],
      "payable": false,
      "stateMutability": "view",
      "type": "function"
    }
  ],
  "bytecode": "0x608060405234801561001057600080fd5b5060405160408061046a8339810180604052604081101561003057600080fd5b508051602090910151600080546001600160a01b03199081163317909155600180546001600160a01b03948516908316179055600280549390921692169190911790556103e8806100826000396000f3fe6080604052600436106100c25760003560e01c80635486fea61161007f5780639391c054116100595780639391c054146101a7578063b1b82336146101bc578063b558b261146101d1578063f70a9ba9146101e6576100c2565b80635486fea614610168578063597c60da1461017d578063762c75a214610192576100c2565b80630f50b6e7146100c757806318edf0bc146100f857806325637f581461011f5780632e71a1b4146101345780633182237f1461013e5780633b45e96214610153575b600080fd5b3480156100d357600080fd5b506100dc6101fb565b604080516001600160a01b039092168252519081900360200190f35b34801561010457600080fd5b5061010d61020a565b60408051918252519081900360200190f35b34801561012b57600080fd5b5061010d61021a565b61013c61021f565b005b34801561014a57600080fd5b506100dc61026d565b34801561015f57600080fd5b5061010d61027c565b34801561017457600080fd5b506100dc61028c565b34801561018957600080fd5b506100dc61029b565b34801561019e57600080fd5b5061013c61029f565b3480156101b357600080fd5b506100dc610305565b3480156101c857600080fd5b5061013c610314565b3480156101dd57600080fd5b506100dc610376565b3480156101f257600080fd5b506100dc610385565b6000546001600160a01b031681565b6001546001600160a01b03163190565b303190565b6000546001600160a01b0316331461026b57604051600160e51b62461bcd0281526004018080602001828103825260288152602001806103956028913960400191505060405180910390fd5b565b6001546001600160a01b031681565b6000546001600160a01b03163190565b6001546001600160a01b031690565b3090565b6000546001600160a01b03163314806102c257506002546001600160a01b031633145b1561026b57600080546040516001600160a01b0390911691303180156108fc02929091818181858888f19350505050158015610302573d6000803e3d6000fd5b50565b6002546001600160a01b031681565b6000546001600160a01b031633148061033757506002546001600160a01b031633145b1561026b576001546040516001600160a01b0390911690303180156108fc02916000818181858888f19350505050158015610302573d6000803e3d6000fd5b6000546001600160a01b031690565b6002546001600160a01b03169056fe4552524f523a2073656e646572206973206469666572656e74207468616e20636f6d707261646f72a165627a7a7230582038e57127d47a08eaad4d7be0e475ce2bd16114ae6cb427e2c64658538c8f9c840029",
  "source": "pragma solidity >0.4.99 <0.6.0;\n\n// SMART CONTRACT de pruebas, que permite realizar una compra y que este sea validado por un arbitro,\n// o bien por el propio comprador, hasta no ser aprobada el dinero no irá al Vendedor.\n// Si se deniega se devuelve el dinero al comprador */\n\ncontract CompraArbitrada {\n\n    address payable public comprador;\n    address payable public vendedor;\n    address payable public arbitro;\n\n    constructor ( address payable _vendedor, address payable _arbitro) public { //recibe quien es el comprador, vendedor y arbitro.\n        comprador = msg.sender;\n        vendedor = _vendedor;\n        arbitro = _arbitro;\n    }\n\n    function compra()  public payable { //Recibe from y value (payable), value irá temporalmente a la dirección del contrato (smartContract).\n        require (msg.sender == comprador, \"ERROR: sender is diferent than comprador\");\n    }\n\n    function pagarAlVendedor() public { //Recibe from, transferirá al vendedor el dinero del contrato.\n        if (msg.sender == comprador || msg.sender == arbitro){\n            vendedor.transfer(address(this).balance);\n        }\n    }\n\n    function devolverAlComprador() public { //Recibe from, devolverá al comprador el dinero del contrato.\n        if (msg.sender == comprador || msg.sender == arbitro){\n            comprador.transfer(address(this).balance);\n        }\n    }\n\n/** FUNCIONES INFORMATIVAS, NO RELEVANTES */\n\n    function obtenerBalanceContrato() public view returns (uint) {\n        return address(this).balance;\n    }\n\n    function obtenerBalanceComprador() public view returns (uint) {\n        return address(comprador).balance;\n    }\n\n    function obtenerBalanceVendedor() public view returns (uint) {\n        return address(vendedor).balance;\n    }\n\n    function obtenerDireccionContrato() public view returns (address) {\n        return address(this);\n    }\n\n    function obtenerDireccionComprador() public view returns (address) {\n        return address(comprador);\n    }\n\n    function obtenerDireccionArbitro() public view returns (address) {\n        return address(arbitro);\n    }\n\n    function obtenerDireccionVendedor() public view returns (address) {\n        return address(vendedor);\n    }\n\n}",
  "sourcePath": "C:/Users/Oriol/Downloads/ethereum/projects/BetsArbitration/contracts/CompraArbitrada.sol",
  "compiler": {
    "name": "solc",
    "version": "0.5.8+commit.23d335f2.Emscripten.clang"
  },
  "schemaVersion": "3.0.17",
  "updatedAt": "2019-11-05T15:51:54.595Z",
  "networkType": "ethereum",
  "devdoc": {
    "methods": {}
  },
  "userdoc": {
    "methods": {
      "obtenerBalanceContrato()": {
        "notice": "FUNCIONES INFORMATIVAS, NO RELEVANTES "
      }
    }
  }
}