{
  "contractName": "CompraArbitrada",
  "abi": [
    {
      "constant": true,
      "inputs": [],
      "name": "comprador",
      "outputs": [
        {
          "name": "",
          "type": "address"
        }
      ],
      "payable": false,
      "stateMutability": "view",
      "type": "function"
    },
    {
      "constant": true,
      "inputs": [],
      "name": "vendedor",
      "outputs": [
        {
          "name": "",
          "type": "address"
        }
      ],
      "payable": false,
      "stateMutability": "view",
      "type": "function"
    },
    {
      "constant": true,
      "inputs": [],
      "name": "arbitro",
      "outputs": [
        {
          "name": "",
          "type": "address"
        }
      ],
      "payable": false,
      "stateMutability": "view",
      "type": "function"
    },
    {
      "inputs": [
        {
          "name": "_vendedor",
          "type": "address"
        },
        {
          "name": "_arbitro",
          "type": "address"
        }
      ],
      "payable": false,
      "stateMutability": "nonpayable",
      "type": "constructor"
    },
    {
      "constant": false,
      "inputs": [],
      "name": "compra",
      "outputs": [],
      "payable": true,
      "stateMutability": "payable",
      "type": "function"
    },
    {
      "constant": false,
      "inputs": [],
      "name": "pagarAlVendedor",
      "outputs": [],
      "payable": false,
      "stateMutability": "nonpayable",
      "type": "function"
    },
    {
      "constant": false,
      "inputs": [],
      "name": "devolverAlComprador",
      "outputs": [],
      "payable": false,
      "stateMutability": "nonpayable",
      "type": "function"
    },
    {
      "constant": true,
      "inputs": [],
      "name": "obtenerBalanceContrato",
      "outputs": [
        {
          "name": "",
          "type": "uint256"
        }
      ],
      "payable": false,
      "stateMutability": "view",
      "type": "function"
    },
    {
      "constant": true,
      "inputs": [],
      "name": "obtenerBalanceComprador",
      "outputs": [
        {
          "name": "",
          "type": "uint256"
        }
      ],
      "payable": false,
      "stateMutability": "view",
      "type": "function"
    },
    {
      "constant": true,
      "inputs": [],
      "name": "obtenerBalanceVendedor",
      "outputs": [
        {
          "name": "",
          "type": "uint256"
        }
      ],
      "payable": false,
      "stateMutability": "view",
      "type": "function"
    },
    {
      "constant": true,
      "inputs": [],
      "name": "obtenerDireccionContrato",
      "outputs": [
        {
          "name": "",
          "type": "address"
        }
      ],
      "payable": false,
      "stateMutability": "view",
      "type": "function"
    },
    {
      "constant": true,
      "inputs": [],
      "name": "obtenerDireccionComprador",
      "outputs": [
        {
          "name": "",
          "type": "address"
        }
      ],
      "payable": false,
      "stateMutability": "view",
      "type": "function"
    },
    {
      "constant": true,
      "inputs": [],
      "name": "obtenerDireccionArbitro",
      "outputs": [
        {
          "name": "",
          "type": "address"
        }
      ],
      "payable": false,
      "stateMutability": "view",
      "type": "function"
    },
    {
      "constant": true,
      "inputs": [],
      "name": "obtenerDireccionVendedor",
      "outputs": [
        {
          "name": "",
          "type": "address"
        }
      ],
      "payable": false,
      "stateMutability": "view",
      "type": "function"
    }
  ],
  "bytecode": "0x608060405234801561001057600080fd5b506040516040806109728339810180604052810190808051906020019092919080519060200190929190505050336000806101000a81548173ffffffffffffffffffffffffffffffffffffffff021916908373ffffffffffffffffffffffffffffffffffffffff16021790555081600160006101000a81548173ffffffffffffffffffffffffffffffffffffffff021916908373ffffffffffffffffffffffffffffffffffffffff16021790555080600260006101000a81548173ffffffffffffffffffffffffffffffffffffffff021916908373ffffffffffffffffffffffffffffffffffffffff1602179055505050610862806101106000396000f3006080604052600436106100c5576000357c0100000000000000000000000000000000000000000000000000000000900463ffffffff1680630f50b6e7146100ca57806318edf0bc1461012157806325637f581461014c5780632e71a1b4146101775780633182237f146101815780633b45e962146101d85780635486fea614610203578063597c60da1461025a578063762c75a2146102b15780639391c054146102c8578063b1b823361461031f578063b558b26114610336578063f70a9ba91461038d575b600080fd5b3480156100d657600080fd5b506100df6103e4565b604051808273ffffffffffffffffffffffffffffffffffffffff1673ffffffffffffffffffffffffffffffffffffffff16815260200191505060405180910390f35b34801561012d57600080fd5b50610136610409565b6040518082815260200191505060405180910390f35b34801561015857600080fd5b5061016161044a565b6040518082815260200191505060405180910390f35b61017f610469565b005b34801561018d57600080fd5b506101966104c6565b604051808273ffffffffffffffffffffffffffffffffffffffff1673ffffffffffffffffffffffffffffffffffffffff16815260200191505060405180910390f35b3480156101e457600080fd5b506101ed6104ec565b6040518082815260200191505060405180910390f35b34801561020f57600080fd5b5061021861052c565b604051808273ffffffffffffffffffffffffffffffffffffffff1673ffffffffffffffffffffffffffffffffffffffff16815260200191505060405180910390f35b34801561026657600080fd5b5061026f610556565b604051808273ffffffffffffffffffffffffffffffffffffffff1673ffffffffffffffffffffffffffffffffffffffff16815260200191505060405180910390f35b3480156102bd57600080fd5b506102c661055e565b005b3480156102d457600080fd5b506102dd61068d565b604051808273ffffffffffffffffffffffffffffffffffffffff1673ffffffffffffffffffffffffffffffffffffffff16815260200191505060405180910390f35b34801561032b57600080fd5b506103346106b3565b005b34801561034257600080fd5b5061034b6107e3565b604051808273ffffffffffffffffffffffffffffffffffffffff1673ffffffffffffffffffffffffffffffffffffffff16815260200191505060405180910390f35b34801561039957600080fd5b506103a261080c565b604051808273ffffffffffffffffffffffffffffffffffffffff1673ffffffffffffffffffffffffffffffffffffffff16815260200191505060405180910390f35b6000809054906101000a900473ffffffffffffffffffffffffffffffffffffffff1681565b6000600160009054906101000a900473ffffffffffffffffffffffffffffffffffffffff1673ffffffffffffffffffffffffffffffffffffffff1631905090565b60003073ffffffffffffffffffffffffffffffffffffffff1631905090565b6000809054906101000a900473ffffffffffffffffffffffffffffffffffffffff1673ffffffffffffffffffffffffffffffffffffffff163373ffffffffffffffffffffffffffffffffffffffff161415156104c457600080fd5b565b600160009054906101000a900473ffffffffffffffffffffffffffffffffffffffff1681565b60008060009054906101000a900473ffffffffffffffffffffffffffffffffffffffff1673ffffffffffffffffffffffffffffffffffffffff1631905090565b6000600160009054906101000a900473ffffffffffffffffffffffffffffffffffffffff16905090565b600030905090565b6000809054906101000a900473ffffffffffffffffffffffffffffffffffffffff1673ffffffffffffffffffffffffffffffffffffffff163373ffffffffffffffffffffffffffffffffffffffff1614806106065750600260009054906101000a900473ffffffffffffffffffffffffffffffffffffffff1673ffffffffffffffffffffffffffffffffffffffff163373ffffffffffffffffffffffffffffffffffffffff16145b1561068b576000809054906101000a900473ffffffffffffffffffffffffffffffffffffffff1673ffffffffffffffffffffffffffffffffffffffff166108fc3073ffffffffffffffffffffffffffffffffffffffff16319081150290604051600060405180830381858888f19350505050158015610689573d6000803e3d6000fd5b505b565b600260009054906101000a900473ffffffffffffffffffffffffffffffffffffffff1681565b6000809054906101000a900473ffffffffffffffffffffffffffffffffffffffff1673ffffffffffffffffffffffffffffffffffffffff163373ffffffffffffffffffffffffffffffffffffffff16148061075b5750600260009054906101000a900473ffffffffffffffffffffffffffffffffffffffff1673ffffffffffffffffffffffffffffffffffffffff163373ffffffffffffffffffffffffffffffffffffffff16145b156107e157600160009054906101000a900473ffffffffffffffffffffffffffffffffffffffff1673ffffffffffffffffffffffffffffffffffffffff166108fc3073ffffffffffffffffffffffffffffffffffffffff16319081150290604051600060405180830381858888f193505050501580156107df573d6000803e3d6000fd5b505b565b60008060009054906101000a900473ffffffffffffffffffffffffffffffffffffffff16905090565b6000600260009054906101000a900473ffffffffffffffffffffffffffffffffffffffff169050905600a165627a7a72305820827aa84308fc0a8e7e499157e3a1e77bc999b036c22c4049cfeb8da099463a0c0029",
  "source": "pragma solidity ^0.4.18;\r\n\r\n/* SMART CONTRACT de pruebas, que permite realizar una compra y que este sea validado por un arbitro, \r\no bien por el propio comprador, hasta entonces el dinero no irá al Vendedor */\r\n\r\ncontract CompraArbitrada {\r\n\r\n    address public comprador;\r\n    address public vendedor;\r\n    address public arbitro;\r\n        \r\n    constructor ( address _vendedor, address _arbitro) public { //recibe quien es el comprador, vendedor y arbitro.\r\n        comprador = msg.sender;\r\n        vendedor = _vendedor;\r\n        arbitro = _arbitro;\r\n    }\r\n           \r\n    function compra()  public payable { //Recibe from y value (payable), value irá temporalmente a la dirección del contrato (smartContract).\r\n        require (msg.sender == comprador);\r\n    }\r\n\r\n    function pagarAlVendedor() public { //Recibe from, transferirá al vendedor el dinero del contrato.\r\n        if (msg.sender == comprador || msg.sender == arbitro){\r\n            vendedor.transfer(address(this).balance);\r\n        }\r\n    }\r\n\r\n    function devolverAlComprador() public { //Recibe from, devolverá al comprador el dinero del contrato.\r\n        if (msg.sender == comprador || msg.sender == arbitro){\r\n            comprador.transfer(address(this).balance);\r\n        }\r\n    }\r\n    \r\n\r\n\r\n/** FUNCIONES INFORMATIVAS, NO RELEVANTES */\r\n\r\n    function obtenerBalanceContrato() public view returns (uint) {\r\n        return address(this).balance;        \r\n    }\r\n    \r\n    function obtenerBalanceComprador() public view returns (uint) {\r\n        return address(comprador).balance;        \r\n    }\r\n\r\n    function obtenerBalanceVendedor() public view returns (uint) {\r\n        return address(vendedor).balance;        \r\n    }\r\n    \r\n\r\n    function obtenerDireccionContrato() public view returns (address) {\r\n        return address(this);\r\n    }\r\n    \r\n    function obtenerDireccionComprador() public view returns (address) {\r\n        return address(comprador);\r\n    }\r\n\r\n    function obtenerDireccionArbitro() public view returns (address) {\r\n        return address(arbitro);\r\n    }\r\n\r\n    function obtenerDireccionVendedor() public view returns (address) {\r\n        return address(vendedor);\r\n    }\r\n    \r\n}",
  "sourcePath": "C:\\Users\\Oriol\\Downloads\\solidity\\BlockChainEthereumBets-Arbitration\\contracts\\CompraArbitrada.sol",
  "compiler": {
    "name": "solc",
    "version": "0.4.23+commit.124ca40d.Emscripten.clang"
  },
  "schemaVersion": "2.0.0",
  "updatedAt": "2018-05-23T08:29:27.636Z"
}