{
  "contractName": "GreetingsLog",
  "abi": [
    {
      "inputs": [],
      "payable": false,
      "stateMutability": "nonpayable",
      "type": "constructor"
    },
    {
      "anonymous": false,
      "inputs": [
        {
          "indexed": false,
          "name": "value",
          "type": "uint256"
        },
        {
          "indexed": false,
          "name": "sender",
          "type": "address"
        },
        {
          "indexed": false,
          "name": "coinbase",
          "type": "address"
        },
        {
          "indexed": false,
          "name": "difficulty",
          "type": "uint256"
        },
        {
          "indexed": false,
          "name": "gaslimit",
          "type": "uint256"
        },
        {
          "indexed": false,
          "name": "number",
          "type": "uint256"
        },
        {
          "indexed": false,
          "name": "gasLeft",
          "type": "uint256"
        },
        {
          "indexed": false,
          "name": "data",
          "type": "bytes"
        },
        {
          "indexed": false,
          "name": "sig",
          "type": "bytes4"
        },
        {
          "indexed": false,
          "name": "rightNow",
          "type": "uint256"
        },
        {
          "indexed": false,
          "name": "gasprice",
          "type": "uint256"
        }
      ],
      "name": "log",
      "type": "event"
    },
    {
      "constant": false,
      "inputs": [],
      "name": "payableFunction",
      "outputs": [],
      "payable": true,
      "stateMutability": "payable",
      "type": "function"
    },
    {
      "constant": false,
      "inputs": [],
      "name": "writeLog",
      "outputs": [],
      "payable": false,
      "stateMutability": "nonpayable",
      "type": "function"
    },
    {
      "constant": false,
      "inputs": [
        {
          "name": "_message",
          "type": "string"
        }
      ],
      "name": "setGreetings",
      "outputs": [],
      "payable": false,
      "stateMutability": "nonpayable",
      "type": "function"
    },
    {
      "constant": true,
      "inputs": [],
      "name": "getGreetings",
      "outputs": [
        {
          "name": "",
          "type": "string"
        }
      ],
      "payable": false,
      "stateMutability": "view",
      "type": "function"
    }
  ],
  "bytecode": "0x608060405234801561001057600080fd5b506040805190810160405280600e81526020017f41726520796f752072656164793f0000000000000000000000000000000000008152506000908051906020019061005c929190610062565b50610107565b828054600181600116156101000203166002900490600052602060002090601f016020900481019282601f106100a357805160ff19168380011785556100d1565b828001600101855582156100d1579182015b828111156100d05782518255916020019190600101906100b5565b5b5090506100de91906100e2565b5090565b61010491905b808211156101005760008160009055506001016100e8565b5090565b90565b6106d4806101166000396000f300608060405260043610610062576000357c0100000000000000000000000000000000000000000000000000000000900463ffffffff16806349da5de4146100675780634a6a7407146100d057806365a52839146100da578063ca4c3a41146100f1575b600080fd5b34801561007357600080fd5b506100ce600480360381019080803590602001908201803590602001908080601f0160208091040260200160405190810160405280939291908181526020018383808284378201915050505050509192919290505050610181565b005b6100d861019b565b005b3480156100e657600080fd5b506100ef6102c2565b005b3480156100fd57600080fd5b506101066104e1565b6040518080602001828103825283818151815260200191508051906020019080838360005b8381101561014657808201518184015260208101905061012b565b50505050905090810190601f1680156101735780820380516001836020036101000a031916815260200191505b509250505060405180910390f35b8060009080519060200190610197929190610583565b5050565b3460018190555033600260006101000a81548173ffffffffffffffffffffffffffffffffffffffff021916908373ffffffffffffffffffffffffffffffffffffffff16021790555041600360006101000a81548173ffffffffffffffffffffffffffffffffffffffff021916908373ffffffffffffffffffffffffffffffffffffffff1602179055504460048190555045600581905550436006819055505a60078190555060003660089190610252929190610603565b506000357fffffffff0000000000000000000000000000000000000000000000000000000016600960006101000a81548163ffffffff02191690837c01000000000000000000000000000000000000000000000000000000009004021790555042600a819055503a600b81905550565b7f4bc5a16e80cbeee0f810f041e81647375b04cd5be5bc19a09fcc3f73f131d9e9600154600260009054906101000a900473ffffffffffffffffffffffffffffffffffffffff16600360009054906101000a900473ffffffffffffffffffffffffffffffffffffffff166004546005546006546007546008600960009054906101000a90047c010000000000000000000000000000000000000000000000000000000002600a54600b54604051808c81526020018b73ffffffffffffffffffffffffffffffffffffffff1673ffffffffffffffffffffffffffffffffffffffff1681526020018a73ffffffffffffffffffffffffffffffffffffffff1673ffffffffffffffffffffffffffffffffffffffff16815260200189815260200188815260200187815260200186815260200180602001857bffffffffffffffffffffffffffffffffffffffffffffffffffffffff19167bffffffffffffffffffffffffffffffffffffffffffffffffffffffff191681526020018481526020018381526020018281038252868181546001816001161561010002031660029004815260200191508054600181600116156101000203166002900480156104c75780601f1061049c576101008083540402835291602001916104c7565b820191906000526020600020905b8154815290600101906020018083116104aa57829003601f168201915b50509c5050505050505050505050505060405180910390a1565b606060008054600181600116156101000203166002900480601f0160208091040260200160405190810160405280929190818152602001828054600181600116156101000203166002900480156105795780601f1061054e57610100808354040283529160200191610579565b820191906000526020600020905b81548152906001019060200180831161055c57829003601f168201915b5050505050905090565b828054600181600116156101000203166002900490600052602060002090601f016020900481019282601f106105c457805160ff19168380011785556105f2565b828001600101855582156105f2579182015b828111156105f15782518255916020019190600101906105d6565b5b5090506105ff9190610683565b5090565b828054600181600116156101000203166002900490600052602060002090601f016020900481019282601f1061064457803560ff1916838001178555610672565b82800160010185558215610672579182015b82811115610671578235825591602001919060010190610656565b5b50905061067f9190610683565b5090565b6106a591905b808211156106a1576000816000905550600101610689565b5090565b905600a165627a7a723058205aa75b421ee4ec297f57cdcd101eeb21ee049983cff84981a593f09c9226da660029",
  "source": "pragma solidity ^0.4.18;\r\n\r\ncontract GreetingsLog {\r\n    string message;\r\n    uint value;\r\n    address sender;\r\n    address coinbase;\r\n    uint difficulty;\r\n    uint gaslimit;\r\n    uint number;\r\n    uint256 gasLeft;\r\n    bytes data;\r\n    bytes4 sig;\r\n    uint rightNow;\r\n    uint gasprice;\r\n\r\n\r\n    constructor() public {\r\n        message = \"Are you ready?\";        \r\n    }\r\n\r\n    event log(uint value, address sender, address coinbase, uint difficulty, uint gaslimit, uint number, \r\n    uint256 gasLeft, bytes data, bytes4 sig, uint rightNow, uint gasprice );  //para escribir logs\r\n\r\n    function payableFunction() public payable{\r\n        value = msg.value;\r\n        sender = msg.sender;\r\n        coinbase = block.coinbase;     \r\n        difficulty = block.difficulty;\r\n        gaslimit = block.gaslimit;\r\n        number = block.number;\r\n        gasLeft = gasleft();\r\n        data = msg.data;\r\n        sig = msg.sig;\r\n        rightNow = block.timestamp;\r\n        gasprice = tx.gasprice;   \r\n\r\n        \r\n    }\r\n\r\n    function writeLog() public {\r\n        emit log(value,  sender, coinbase, difficulty, gaslimit, number, gasLeft, data, sig, rightNow, gasprice);\r\n    }\r\n\r\n    function setGreetings(string _message) public {\r\n        message = _message;\r\n    }\r\n\r\n    function getGreetings() public view returns (string) {\r\n        return message;\r\n    }\r\n}\r\n",
  "sourcePath": "C:\\Users\\Oriol\\Downloads\\solidity\\BlockChainEthereumBets-Arbitration\\contracts\\GreetingsLog.sol",
  "compiler": {
    "name": "solc",
    "version": "0.4.23+commit.124ca40d.Emscripten.clang"
  },
  "schemaVersion": "2.0.0",
  "updatedAt": "2018-05-23T08:29:27.633Z"
}