{
  "contractName": "GreetingsLog",
  "abi": [
    {
      "inputs": [],
      "payable": false,
      "stateMutability": "nonpayable",
      "type": "constructor"
    },
    {
      "anonymous": false,
      "inputs": [
        {
          "indexed": false,
          "name": "value",
          "type": "uint256"
        },
        {
          "indexed": false,
          "name": "sender",
          "type": "address"
        },
        {
          "indexed": false,
          "name": "coinbase",
          "type": "address"
        },
        {
          "indexed": false,
          "name": "difficulty",
          "type": "uint256"
        },
        {
          "indexed": false,
          "name": "gaslimit",
          "type": "uint256"
        },
        {
          "indexed": false,
          "name": "number",
          "type": "uint256"
        },
        {
          "indexed": false,
          "name": "gasLeft",
          "type": "uint256"
        },
        {
          "indexed": false,
          "name": "data",
          "type": "bytes"
        },
        {
          "indexed": false,
          "name": "sig",
          "type": "bytes4"
        },
        {
          "indexed": false,
          "name": "rightNow",
          "type": "uint256"
        },
        {
          "indexed": false,
          "name": "gasprice",
          "type": "uint256"
        }
      ],
      "name": "logGreetings",
      "type": "event"
    },
    {
      "constant": false,
      "inputs": [],
      "name": "payableFunction",
      "outputs": [],
      "payable": true,
      "stateMutability": "payable",
      "type": "function"
    },
    {
      "constant": false,
      "inputs": [],
      "name": "writeLog",
      "outputs": [],
      "payable": false,
      "stateMutability": "nonpayable",
      "type": "function"
    },
    {
      "constant": false,
      "inputs": [
        {
          "name": "_message",
          "type": "string"
        }
      ],
      "name": "setGreetings",
      "outputs": [],
      "payable": false,
      "stateMutability": "nonpayable",
      "type": "function"
    },
    {
      "constant": true,
      "inputs": [],
      "name": "getGreetings",
      "outputs": [
        {
          "name": "",
          "type": "string"
        }
      ],
      "payable": false,
      "stateMutability": "view",
      "type": "function"
    }
  ],
  "bytecode": "0x608060405234801561001057600080fd5b506040518060400160405280600e81526020017f41726520796f752072656164793f0000000000000000000000000000000000008152506000908051906020019061005c929190610062565b50610107565b828054600181600116156101000203166002900490600052602060002090601f016020900481019282601f106100a357805160ff19168380011785556100d1565b828001600101855582156100d1579182015b828111156100d05782518255916020019190600101906100b5565b5b5090506100de91906100e2565b5090565b61010491905b808211156101005760008160009055506001016100e8565b5090565b90565b6106d7806101166000396000f3fe60806040526004361061003f5760003560e01c806349da5de4146100445780634a6a74071461010c57806365a5283914610116578063ca4c3a411461012d575b600080fd5b34801561005057600080fd5b5061010a6004803603602081101561006757600080fd5b810190808035906020019064010000000081111561008457600080fd5b82018360208201111561009657600080fd5b803590602001918460018302840111640100000000831117156100b857600080fd5b91908080601f016020809104026020016040519081016040528093929190818152602001838380828437600081840152601f19601f8201169050808301925050505050505091929192905050506101bd565b005b6101146101d7565b005b34801561012257600080fd5b5061012b6102e1565b005b34801561013957600080fd5b506101426104e4565b6040518080602001828103825283818151815260200191508051906020019080838360005b83811015610182578082015181840152602081019050610167565b50505050905090810190601f1680156101af5780820380516001836020036101000a031916815260200191505b509250505060405180910390f35b80600090805190602001906101d3929190610586565b5050565b3460018190555033600260006101000a81548173ffffffffffffffffffffffffffffffffffffffff021916908373ffffffffffffffffffffffffffffffffffffffff16021790555041600360006101000a81548173ffffffffffffffffffffffffffffffffffffffff021916908373ffffffffffffffffffffffffffffffffffffffff1602179055504460048190555045600581905550436006819055505a6007819055506000366008919061028e929190610606565b506000357fffffffff0000000000000000000000000000000000000000000000000000000016600960006101000a81548163ffffffff021916908360e01c021790555043600a819055503a600b81905550565b7f564d87fd74a7b608295ad02669063dc0808737807ec53ff4dc92c061d2a7029f600154600260009054906101000a900473ffffffffffffffffffffffffffffffffffffffff16600360009054906101000a900473ffffffffffffffffffffffffffffffffffffffff166004546005546006546007546008600960009054906101000a900460e01b600a54600b54604051808c81526020018b73ffffffffffffffffffffffffffffffffffffffff1673ffffffffffffffffffffffffffffffffffffffff1681526020018a73ffffffffffffffffffffffffffffffffffffffff1673ffffffffffffffffffffffffffffffffffffffff16815260200189815260200188815260200187815260200186815260200180602001857bffffffffffffffffffffffffffffffffffffffffffffffffffffffff19167bffffffffffffffffffffffffffffffffffffffffffffffffffffffff191681526020018481526020018381526020018281038252868181546001816001161561010002031660029004815260200191508054600181600116156101000203166002900480156104ca5780601f1061049f576101008083540402835291602001916104ca565b820191906000526020600020905b8154815290600101906020018083116104ad57829003601f168201915b50509c5050505050505050505050505060405180910390a1565b606060008054600181600116156101000203166002900480601f01602080910402602001604051908101604052809291908181526020018280546001816001161561010002031660029004801561057c5780601f106105515761010080835404028352916020019161057c565b820191906000526020600020905b81548152906001019060200180831161055f57829003601f168201915b5050505050905090565b828054600181600116156101000203166002900490600052602060002090601f016020900481019282601f106105c757805160ff19168380011785556105f5565b828001600101855582156105f5579182015b828111156105f45782518255916020019190600101906105d9565b5b5090506106029190610686565b5090565b828054600181600116156101000203166002900490600052602060002090601f016020900481019282601f1061064757803560ff1916838001178555610675565b82800160010185558215610675579182015b82811115610674578235825591602001919060010190610659565b5b5090506106829190610686565b5090565b6106a891905b808211156106a457600081600090555060010161068c565b5090565b9056fea165627a7a723058205246d23397be7559d99881ef6af045403e29aee020cb229fe1c0a8085cacec610029",
  "source": "pragma solidity >0.4.99 <0.6.0;\n\ncontract GreetingsLog {\n    string message;\n    uint value;\n    address sender;\n    address coinbase;\n    uint difficulty;\n    uint gaslimit;\n    uint number;\n    uint256 gasLeft;\n    bytes data;\n    bytes4 sig;\n    uint rightNow;\n    uint gasprice;\n\n\n    constructor() public {\n        message = \"Are you ready?\";\n    }\n\n    event logGreetings(uint value, address sender, address coinbase, uint difficulty, uint gaslimit, uint number,\n    uint256 gasLeft, bytes data, bytes4 sig, uint rightNow, uint gasprice );  //para escribir logs\n\n    function payableFunction() public payable{\n        value = msg.value;\n        sender = msg.sender;\n        coinbase = block.coinbase;\n        difficulty = block.difficulty;\n        gaslimit = block.gaslimit;\n        number = block.number;\n        gasLeft = gasleft();\n        data = msg.data;\n        sig = msg.sig;\n        rightNow = block.number; //block.timestamp;\n        gasprice = tx.gasprice;\n\n    }\n\n    function writeLog() public {\n        emit logGreetings(value,  sender, coinbase, difficulty, gaslimit, number, gasLeft, data, sig, rightNow, gasprice);\n    }\n\n    function setGreetings(string memory _message ) public {\n        message = _message;\n    }\n\n    function getGreetings() public view returns (string memory) {\n        return message;\n    }\n}\n",
  "sourcePath": "C:/Users/Oriol/Downloads/ethereum/projects/BetsArbitration/contracts/GreetingsLog.sol",
  "compiler": {
    "name": "solc",
    "version": "0.5.8+commit.23d335f2.Emscripten.clang"
  },
  "schemaVersion": "3.0.17",
  "updatedAt": "2019-11-03T16:53:55.482Z",
  "devdoc": {
    "methods": {}
  },
  "userdoc": {
    "methods": {}
  }
}