{
  "contractName": "GreetingsLog",
  "abi": [
    {
      "inputs": [],
      "payable": false,
      "stateMutability": "nonpayable",
      "type": "constructor"
    },
    {
      "anonymous": false,
      "inputs": [
        {
          "indexed": false,
          "internalType": "uint256",
          "name": "value",
          "type": "uint256"
        },
        {
          "indexed": false,
          "internalType": "address",
          "name": "sender",
          "type": "address"
        },
        {
          "indexed": false,
          "internalType": "address",
          "name": "coinbase",
          "type": "address"
        },
        {
          "indexed": false,
          "internalType": "uint256",
          "name": "difficulty",
          "type": "uint256"
        },
        {
          "indexed": false,
          "internalType": "uint256",
          "name": "gaslimit",
          "type": "uint256"
        },
        {
          "indexed": false,
          "internalType": "uint256",
          "name": "number",
          "type": "uint256"
        },
        {
          "indexed": false,
          "internalType": "uint256",
          "name": "gasLeft",
          "type": "uint256"
        },
        {
          "indexed": false,
          "internalType": "bytes",
          "name": "data",
          "type": "bytes"
        },
        {
          "indexed": false,
          "internalType": "bytes4",
          "name": "sig",
          "type": "bytes4"
        },
        {
          "indexed": false,
          "internalType": "uint256",
          "name": "rightNow",
          "type": "uint256"
        },
        {
          "indexed": false,
          "internalType": "uint256",
          "name": "gasprice",
          "type": "uint256"
        }
      ],
      "name": "logGreetings",
      "type": "event"
    },
    {
      "constant": false,
      "inputs": [
        {
          "internalType": "string",
          "name": "_message",
          "type": "string"
        }
      ],
      "name": "setGreetings",
      "outputs": [],
      "payable": false,
      "stateMutability": "nonpayable",
      "type": "function"
    },
    {
      "constant": true,
      "inputs": [],
      "name": "getGreetings",
      "outputs": [
        {
          "internalType": "string",
          "name": "",
          "type": "string"
        }
      ],
      "payable": false,
      "stateMutability": "view",
      "type": "function"
    },
    {
      "constant": true,
      "inputs": [],
      "name": "getMyAddress",
      "outputs": [
        {
          "internalType": "address",
          "name": "",
          "type": "address"
        }
      ],
      "payable": false,
      "stateMutability": "view",
      "type": "function"
    },
    {
      "constant": false,
      "inputs": [],
      "name": "payableFunction",
      "outputs": [],
      "payable": true,
      "stateMutability": "payable",
      "type": "function"
    },
    {
      "constant": false,
      "inputs": [],
      "name": "writeLog",
      "outputs": [],
      "payable": false,
      "stateMutability": "nonpayable",
      "type": "function"
    }
  ],
  "bytecode": "0x608060405234801561001057600080fd5b5060408051808201909152600e8082527f41726520796f752072656164793f00000000000000000000000000000000000060209092019182526100559160009161005b565b506100f6565b828054600181600116156101000203166002900490600052602060002090601f016020900481019282601f1061009c57805160ff19168380011785556100c9565b828001600101855582156100c9579182015b828111156100c95782518255916020019190600101906100ae565b506100d59291506100d9565b5090565b6100f391905b808211156100d557600081556001016100df565b90565b6105b4806101056000396000f3fe60806040526004361061004a5760003560e01c806349da5de41461004f5780634a6a74071461010457806365a528391461010c5780639a16629914610121578063ca4c3a4114610152575b600080fd5b34801561005b57600080fd5b506101026004803603602081101561007257600080fd5b81019060208101813564010000000081111561008d57600080fd5b82018360208201111561009f57600080fd5b803590602001918460018302840111640100000000831117156100c157600080fd5b91908080601f0160208091040260200160405190810160405280939291908181526020018383808284376000920191909152509295506101dc945050505050565b005b6101026101f3565b34801561011857600080fd5b50610102610253565b34801561012d57600080fd5b506101366103de565b604080516001600160a01b039092168252519081900360200190f35b34801561015e57600080fd5b506101676103e3565b6040805160208082528351818301528351919283929083019185019080838360005b838110156101a1578181015183820152602001610189565b50505050905090810190601f1680156101ce5780820380516001836020036101000a031916815260200191505b509250505060405180910390f35b80516101ef906000906020840190610479565b5050565b34600155600280546001600160a01b0319908116331790915560038054909116411790554460045545600555436006555a60075561023460086000366104f7565b506009805463ffffffff191660003560e01c17905542600a553a600b55565b7f564d87fd74a7b608295ad02669063dc0808737807ec53ff4dc92c061d2a7029f600154600260009054906101000a90046001600160a01b0316600360009054906101000a90046001600160a01b03166004546005546006546007546008600960009054906101000a900460e01b600a54600b54604051808c81526020018b6001600160a01b03166001600160a01b031681526020018a6001600160a01b03166001600160a01b0316815260200189815260200188815260200187815260200186815260200180602001856001600160e01b0319166001600160e01b03191681526020018481526020018381526020018281038252868181546001816001161561010002031660029004815260200191508054600181600116156101000203166002900480156103c45780601f10610399576101008083540402835291602001916103c4565b820191906000526020600020905b8154815290600101906020018083116103a757829003601f168201915b50509c5050505050505050505050505060405180910390a1565b305b90565b60008054604080516020601f600260001961010060018816150201909516949094049384018190048102820181019092528281526060939092909183018282801561046f5780601f106104445761010080835404028352916020019161046f565b820191906000526020600020905b81548152906001019060200180831161045257829003601f168201915b5050505050905090565b828054600181600116156101000203166002900490600052602060002090601f016020900481019282601f106104ba57805160ff19168380011785556104e7565b828001600101855582156104e7579182015b828111156104e75782518255916020019190600101906104cc565b506104f3929150610565565b5090565b828054600181600116156101000203166002900490600052602060002090601f016020900481019282601f106105385782800160ff198235161785556104e7565b828001600101855582156104e7579182015b828111156104e757823582559160200191906001019061054a565b6103e091905b808211156104f3576000815560010161056b56fea265627a7a72315820a18b4f169228a5a9d2321a4e2d684c6de8347465239b580ebd6a3e7ce3ace4f464736f6c634300050c0032",
  "source": "pragma solidity >0.4.99 <0.6.0;\r\n\r\n// SMART CONTRACT de pruebas, que permite hacer una transferencia con payableFunction()\r\n// que irá directamente a coinbase por defecto\r\n// y se lanza el evento logGreetings */\r\n\r\ncontract GreetingsLog {\r\n    string message;\r\n    uint value;\r\n    address payable sender;\r\n    address payable coinbase;\r\n    uint difficulty;\r\n    uint gaslimit;\r\n    uint number;\r\n    uint256 gasLeft;\r\n    bytes data;\r\n    bytes4 sig;\r\n    uint rightNow;\r\n    uint gasprice;\r\n\r\n    event logGreetings(uint value, address sender, address coinbase, uint difficulty, uint gaslimit, uint number,\r\n    uint256 gasLeft, bytes data, bytes4 sig, uint rightNow, uint gasprice );  //para escribir logs\r\n\r\n    constructor() public {\r\n        message = \"Are you ready?\";\r\n    }\r\n\r\n    function setGreetings(string memory _message ) public {\r\n        message = _message;\r\n    }\r\n\r\n    function getGreetings() public view returns (string memory) {\r\n        return message;\r\n    }\r\n\r\n    function getMyAddress() public view returns (address) {\r\n        return address(this);\r\n    }\r\n\r\n//Método fallback, método vacío y payable que coge cualquier transacción que envíen a este conrato\r\n//función que es fallback, se hace por si un usuario envía dinero a la address. Así no se pierde el pago.\r\n    function payableFunction() public payable{\r\n        value = msg.value;\r\n        sender = msg.sender;\r\n        coinbase = block.coinbase;\r\n        difficulty = block.difficulty;\r\n        gaslimit = block.gaslimit;\r\n        number = block.number;\r\n        gasLeft = gasleft();\r\n        data = msg.data;\r\n        sig = msg.sig;\r\n        rightNow = block.timestamp;\r\n        gasprice = tx.gasprice;\r\n    }\r\n\r\n    function writeLog() public {\r\n        emit logGreetings(value,  sender, coinbase, difficulty, gaslimit, number, gasLeft, data, sig, rightNow, gasprice);\r\n    }\r\n\r\n}\r\n",
  "sourcePath": "E:/dev/ethereum/BetsArbitration/contracts/GreetingsLog.sol",
  "compiler": {
    "name": "solc",
    "version": "0.5.12+commit.7709ece9.Emscripten.clang"
  },
  "schemaVersion": "3.0.18",
  "updatedAt": "2019-11-09T22:36:58.236Z",
  "networkType": "ethereum",
  "devdoc": {
    "methods": {}
  },
  "userdoc": {
    "methods": {}
  }
}