{
  "contractName": "Controlled",
  "abi": [
    {
      "constant": true,
      "inputs": [],
      "name": "controller",
      "outputs": [
        {
          "name": "",
          "type": "address"
        }
      ],
      "payable": false,
      "stateMutability": "view",
      "type": "function"
    },
    {
      "inputs": [],
      "payable": false,
      "stateMutability": "nonpayable",
      "type": "constructor"
    },
    {
      "constant": false,
      "inputs": [
        {
          "name": "_newController",
          "type": "address"
        }
      ],
      "name": "changeController",
      "outputs": [],
      "payable": false,
      "stateMutability": "nonpayable",
      "type": "function"
    }
  ],
  "bytecode": "0x608060405234801561001057600080fd5b50600080546001600160a01b0319163317905561015b806100326000396000f3fe608060405234801561001057600080fd5b50600436106100365760003560e01c80633cebb8231461003b578063f77c479114610063575b600080fd5b6100616004803603602081101561005157600080fd5b50356001600160a01b0316610087565b005b61006b6100f5565b604080516001600160a01b039092168252519081900360200190f35b6000546001600160a01b031633146100d357604051600160e51b62461bcd02815260040180806020018281038252602b815260200180610105602b913960400191505060405180910390fd5b600080546001600160a01b0319166001600160a01b0392909216919091179055565b6000546001600160a01b03168156fe204552524f523a2073656e64657220697320646966666572656e74207468616e20636f6e74726f6c6c6572a165627a7a72305820a5e30033a2b8da6c1edf1df4d93d97464945ce1c61684cb624babfee7713c4850029",
  "source": "pragma solidity >0.4.99 <0.6.0;\n\n// Controlled for Token\n//El contrato Token está controlado por alguien, en este caso por una empresa que ofrece el ICO (initial coin offering - Oferta inicial de monedas)\n//Cada vez que se pida comprar Tokens este contrato se lo debe consultar a la ICO si se puede comprar.\ncontract Controlled {\n    address payable public controller;\n\n    constructor() public {\n        controller = msg.sender;\n    }\n\n    modifier onlyController() {\n        require (msg.sender == controller, \" ERROR: sender is different than controller\");\n        _;\n    }\n\n    function changeController(address payable _newController) public onlyController { //nos permite cambiar el controlador,\n        //sólo lo puede hacer el actual controlador\n        controller = _newController;\n    }\n}\n",
  "sourcePath": "C:\\Users\\Oriol\\Downloads\\ethereum\\projects\\ICO\\contracts\\Controlled.sol",
  "compiler": {
    "name": "solc",
    "version": "0.5.8+commit.23d335f2.Emscripten.clang"
  },
  "schemaVersion": "3.0.17",
  "updatedAt": "2019-11-05T15:01:47.171Z",
  "devdoc": {
    "methods": {}
  },
  "userdoc": {
    "methods": {}
  }
}