{
  "contractName": "ICO",
  "abi": [
    {
      "constant": false,
      "inputs": [],
      "name": "acceptOwnership",
      "outputs": [],
      "payable": false,
      "stateMutability": "nonpayable",
      "type": "function"
    },
    {
      "constant": true,
      "inputs": [],
      "name": "owner",
      "outputs": [
        {
          "name": "",
          "type": "address"
        }
      ],
      "payable": false,
      "stateMutability": "view",
      "type": "function"
    },
    {
      "constant": true,
      "inputs": [],
      "name": "limit",
      "outputs": [
        {
          "name": "",
          "type": "uint256"
        }
      ],
      "payable": false,
      "stateMutability": "view",
      "type": "function"
    },
    {
      "constant": false,
      "inputs": [
        {
          "name": "_newOwner",
          "type": "address"
        }
      ],
      "name": "changeOwner",
      "outputs": [],
      "payable": false,
      "stateMutability": "nonpayable",
      "type": "function"
    },
    {
      "constant": true,
      "inputs": [],
      "name": "ICOAccount",
      "outputs": [
        {
          "name": "",
          "type": "address"
        }
      ],
      "payable": false,
      "stateMutability": "view",
      "type": "function"
    },
    {
      "constant": true,
      "inputs": [],
      "name": "exchange",
      "outputs": [
        {
          "name": "",
          "type": "uint256"
        }
      ],
      "payable": false,
      "stateMutability": "view",
      "type": "function"
    },
    {
      "constant": true,
      "inputs": [],
      "name": "newOwner",
      "outputs": [
        {
          "name": "",
          "type": "address"
        }
      ],
      "payable": false,
      "stateMutability": "view",
      "type": "function"
    },
    {
      "constant": true,
      "inputs": [],
      "name": "totalCollected",
      "outputs": [
        {
          "name": "",
          "type": "uint256"
        }
      ],
      "payable": false,
      "stateMutability": "view",
      "type": "function"
    },
    {
      "constant": true,
      "inputs": [],
      "name": "token",
      "outputs": [
        {
          "name": "",
          "type": "address"
        }
      ],
      "payable": false,
      "stateMutability": "view",
      "type": "function"
    },
    {
      "inputs": [],
      "payable": false,
      "stateMutability": "nonpayable",
      "type": "constructor"
    },
    {
      "payable": true,
      "stateMutability": "payable",
      "type": "fallback"
    },
    {
      "constant": false,
      "inputs": [
        {
          "name": "_token",
          "type": "address"
        },
        {
          "name": "_icoAccount",
          "type": "address"
        }
      ],
      "name": "initialize",
      "outputs": [],
      "payable": false,
      "stateMutability": "nonpayable",
      "type": "function"
    },
    {
      "constant": false,
      "inputs": [
        {
          "name": "_th",
          "type": "address"
        }
      ],
      "name": "proxyPayment",
      "outputs": [
        {
          "name": "",
          "type": "bool"
        }
      ],
      "payable": true,
      "stateMutability": "payable",
      "type": "function"
    },
    {
      "constant": false,
      "inputs": [
        {
          "name": "_sender",
          "type": "address"
        },
        {
          "name": "_value",
          "type": "uint256"
        }
      ],
      "name": "doBuy",
      "outputs": [
        {
          "name": "",
          "type": "bool"
        }
      ],
      "payable": false,
      "stateMutability": "nonpayable",
      "type": "function"
    },
    {
      "constant": true,
      "inputs": [],
      "name": "obtenerDireccionContrato",
      "outputs": [
        {
          "name": "",
          "type": "address"
        }
      ],
      "payable": false,
      "stateMutability": "view",
      "type": "function"
    },
    {
      "constant": true,
      "inputs": [],
      "name": "obtenerDireccionOwner",
      "outputs": [
        {
          "name": "",
          "type": "address"
        }
      ],
      "payable": false,
      "stateMutability": "view",
      "type": "function"
    }
  ],
  "bytecode": "0x608060405234801561001057600080fd5b50336000806101000a81548173ffffffffffffffffffffffffffffffffffffffff021916908373ffffffffffffffffffffffffffffffffffffffff160217905550336000806101000a81548173ffffffffffffffffffffffffffffffffffffffff021916908373ffffffffffffffffffffffffffffffffffffffff1602179055506000600281905550610e72806100a86000396000f3fe6080604052600436106100dd5760003560e01c8063d01fe6991161007f578063dcdc055a11610059578063dcdc055a146103cb578063e29eb8361461043e578063f48c305414610469578063fc0c546a146104c5576100dd565b8063d01fe699146102f2578063d2f7265a14610349578063d4ee1d9014610374576100dd565b80638da5cb5b116100bb5780638da5cb5b146101c8578063a4d66daf1461021f578063a6f9dae11461024a578063cacb280a1461029b576100dd565b8063485cc955146100e9578063597c60da1461015a57806379ba5097146101b1575b6100e63361051c565b50005b3480156100f557600080fd5b506101586004803603604081101561010c57600080fd5b81019080803573ffffffffffffffffffffffffffffffffffffffff169060200190929190803573ffffffffffffffffffffffffffffffffffffffff1690602001909291905050506105f3565b005b34801561016657600080fd5b5061016f61097b565b604051808273ffffffffffffffffffffffffffffffffffffffff1673ffffffffffffffffffffffffffffffffffffffff16815260200191505060405180910390f35b3480156101bd57600080fd5b506101c6610983565b005b3480156101d457600080fd5b506101dd610a3e565b604051808273ffffffffffffffffffffffffffffffffffffffff1673ffffffffffffffffffffffffffffffffffffffff16815260200191505060405180910390f35b34801561022b57600080fd5b50610234610a63565b6040518082815260200191505060405180910390f35b34801561025657600080fd5b506102996004803603602081101561026d57600080fd5b81019080803573ffffffffffffffffffffffffffffffffffffffff169060200190929190505050610a70565b005b3480156102a757600080fd5b506102b0610b59565b604051808273ffffffffffffffffffffffffffffffffffffffff1673ffffffffffffffffffffffffffffffffffffffff16815260200191505060405180910390f35b3480156102fe57600080fd5b50610307610b7f565b604051808273ffffffffffffffffffffffffffffffffffffffff1673ffffffffffffffffffffffffffffffffffffffff16815260200191505060405180910390f35b34801561035557600080fd5b5061035e610ba8565b6040518082815260200191505060405180910390f35b34801561038057600080fd5b50610389610bad565b604051808273ffffffffffffffffffffffffffffffffffffffff1673ffffffffffffffffffffffffffffffffffffffff16815260200191505060405180910390f35b3480156103d757600080fd5b50610424600480360360408110156103ee57600080fd5b81019080803573ffffffffffffffffffffffffffffffffffffffff16906020019092919080359060200190929190505050610bd3565b604051808215151515815260200191505060405180910390f35b34801561044a57600080fd5b50610453610dab565b6040518082815260200191505060405180910390f35b6104ab6004803603602081101561047f57600080fd5b81019080803573ffffffffffffffffffffffffffffffffffffffff16906020019092919050505061051c565b604051808215151515815260200191505060405180910390f35b3480156104d157600080fd5b506104da610db1565b604051808273ffffffffffffffffffffffffffffffffffffffff1673ffffffffffffffffffffffffffffffffffffffff16815260200191505060405180910390f35b60008073ffffffffffffffffffffffffffffffffffffffff16600360009054906101000a900473ffffffffffffffffffffffffffffffffffffffff1673ffffffffffffffffffffffffffffffffffffffff1614156105e2576040517f08c379a000000000000000000000000000000000000000000000000000000000815260040180806020018281038252601d8152602001807f4552524f523a2049434f20646f65736e277420696e697469616c697a6500000081525060200191505060405180910390fd5b6105ec8234610bd3565b9050919050565b600073ffffffffffffffffffffffffffffffffffffffff16600360009054906101000a900473ffffffffffffffffffffffffffffffffffffffff1673ffffffffffffffffffffffffffffffffffffffff16146106b7576040517f08c379a000000000000000000000000000000000000000000000000000000000815260040180806020018281038252601a8152602001807f4552524f523a2049434f2077617320696e697469616c697a656400000000000081525060200191505060405180910390fd5b81600360006101000a81548173ffffffffffffffffffffffffffffffffffffffff021916908373ffffffffffffffffffffffffffffffffffffffff1602179055506000600360009054906101000a900473ffffffffffffffffffffffffffffffffffffffff1673ffffffffffffffffffffffffffffffffffffffff166379d541846040518163ffffffff1660e01b815260040160206040518083038186803b15801561076257600080fd5b505afa158015610776573d6000803e3d6000fd5b505050506040513d602081101561078c57600080fd5b810190808051906020019092919050505014610810576040517f08c379a000000000000000000000000000000000000000000000000000000000815260040180806020018281038252601b8152602001807f4552524f523a205468697320546f6b656e20697320696e20757365000000000081525060200191505060405180910390fd5b3073ffffffffffffffffffffffffffffffffffffffff16600360009054906101000a900473ffffffffffffffffffffffffffffffffffffffff1673ffffffffffffffffffffffffffffffffffffffff1663f77c47916040518163ffffffff1660e01b815260040160206040518083038186803b15801561088f57600080fd5b505afa1580156108a3573d6000803e3d6000fd5b505050506040513d60208110156108b957600080fd5b810190808051906020019092919050505073ffffffffffffffffffffffffffffffffffffffff1614610936576040517f08c379a0000000000000000000000000000000000000000000000000000000008152600401808060200182810382526027815260200180610dd86027913960400191505060405180910390fd5b80600460006101000a81548173ffffffffffffffffffffffffffffffffffffffff021916908373ffffffffffffffffffffffffffffffffffffffff1602179055505050565b600030905090565b600160009054906101000a900473ffffffffffffffffffffffffffffffffffffffff1673ffffffffffffffffffffffffffffffffffffffff163373ffffffffffffffffffffffffffffffffffffffff161415610a3c57600160009054906101000a900473ffffffffffffffffffffffffffffffffffffffff166000806101000a81548173ffffffffffffffffffffffffffffffffffffffff021916908373ffffffffffffffffffffffffffffffffffffffff1602179055505b565b6000809054906101000a900473ffffffffffffffffffffffffffffffffffffffff1681565b68056bc75e2d6310000081565b6000809054906101000a900473ffffffffffffffffffffffffffffffffffffffff1673ffffffffffffffffffffffffffffffffffffffff163373ffffffffffffffffffffffffffffffffffffffff1614610b15576040517f08c379a0000000000000000000000000000000000000000000000000000000008152600401808060200182810382526026815260200180610e216026913960400191505060405180910390fd5b80600160006101000a81548173ffffffffffffffffffffffffffffffffffffffff021916908373ffffffffffffffffffffffffffffffffffffffff16021790555050565b600460009054906101000a900473ffffffffffffffffffffffffffffffffffffffff1681565b60008060009054906101000a900473ffffffffffffffffffffffffffffffffffffffff16905090565b600281565b600160009054906101000a900473ffffffffffffffffffffffffffffffffffffffff1681565b60008060028302905068056bc75e2d6310000083600254011115610c42576040517f08c379a0000000000000000000000000000000000000000000000000000000008152600401808060200182810382526022815260200180610dff6022913960400191505060405180910390fd5b600360009054906101000a900473ffffffffffffffffffffffffffffffffffffffff1673ffffffffffffffffffffffffffffffffffffffff1663827f32c085836040518363ffffffff1660e01b8152600401808373ffffffffffffffffffffffffffffffffffffffff1673ffffffffffffffffffffffffffffffffffffffff16815260200182815260200192505050602060405180830381600087803b158015610ceb57600080fd5b505af1158015610cff573d6000803e3d6000fd5b505050506040513d6020811015610d1557600080fd5b8101908080519060200190929190505050610d2c57fe5b600460009054906101000a900473ffffffffffffffffffffffffffffffffffffffff1673ffffffffffffffffffffffffffffffffffffffff166108fc849081150290604051600060405180830381858888f19350505050158015610d94573d6000803e3d6000fd5b508260025401600281905550600191505092915050565b60025481565b600360009054906101000a900473ffffffffffffffffffffffffffffffffffffffff168156fe4552524f523a2041646472657373206d75737420746f206265206f776e657220616464726573734552524f523a20746865204c696d697420686173206265656e206f766572636f6d65204552524f523a2073656e64657220697320646966666572656e74207468616e206f776e6572a165627a7a72305820ebac816baf0f607a690a547f50859c3c3ec65a388e8a9736bbad5b308accca350029",
  "source": "pragma solidity >0.4.99 <0.6.0;\n\nimport \"./Controller.sol\"; //controlador\nimport \"./Owned.sol\"; //Propietario\nimport \"./Token.sol\"; //Tokens\n\ncontract ICO is Owned, Controller {\n  //ICO es el controlador y propietario, tiene el método proxypayment y permite que des del token \"controlado\" se pueda avisar a ICO para que haga operación.\n\n    uint256 constant public limit = 100 ether; //limite de inversión por address de 100Eth\n    uint256 constant public exchange = 2; //número de tokens que voy a dar por 1 ether\n    uint256 public totalCollected; //sumará todas las aportaciones de los tokenholders (compradores)\n    address constant private address0 = address(uint160(0));\n\n    Token public token; //contract Token\n    address payable public ICOAccount; //dirección de la ICO, irán todos los Ethers pagados\n\n    constructor() public {\n        owner = msg.sender; //no haría falata, por que lo tenemos en la herencia Owned.\n        totalCollected = 0;\n    }\n\n    modifier initialized() { // modificador para comprobar que la ICO se ha inicializado\n        require(address(token) != address0,\"ERROR: ICO doesn't initialize\");\n        _;\n    }\n\n    function initialize ( address payable _token, address payable _icoAccount) public  {\n        require(address(token) == address0,\"ERROR: ICO was initialized\"); //comprobamos que no se inicializa más de una vez\n        token = Token(_token); //creamos Token con dirección que nos dan\n        require(token.totalTokensSupply() == 0,\"ERROR: This Token is in use\"); //comprobamos datos a 0, que no sea token usado\n        require(token.controller() == address(this),\"ERROR: Address must to be owner address\"); //controller debe ser la address owner (ICO)\n        ICOAccount = _icoAccount; //Cuenta destino de Ethers de la ICO\n    }\n\n    function proxyPayment(address _th) public payable initialized returns (bool) { //método de compra\n        return doBuy(_th, msg.value); // llamo al método doBuy por que\n    }\n\n    function doBuy(address _sender, uint _value) public returns (bool) { // función de compra\n        uint256 tokensGenerated = _value * exchange;  // calculamos cuantos tokens hay que generar (exchange és el número tokens por ether)\n        require (totalCollected + _value <= limit,\"ERROR: the Limit has been overcome\");\n                // evaluamos que no superemos el límite, si nos pasamos bloqueamos\n        assert(token.generateTokens(_sender, tokensGenerated)); //se generan los tokens pedidos\n        ICOAccount.transfer(_value); // se transfiere los ethers que nos han pagado\n        totalCollected = totalCollected + _value; //sumamos lo que se ha añadido\n        return true;\n    }\n\n\n    //Método fallback, método vacío y payable que va cualquier transacción que envíen a este conrato y no al Token\n    function() external payable {  //función que es fallback, se hace por si un usuario envía dinero a la address de la ICO\n                                // en vez del Token, al final se llamará a proxypayment para aprovechar el pago. Así no se pierde.\n        proxyPayment(msg.sender);\n    }\n\n\n    /** METODOS INFORMATIVOS */\n    function obtenerDireccionContrato() public view returns (address) {\n        return address(this);\n    }\n\n    function obtenerDireccionOwner() public view returns (address) {\n        return address(owner);\n    }\n\n}\n",
  "sourcePath": "C:/Users/Oriol/Downloads/ethereum/projects/ICO/contracts/ICO.sol",
  "compiler": {
    "name": "solc",
    "version": "0.5.8+commit.23d335f2.Emscripten.clang"
  },
  "schemaVersion": "3.0.17",
  "updatedAt": "2019-11-05T14:59:41.625Z",
  "devdoc": {
    "methods": {
      "changeOwner(address)": {
        "params": {
          "_newOwner": "The address of the new owner. 0x0 can be used to create  an unowned neutral vault, however that cannot be undone"
        }
      }
    }
  },
  "userdoc": {
    "methods": {
      "changeOwner(address)": {
        "notice": "`owner` can step down and assign some other address to this role"
      },
      "obtenerDireccionContrato()": {
        "notice": "METODOS INFORMATIVOS "
      }
    }
  }
}