{
  "contractName": "ICO",
  "abi": [
    {
      "inputs": [],
      "payable": false,
      "stateMutability": "nonpayable",
      "type": "constructor"
    },
    {
      "payable": true,
      "stateMutability": "payable",
      "type": "fallback"
    },
    {
      "constant": true,
      "inputs": [],
      "name": "ICOAccount",
      "outputs": [
        {
          "internalType": "address payable",
          "name": "",
          "type": "address"
        }
      ],
      "payable": false,
      "stateMutability": "view",
      "type": "function"
    },
    {
      "constant": false,
      "inputs": [],
      "name": "acceptOwnership",
      "outputs": [],
      "payable": false,
      "stateMutability": "nonpayable",
      "type": "function"
    },
    {
      "constant": false,
      "inputs": [
        {
          "internalType": "address payable",
          "name": "_newOwner",
          "type": "address"
        }
      ],
      "name": "changeOwner",
      "outputs": [],
      "payable": false,
      "stateMutability": "nonpayable",
      "type": "function"
    },
    {
      "constant": true,
      "inputs": [],
      "name": "exchange",
      "outputs": [
        {
          "internalType": "uint256",
          "name": "",
          "type": "uint256"
        }
      ],
      "payable": false,
      "stateMutability": "view",
      "type": "function"
    },
    {
      "constant": true,
      "inputs": [],
      "name": "limit",
      "outputs": [
        {
          "internalType": "uint256",
          "name": "",
          "type": "uint256"
        }
      ],
      "payable": false,
      "stateMutability": "view",
      "type": "function"
    },
    {
      "constant": true,
      "inputs": [],
      "name": "newOwner",
      "outputs": [
        {
          "internalType": "address payable",
          "name": "",
          "type": "address"
        }
      ],
      "payable": false,
      "stateMutability": "view",
      "type": "function"
    },
    {
      "constant": true,
      "inputs": [],
      "name": "owner",
      "outputs": [
        {
          "internalType": "address payable",
          "name": "",
          "type": "address"
        }
      ],
      "payable": false,
      "stateMutability": "view",
      "type": "function"
    },
    {
      "constant": true,
      "inputs": [],
      "name": "token",
      "outputs": [
        {
          "internalType": "contract Token",
          "name": "",
          "type": "address"
        }
      ],
      "payable": false,
      "stateMutability": "view",
      "type": "function"
    },
    {
      "constant": true,
      "inputs": [],
      "name": "totalCollected",
      "outputs": [
        {
          "internalType": "uint256",
          "name": "",
          "type": "uint256"
        }
      ],
      "payable": false,
      "stateMutability": "view",
      "type": "function"
    },
    {
      "constant": false,
      "inputs": [
        {
          "internalType": "address payable",
          "name": "_token",
          "type": "address"
        },
        {
          "internalType": "address payable",
          "name": "_icoAccount",
          "type": "address"
        }
      ],
      "name": "initialize",
      "outputs": [],
      "payable": false,
      "stateMutability": "nonpayable",
      "type": "function"
    },
    {
      "constant": false,
      "inputs": [
        {
          "internalType": "address",
          "name": "_th",
          "type": "address"
        }
      ],
      "name": "proxyPayment",
      "outputs": [
        {
          "internalType": "bool",
          "name": "",
          "type": "bool"
        }
      ],
      "payable": true,
      "stateMutability": "payable",
      "type": "function"
    },
    {
      "constant": false,
      "inputs": [
        {
          "internalType": "address",
          "name": "_sender",
          "type": "address"
        },
        {
          "internalType": "uint256",
          "name": "_value",
          "type": "uint256"
        }
      ],
      "name": "doBuy",
      "outputs": [
        {
          "internalType": "bool",
          "name": "",
          "type": "bool"
        }
      ],
      "payable": false,
      "stateMutability": "nonpayable",
      "type": "function"
    },
    {
      "constant": true,
      "inputs": [],
      "name": "obtenerDireccionContrato",
      "outputs": [
        {
          "internalType": "address",
          "name": "",
          "type": "address"
        }
      ],
      "payable": false,
      "stateMutability": "view",
      "type": "function"
    },
    {
      "constant": true,
      "inputs": [],
      "name": "obtenerDireccionOwner",
      "outputs": [
        {
          "internalType": "address",
          "name": "",
          "type": "address"
        }
      ],
      "payable": false,
      "stateMutability": "view",
      "type": "function"
    }
  ],
  "bytecode": "0x608060405234801561001057600080fd5b50600080546001600160a01b0319908116339081179091161781556002556108248061003d6000396000f3fe6080604052600436106100dd5760003560e01c8063d01fe6991161007f578063dcdc055a11610059578063dcdc055a1461022f578063e29eb8361461027c578063f48c305414610291578063fc0c546a146102b7576100dd565b8063d01fe699146101f0578063d2f7265a14610205578063d4ee1d901461021a576100dd565b80638da5cb5b116100bb5780638da5cb5b1461016c578063a4d66daf14610181578063a6f9dae1146101a8578063cacb280a146101db576100dd565b8063485cc955146100e9578063597c60da1461012657806379ba509714610157575b6100e6336102cc565b50005b3480156100f557600080fd5b506101246004803603604081101561010c57600080fd5b506001600160a01b038135811691602001351661033c565b005b34801561013257600080fd5b5061013b61054c565b604080516001600160a01b039092168252519081900360200190f35b34801561016357600080fd5b50610124610550565b34801561017857600080fd5b5061013b610588565b34801561018d57600080fd5b50610196610597565b60408051918252519081900360200190f35b3480156101b457600080fd5b50610124600480360360208110156101cb57600080fd5b50356001600160a01b03166105a4565b3480156101e757600080fd5b5061013b61060f565b3480156101fc57600080fd5b5061013b61061e565b34801561021157600080fd5b5061019661062d565b34801561022657600080fd5b5061013b610632565b34801561023b57600080fd5b506102686004803603604081101561025257600080fd5b506001600160a01b038135169060200135610641565b604080519115158252519081900360200190f35b34801561028857600080fd5b5061019661076b565b610268600480360360208110156102a757600080fd5b50356001600160a01b03166102cc565b3480156102c357600080fd5b5061013b610771565b6003546000906001600160a01b031661032c576040805162461bcd60e51b815260206004820152601d60248201527f4552524f523a2049434f20646f65736e277420696e697469616c697a65000000604482015290519081900360640190fd5b6103368234610641565b92915050565b6003546001600160a01b03161561039a576040805162461bcd60e51b815260206004820152601a60248201527f4552524f523a2049434f2077617320696e697469616c697a6564000000000000604482015290519081900360640190fd5b600380546001600160a01b0319166001600160a01b03848116919091179182905560408051631e75506160e21b8152905192909116916379d5418491600480820192602092909190829003018186803b1580156103f657600080fd5b505afa15801561040a573d6000803e3d6000fd5b505050506040513d602081101561042057600080fd5b505115610474576040805162461bcd60e51b815260206004820152601b60248201527f4552524f523a205468697320546f6b656e20697320696e207573650000000000604482015290519081900360640190fd5b6003546040805163f77c479160e01b8152905130926001600160a01b03169163f77c4791916004808301926020929190829003018186803b1580156104b857600080fd5b505afa1580156104cc573d6000803e3d6000fd5b505050506040513d60208110156104e257600080fd5b50516001600160a01b0316146105295760405162461bcd60e51b81526004018080602001828103825260278152602001806107816027913960400191505060405180910390fd5b600480546001600160a01b0319166001600160a01b039290921691909117905550565b3090565b6001546001600160a01b031633141561058657600154600080546001600160a01b0319166001600160a01b039092169190911790555b565b6000546001600160a01b031681565b68056bc75e2d6310000081565b6000546001600160a01b031633146105ed5760405162461bcd60e51b81526004018080602001828103825260268152602001806107ca6026913960400191505060405180910390fd5b600180546001600160a01b0319166001600160a01b0392909216919091179055565b6004546001600160a01b031681565b6000546001600160a01b031690565b600281565b6001546001600160a01b031681565b60008060028302905068056bc75e2d63100000836002540111156106965760405162461bcd60e51b81526004018080602001828103825260228152602001806107a86022913960400191505060405180910390fd5b60035460408051630209fccb60e61b81526001600160a01b038781166004830152602482018590529151919092169163827f32c09160448083019260209291908290030181600087803b1580156106ec57600080fd5b505af1158015610700573d6000803e3d6000fd5b505050506040513d602081101561071657600080fd5b505161071e57fe5b6004546040516001600160a01b039091169084156108fc029085906000818181858888f19350505050158015610758573d6000803e3d6000fd5b5050600280548301905550600192915050565b60025481565b6003546001600160a01b03168156fe4552524f523a2041646472657373206d75737420746f206265206f776e657220616464726573734552524f523a20746865204c696d697420686173206265656e206f766572636f6d65204552524f523a2073656e64657220697320646966666572656e74207468616e206f776e6572a265627a7a72315820f1c42ab2e9f0bcb8f5567929eecb7a44fd47e087cf88c612aee7a30553aa3b1564736f6c634300050c0032",
  "source": "pragma solidity >0.4.99 <0.6.0;\n\nimport \"./Controller.sol\"; //controlador\nimport \"./Owned.sol\"; //Propietario\nimport \"./Token.sol\"; //Tokens\n\ncontract ICO is Owned, Controller {\n  //ICO es el controlador y propietario, tiene el método proxypayment y permite que des del token \"controlado\" se pueda avisar a ICO para que haga operación.\n\n    uint256 constant public limit = 100 ether; //limite de inversión por address de 100Eth\n    uint256 constant public exchange = 2; //número de tokens que voy a dar por 1 ether\n    uint256 public totalCollected; //sumará todas las aportaciones de los tokenholders (compradores)\n    address constant private address0 = address(uint160(0));\n\n    Token public token; //contract Token\n    address payable public ICOAccount; //dirección de la ICO, irán todos los Ethers pagados\n\n    constructor() public {\n        owner = msg.sender; //no haría falata, por que lo tenemos en la herencia Owned.\n        totalCollected = 0;\n    }\n\n    modifier initialized() { // modificador para comprobar que la ICO se ha inicializado\n        require(address(token) != address0,\"ERROR: ICO doesn't initialize\");\n        _;\n    }\n\n    function initialize ( address payable _token, address payable _icoAccount) public  {\n        require(address(token) == address0,\"ERROR: ICO was initialized\"); //comprobamos que no se inicializa más de una vez\n        token = Token(_token); //creamos Token con dirección que nos dan\n        require(token.totalTokensSupply() == 0,\"ERROR: This Token is in use\"); //comprobamos datos a 0, que no sea token usado\n        require(token.controller() == address(this),\"ERROR: Address must to be owner address\"); //controller debe ser la address owner (ICO)\n        ICOAccount = _icoAccount; //Cuenta destino de Ethers de la ICO\n    }\n\n    function proxyPayment(address _th) public payable initialized returns (bool) { //método de compra\n        return doBuy(_th, msg.value); // llamo al método doBuy por que\n    }\n\n    function doBuy(address _sender, uint _value) public returns (bool) { // función de compra\n        uint256 tokensGenerated = _value * exchange;  // calculamos cuantos tokens hay que generar (exchange és el número tokens por ether)\n        require (totalCollected + _value <= limit,\"ERROR: the Limit has been overcome\");\n                // evaluamos que no superemos el límite, si nos pasamos bloqueamos\n        assert(token.generateTokens(_sender, tokensGenerated)); //se generan los tokens pedidos\n        ICOAccount.transfer(_value); // se transfiere los ethers que nos han pagado\n        totalCollected = totalCollected + _value; //sumamos lo que se ha añadido\n        return true;\n    }\n\n\n    //Método fallback, método vacío y payable que va cualquier transacción que envíen a este conrato y no al Token\n    function() external payable {  //función que es fallback, se hace por si un usuario envía dinero a la address de la ICO\n                                // en vez del Token, al final se llamará a proxypayment para aprovechar el pago. Así no se pierde.\n        proxyPayment(msg.sender);\n    }\n\n\n    /** METODOS INFORMATIVOS */\n    function obtenerDireccionContrato() public view returns (address) {\n        return address(this);\n    }\n\n    function obtenerDireccionOwner() public view returns (address) {\n        return address(owner);\n    }\n\n}\n",
  "sourcePath": "C:/Users/Oriol/Downloads/ethereum/projects/ICO/contracts/ICO.sol",
  "compiler": {
    "name": "solc",
    "version": "0.5.12+commit.7709ece9.Emscripten.clang"
  },
  "schemaVersion": "3.0.18",
  "updatedAt": "2019-11-11T11:20:32.880Z",
  "devdoc": {
    "methods": {
      "changeOwner(address)": {
        "params": {
          "_newOwner": "The address of the new owner. 0x0 can be used to create  an unowned neutral vault, however that cannot be undone"
        }
      }
    }
  },
  "userdoc": {
    "methods": {
      "changeOwner(address)": {
        "notice": "`owner` can step down and assign some other address to this role"
      },
      "obtenerDireccionContrato()": {
        "notice": "METODOS INFORMATIVOS "
      }
    }
  }
}