{
  "contractName": "Owned",
  "abi": [
    {
      "constant": true,
      "inputs": [],
      "name": "owner",
      "outputs": [
        {
          "name": "",
          "type": "address"
        }
      ],
      "payable": false,
      "stateMutability": "view",
      "type": "function"
    },
    {
      "constant": true,
      "inputs": [],
      "name": "newOwner",
      "outputs": [
        {
          "name": "",
          "type": "address"
        }
      ],
      "payable": false,
      "stateMutability": "view",
      "type": "function"
    },
    {
      "inputs": [],
      "payable": false,
      "stateMutability": "nonpayable",
      "type": "constructor"
    },
    {
      "constant": false,
      "inputs": [
        {
          "name": "_newOwner",
          "type": "address"
        }
      ],
      "name": "changeOwner",
      "outputs": [],
      "payable": false,
      "stateMutability": "nonpayable",
      "type": "function"
    },
    {
      "constant": false,
      "inputs": [],
      "name": "acceptOwnership",
      "outputs": [],
      "payable": false,
      "stateMutability": "nonpayable",
      "type": "function"
    }
  ],
  "bytecode": "0x608060405234801561001057600080fd5b50336000806101000a81548173ffffffffffffffffffffffffffffffffffffffff021916908373ffffffffffffffffffffffffffffffffffffffff160217905550610340806100606000396000f300608060405260043610610062576000357c0100000000000000000000000000000000000000000000000000000000900463ffffffff16806379ba5097146100675780638da5cb5b1461007e578063a6f9dae1146100d5578063d4ee1d9014610118575b600080fd5b34801561007357600080fd5b5061007c61016f565b005b34801561008a57600080fd5b5061009361022a565b604051808273ffffffffffffffffffffffffffffffffffffffff1673ffffffffffffffffffffffffffffffffffffffff16815260200191505060405180910390f35b3480156100e157600080fd5b50610116600480360381019080803573ffffffffffffffffffffffffffffffffffffffff16906020019092919050505061024f565b005b34801561012457600080fd5b5061012d6102ee565b604051808273ffffffffffffffffffffffffffffffffffffffff1673ffffffffffffffffffffffffffffffffffffffff16815260200191505060405180910390f35b600160009054906101000a900473ffffffffffffffffffffffffffffffffffffffff1673ffffffffffffffffffffffffffffffffffffffff163373ffffffffffffffffffffffffffffffffffffffff16141561022857600160009054906101000a900473ffffffffffffffffffffffffffffffffffffffff166000806101000a81548173ffffffffffffffffffffffffffffffffffffffff021916908373ffffffffffffffffffffffffffffffffffffffff1602179055505b565b6000809054906101000a900473ffffffffffffffffffffffffffffffffffffffff1681565b6000809054906101000a900473ffffffffffffffffffffffffffffffffffffffff1673ffffffffffffffffffffffffffffffffffffffff163373ffffffffffffffffffffffffffffffffffffffff161415156102aa57600080fd5b80600160006101000a81548173ffffffffffffffffffffffffffffffffffffffff021916908373ffffffffffffffffffffffffffffffffffffffff16021790555050565b600160009054906101000a900473ffffffffffffffffffffffffffffffffffffffff16815600a165627a7a72305820aa39271151dcbdd2122408a4aef24f3fb1688890fb8630ba93ebbb4b608ed5030029",
  "source": "pragma solidity ^0.4.13;\r\n\r\n\r\n/// @dev `Owned` is a base level contract that assigns an `owner` that can be\r\n///  later changed\r\ncontract Owned {\r\n    address public owner; \r\n    address public newOwner;\r\n\r\n    /// @notice The Constructor assigns the message sender to be `owner`\r\n    constructor() public {\r\n        owner = msg.sender;\r\n    }\r\n\r\n    /// @dev `owner` is the only address that can call a function with this\r\n    /// modifier\r\n    modifier onlyOwner() {\r\n        require(msg.sender == owner);\r\n        _;\r\n    }\r\n \r\n    /// @notice `owner` can step down and assign some other address to this role\r\n    /// @param _newOwner The address of the new owner. 0x0 can be used to create\r\n    ///  an unowned neutral vault, however that cannot be undone\r\n    function changeOwner(address _newOwner) public onlyOwner {\r\n        newOwner = _newOwner;\r\n    }\r\n\r\n\r\n    function acceptOwnership() public {\r\n        if (msg.sender == newOwner) {\r\n            owner = newOwner;\r\n        }\r\n    }\r\n}\r\n",
  "sourcePath": "C:\\Users\\Oriol\\Downloads\\solidity\\BlockChainEthereumICO\\contracts\\Owned.sol",
  "compiler": {
    "name": "solc",
    "version": "0.4.23+commit.124ca40d.Emscripten.clang"
  },
  "schemaVersion": "2.0.0",
  "updatedAt": "2018-05-23T14:58:49.142Z"
}