{
  "contractName": "Owned",
  "abi": [
    {
      "constant": true,
      "inputs": [],
      "name": "owner",
      "outputs": [
        {
          "name": "",
          "type": "address"
        }
      ],
      "payable": false,
      "stateMutability": "view",
      "type": "function"
    },
    {
      "constant": true,
      "inputs": [],
      "name": "newOwner",
      "outputs": [
        {
          "name": "",
          "type": "address"
        }
      ],
      "payable": false,
      "stateMutability": "view",
      "type": "function"
    },
    {
      "inputs": [],
      "payable": false,
      "stateMutability": "nonpayable",
      "type": "constructor"
    },
    {
      "constant": false,
      "inputs": [
        {
          "name": "_newOwner",
          "type": "address"
        }
      ],
      "name": "changeOwner",
      "outputs": [],
      "payable": false,
      "stateMutability": "nonpayable",
      "type": "function"
    },
    {
      "constant": false,
      "inputs": [],
      "name": "acceptOwnership",
      "outputs": [],
      "payable": false,
      "stateMutability": "nonpayable",
      "type": "function"
    }
  ],
  "bytecode": "0x608060405234801561001057600080fd5b50600080546001600160a01b031916331790556101c3806100326000396000f3fe608060405234801561001057600080fd5b506004361061004c5760003560e01c806379ba5097146100515780638da5cb5b1461005b578063a6f9dae11461007f578063d4ee1d90146100a5575b600080fd5b6100596100ad565b005b6100636100e5565b604080516001600160a01b039092168252519081900360200190f35b6100596004803603602081101561009557600080fd5b50356001600160a01b03166100f4565b610063610162565b6001546001600160a01b03163314156100e357600154600080546001600160a01b0319166001600160a01b039092169190911790555b565b6000546001600160a01b031681565b6000546001600160a01b0316331461014057604051600160e51b62461bcd0281526004018080602001828103825260268152602001806101726026913960400191505060405180910390fd5b600180546001600160a01b0319166001600160a01b0392909216919091179055565b6001546001600160a01b03168156fe204552524f523a2073656e64657220697320646966666572656e74207468616e206f776e6572a165627a7a72305820b81ae7f52a9a07e41c7211cbe8e9751cef2af2d2038849b5f7ac6deb5c7ca9980029",
  "source": "pragma solidity >0.4.99 <0.6.0;\n\n//este contrato valida que sólo pueda ejecutar transacciones el owner.\n/// @dev `Owned` is a base level contract that assigns an `owner` that can be\n///  later changed\ncontract Owned {\n    address payable public owner;\n    address payable public newOwner;\n\n    /// @notice The Constructor assigns the message sender to be `owner`\n    constructor() public {\n        owner = msg.sender;\n    }\n\n    /// @dev `owner` is the only address that can call a function with this\n    /// modifier\n    modifier onlyOwner() {\n        require(msg.sender == owner, \" ERROR: sender is different than owner\");\n        _;\n    }\n \n    /// @notice `owner` can step down and assign some other address to this role\n    /// @param _newOwner The address of the new owner. 0x0 can be used to create\n    ///  an unowned neutral vault, however that cannot be undone\n    function changeOwner(address payable _newOwner) public onlyOwner {\n        newOwner = _newOwner;\n    }\n\n\n    function acceptOwnership() public {\n        if (msg.sender == newOwner) {\n            owner = newOwner;\n        }\n    }\n}\n",
  "sourcePath": "C:\\Users\\Oriol\\Downloads\\ethereum\\projects\\ICO\\contracts\\Owned.sol",
  "compiler": {
    "name": "solc",
    "version": "0.5.8+commit.23d335f2.Emscripten.clang"
  },
  "schemaVersion": "3.0.17",
  "updatedAt": "2019-11-05T15:01:47.179Z",
  "devdoc": {
    "details": "`Owned` is a base level contract that assigns an `owner` that can be  later changed",
    "methods": {
      "changeOwner(address)": {
        "params": {
          "_newOwner": "The address of the new owner. 0x0 can be used to create  an unowned neutral vault, however that cannot be undone"
        }
      }
    }
  },
  "userdoc": {
    "methods": {
      "changeOwner(address)": {
        "notice": "`owner` can step down and assign some other address to this role"
      },
      "constructor": "The Constructor assigns the message sender to be `owner`"
    }
  }
}