{
  "contractName": "Token",
  "abi": [
    {
      "constant": true,
      "inputs": [],
      "name": "totalSupply",
      "outputs": [
        {
          "name": "",
          "type": "uint256"
        }
      ],
      "payable": false,
      "stateMutability": "view",
      "type": "function"
    },
    {
      "constant": false,
      "inputs": [
        {
          "name": "_newController",
          "type": "address"
        }
      ],
      "name": "changeController",
      "outputs": [],
      "payable": false,
      "stateMutability": "nonpayable",
      "type": "function"
    },
    {
      "constant": true,
      "inputs": [],
      "name": "controller",
      "outputs": [
        {
          "name": "",
          "type": "address"
        }
      ],
      "payable": false,
      "stateMutability": "view",
      "type": "function"
    },
    {
      "inputs": [],
      "payable": false,
      "stateMutability": "nonpayable",
      "type": "constructor"
    },
    {
      "payable": true,
      "stateMutability": "payable",
      "type": "fallback"
    },
    {
      "anonymous": false,
      "inputs": [
        {
          "indexed": true,
          "name": "_from",
          "type": "address"
        },
        {
          "indexed": true,
          "name": "_to",
          "type": "address"
        },
        {
          "indexed": false,
          "name": "_value",
          "type": "uint256"
        }
      ],
      "name": "TransferLog",
      "type": "event"
    },
    {
      "constant": true,
      "inputs": [
        {
          "name": "_owner",
          "type": "address"
        }
      ],
      "name": "balanceOf",
      "outputs": [
        {
          "name": "balance",
          "type": "uint256"
        }
      ],
      "payable": false,
      "stateMutability": "view",
      "type": "function"
    },
    {
      "constant": false,
      "inputs": [
        {
          "name": "_to",
          "type": "address"
        },
        {
          "name": "_value",
          "type": "uint256"
        }
      ],
      "name": "transfer",
      "outputs": [
        {
          "name": "success",
          "type": "bool"
        }
      ],
      "payable": false,
      "stateMutability": "nonpayable",
      "type": "function"
    },
    {
      "constant": false,
      "inputs": [
        {
          "name": "_from",
          "type": "address"
        },
        {
          "name": "_to",
          "type": "address"
        },
        {
          "name": "_value",
          "type": "uint256"
        }
      ],
      "name": "transferFrom",
      "outputs": [
        {
          "name": "success",
          "type": "bool"
        }
      ],
      "payable": false,
      "stateMutability": "nonpayable",
      "type": "function"
    },
    {
      "constant": false,
      "inputs": [
        {
          "name": "_owner",
          "type": "address"
        },
        {
          "name": "_amount",
          "type": "uint256"
        }
      ],
      "name": "generateTokens",
      "outputs": [
        {
          "name": "",
          "type": "bool"
        }
      ],
      "payable": false,
      "stateMutability": "nonpayable",
      "type": "function"
    }
  ],
  "bytecode": "0x608060405234801561001057600080fd5b50336000806101000a81548173ffffffffffffffffffffffffffffffffffffffff021916908373ffffffffffffffffffffffffffffffffffffffff160217905550336000806101000a81548173ffffffffffffffffffffffffffffffffffffffff021916908373ffffffffffffffffffffffffffffffffffffffff1602179055506109e1806100a06000396000f300608060405260043610610083576000357c0100000000000000000000000000000000000000000000000000000000900463ffffffff16806318160ddd146101c357806323b872dd146101ee5780633cebb8231461027357806370a08231146102b6578063827f32c01461030d578063a9059cbb14610372578063f77c4791146103d7575b60006100af6000809054906101000a900473ffffffffffffffffffffffffffffffffffffffff1661042e565b15156100ba57600080fd5b6000809054906101000a900473ffffffffffffffffffffffffffffffffffffffff1690508073ffffffffffffffffffffffffffffffffffffffff1663f48c305434336040518363ffffffff167c0100000000000000000000000000000000000000000000000000000000028152600401808273ffffffffffffffffffffffffffffffffffffffff1673ffffffffffffffffffffffffffffffffffffffff1681526020019150506020604051808303818588803b15801561017957600080fd5b505af115801561018d573d6000803e3d6000fd5b50505050506040513d60208110156101a457600080fd5b810190808051906020019092919050505015156101c057600080fd5b50005b3480156101cf57600080fd5b506101d861046a565b6040518082815260200191505060405180910390f35b3480156101fa57600080fd5b50610259600480360381019080803573ffffffffffffffffffffffffffffffffffffffff169060200190929190803573ffffffffffffffffffffffffffffffffffffffff16906020019092919080359060200190929190505050610470565b604051808215151515815260200191505060405180910390f35b34801561027f57600080fd5b506102b4600480360381019080803573ffffffffffffffffffffffffffffffffffffffff1690602001909291905050506104e1565b005b3480156102c257600080fd5b506102f7600480360381019080803573ffffffffffffffffffffffffffffffffffffffff16906020019092919050505061057f565b6040518082815260200191505060405180910390f35b34801561031957600080fd5b50610358600480360381019080803573ffffffffffffffffffffffffffffffffffffffff16906020019092919080359060200190929190505050610619565b604051808215151515815260200191505060405180910390f35b34801561037e57600080fd5b506103bd600480360381019080803573ffffffffffffffffffffffffffffffffffffffff16906020019092919080359060200190929190505050610756565b604051808215151515815260200191505060405180910390f35b3480156103e357600080fd5b506103ec61076b565b604051808273ffffffffffffffffffffffffffffffffffffffff1673ffffffffffffffffffffffffffffffffffffffff16815260200191505060405180910390f35b60008060008373ffffffffffffffffffffffffffffffffffffffff1614156104595760009150610464565b823b90506000811191505b50919050565b60025481565b60008060009054906101000a900473ffffffffffffffffffffffffffffffffffffffff1673ffffffffffffffffffffffffffffffffffffffff163373ffffffffffffffffffffffffffffffffffffffff161415156104cd57600080fd5b6104d8848484610790565b90509392505050565b6000809054906101000a900473ffffffffffffffffffffffffffffffffffffffff1673ffffffffffffffffffffffffffffffffffffffff163373ffffffffffffffffffffffffffffffffffffffff1614151561053c57600080fd5b806000806101000a81548173ffffffffffffffffffffffffffffffffffffffff021916908373ffffffffffffffffffffffffffffffffffffffff16021790555050565b600080600160008473ffffffffffffffffffffffffffffffffffffffff1673ffffffffffffffffffffffffffffffffffffffff1681526020019081526020016000205414156105d15760009050610614565b600160008373ffffffffffffffffffffffffffffffffffffffff1673ffffffffffffffffffffffffffffffffffffffff1681526020019081526020016000205490505b919050565b60008060008060009054906101000a900473ffffffffffffffffffffffffffffffffffffffff1673ffffffffffffffffffffffffffffffffffffffff163373ffffffffffffffffffffffffffffffffffffffff1614151561067957600080fd5b6002549150818483011015151561068f57600080fd5b6106988561057f565b905080848201101515156106ab57600080fd5b838201600281905550838101600160008773ffffffffffffffffffffffffffffffffffffffff1673ffffffffffffffffffffffffffffffffffffffff168152602001908152602001600020819055508473ffffffffffffffffffffffffffffffffffffffff1660007f21425341546d2023146851fb583db9b7c6be5fed0d287293c85a8ede5193c6ea866040518082815260200191505060405180910390a360019250505092915050565b6000610763338484610790565b905092915050565b6000809054906101000a900473ffffffffffffffffffffffffffffffffffffffff1681565b6000806000808414156107a657600192506109ac565b60008573ffffffffffffffffffffffffffffffffffffffff16141580156107f957503073ffffffffffffffffffffffffffffffffffffffff168573ffffffffffffffffffffffffffffffffffffffff1614155b151561080457600080fd5b61080d8661057f565b91508382101561082057600092506109ac565b83600160008873ffffffffffffffffffffffffffffffffffffffff1673ffffffffffffffffffffffffffffffffffffffff1681526020019081526020016000205403600160008873ffffffffffffffffffffffffffffffffffffffff1673ffffffffffffffffffffffffffffffffffffffff168152602001908152602001600020819055506108ae8561057f565b905080848201101515156108c157600080fd5b83600160008773ffffffffffffffffffffffffffffffffffffffff1673ffffffffffffffffffffffffffffffffffffffff1681526020019081526020016000205401600160008773ffffffffffffffffffffffffffffffffffffffff1673ffffffffffffffffffffffffffffffffffffffff168152602001908152602001600020819055508473ffffffffffffffffffffffffffffffffffffffff168673ffffffffffffffffffffffffffffffffffffffff167f21425341546d2023146851fb583db9b7c6be5fed0d287293c85a8ede5193c6ea866040518082815260200191505060405180910390a35b505093925050505600a165627a7a7230582001809905072f239eb7a520290fa0272c930423f066c04aa781913bd41c9ce4630029",
  "source": "pragma solidity ^0.4.13;\r\n\r\nimport \"./Controlled.sol\";\r\nimport \"./Controller.sol\";\r\n\r\ncontract Token is Controlled { //El token está controlado por alguien, en este caso por ICO\r\n    mapping (address => uint256) balances; //cantidad de tokens por address (compradores)\r\n    uint256 public totalSupply; //contador total\r\n\r\n    constructor() public { // el que llame será el controlador (debeía ser ICO ico.address)\r\n        controller = msg.sender;\r\n    }\r\n\r\n    //LOG para transfers\r\n    event TransferLog (address indexed _from, address indexed _to, uint256 _value);\r\n\r\n    function balanceOf(address _owner) public view returns (uint256 balance) { //saber para un owner su balance\r\n        if (balances[_owner] == 0) {\r\n            return 0;\r\n        } else {\r\n            return balances[_owner];\r\n      }\r\n    }\r\n\r\n    function transfer(address _to, uint256 _value) public returns (bool success) { //transfiere des de cuenta que llama (message sender) al ICO\r\n        return doTransfer(msg.sender, _to, _value);\r\n    }\r\n\r\n    function transferFrom(address _from, address _to, uint256 _value) public  onlyController returns (bool success) { \r\n                                                              //transfiere enviando el message sender, sólo gestiona controller\r\n        return doTransfer(_from, _to, _value);\r\n    }\r\n\r\n    function doTransfer (address _from, address _to, uint256 _value) internal returns (bool) {\r\n        if (_value == 0) {\r\n            return true;\r\n        }\r\n        require ((_to != 0) && (_to != address(this)));\r\n        uint previousBalanceFrom = balanceOf(_from); //recuperamos balance de _from\r\n        if (previousBalanceFrom < _value) { //comprobamos que el balance del from sea mayor que value\r\n            return false;\r\n        }\r\n        balances[_from] = balances[_from] - _value; //restamos al balance el valor _from\r\n        uint previousBalanceTo = balanceOf(_to); //recuperamos balance de _to\r\n        require(previousBalanceTo + _value >= previousBalanceTo); //No queremos overflow, comprobamos que el balance del to sea mayor que value\r\n        balances[_to] = balances[_to] + _value; //sumamos al balance el valor de  _to\r\n        emit TransferLog(_from, _to, _value); //sólo para saber quien lo ha realizado, log en event\r\n    }\r\n\r\n    function isContract(address _addr) view internal returns(bool) { //helper para comprobar si una address es un contrato.\r\n        uint size;\r\n        if (_addr == 0) {\r\n            return false;\r\n        }\r\n\r\n        assembly {  size := extcodesize(_addr) \r\n        }\r\n        \r\n        return size>0;\r\n    }\r\n\r\n    function () public payable { //método fallback, va cualquier transacción que vaya a una signature inexistente\r\n        require(isContract(controller)); // comprobamos que sea un contrato\r\n        Controller c = Controller(controller); // llamamos constructor de controller\r\n        require(c.proxyPayment.value(msg.value)(msg.sender)); //llamamos método payable proxyPayment\r\n                                                         //reenviamos el value dentro de la transacción \r\n    }\r\n\r\n    function generateTokens(address _owner, uint _amount) public onlyController returns (bool) { //genera el token requerido\r\n        uint curTotalSuply = totalSupply;\r\n        require(curTotalSuply + _amount >= curTotalSuply);\r\n        uint previousBalanceTo = balanceOf(_owner);\r\n        require(previousBalanceTo + _amount >= previousBalanceTo); //No queremos overflow, comprobamos que el balance del to sea mayor que value\r\n        totalSupply = curTotalSuply + _amount;\r\n        balances[_owner] = previousBalanceTo + _amount;\r\n        emit TransferLog(0, _owner, _amount); //sólo para saber quien lo ha realizado, log en event\r\n        return true;\r\n    }\r\n\r\n   \r\n\r\n}\r\n",
  "sourcePath": "C:\\Users\\Oriol\\Downloads\\solidity\\BlockChainEthereumICO\\contracts\\Token.sol",
  "compiler": {
    "name": "solc",
    "version": "0.4.23+commit.124ca40d.Emscripten.clang"
  },
  "schemaVersion": "2.0.0",
  "updatedAt": "2018-05-23T14:58:49.162Z"
}