{
  "contractName": "Token",
  "abi": [
    {
      "constant": false,
      "inputs": [
        {
          "name": "_newController",
          "type": "address"
        }
      ],
      "name": "changeController",
      "outputs": [],
      "payable": false,
      "stateMutability": "nonpayable",
      "type": "function"
    },
    {
      "constant": true,
      "inputs": [],
      "name": "totalTokensSupply",
      "outputs": [
        {
          "name": "",
          "type": "uint256"
        }
      ],
      "payable": false,
      "stateMutability": "view",
      "type": "function"
    },
    {
      "constant": true,
      "inputs": [],
      "name": "controller",
      "outputs": [
        {
          "name": "",
          "type": "address"
        }
      ],
      "payable": false,
      "stateMutability": "view",
      "type": "function"
    },
    {
      "inputs": [],
      "payable": false,
      "stateMutability": "nonpayable",
      "type": "constructor"
    },
    {
      "payable": true,
      "stateMutability": "payable",
      "type": "fallback"
    },
    {
      "anonymous": false,
      "inputs": [
        {
          "indexed": true,
          "name": "_from",
          "type": "address"
        },
        {
          "indexed": true,
          "name": "_to",
          "type": "address"
        },
        {
          "indexed": false,
          "name": "_value",
          "type": "uint256"
        }
      ],
      "name": "TransferLog",
      "type": "event"
    },
    {
      "constant": true,
      "inputs": [
        {
          "name": "_owner",
          "type": "address"
        }
      ],
      "name": "balanceOf",
      "outputs": [
        {
          "name": "balance",
          "type": "uint256"
        }
      ],
      "payable": false,
      "stateMutability": "view",
      "type": "function"
    },
    {
      "constant": false,
      "inputs": [
        {
          "name": "_to",
          "type": "address"
        },
        {
          "name": "_value",
          "type": "uint256"
        }
      ],
      "name": "transfer",
      "outputs": [
        {
          "name": "success",
          "type": "bool"
        }
      ],
      "payable": false,
      "stateMutability": "nonpayable",
      "type": "function"
    },
    {
      "constant": false,
      "inputs": [
        {
          "name": "_from",
          "type": "address"
        },
        {
          "name": "_to",
          "type": "address"
        },
        {
          "name": "_value",
          "type": "uint256"
        }
      ],
      "name": "transferFrom",
      "outputs": [
        {
          "name": "success",
          "type": "bool"
        }
      ],
      "payable": false,
      "stateMutability": "nonpayable",
      "type": "function"
    },
    {
      "constant": false,
      "inputs": [
        {
          "name": "_owner",
          "type": "address"
        },
        {
          "name": "_tokensGenerated",
          "type": "uint256"
        }
      ],
      "name": "generateTokens",
      "outputs": [
        {
          "name": "",
          "type": "bool"
        }
      ],
      "payable": false,
      "stateMutability": "nonpayable",
      "type": "function"
    }
  ],
  "bytecode": "0x608060405234801561001057600080fd5b50600080546001600160a01b0319908116339081179091161790556108568061003a6000396000f3fe6080604052600436106100705760003560e01c806379d541841161004e57806379d5418414610255578063827f32c01461026a578063a9059cbb146102a3578063f77c4791146102dc57610070565b806323b872dd146101845780633cebb823146101db57806370a0823114610210575b600054610085906001600160a01b031661030d565b6100c357604051600160e51b62461bcd0281526004018080602001828103825260258152602001806108066025913960400191505060405180910390fd5b60005460408051600160e21b633d230c1502815233600482015290516001600160a01b0390921691829163f48c305491349160248082019260209290919082900301818588803b15801561011657600080fd5b505af115801561012a573d6000803e3d6000fd5b50505050506040513d602081101561014157600080fd5b505161018157604051600160e51b62461bcd0281526004018080602001828103825260248152602001806107446024913960400191505060405180910390fd5b50005b34801561019057600080fd5b506101c7600480360360608110156101a757600080fd5b506001600160a01b03813581169160208101359091169060400135610334565b604080519115158252519081900360200190f35b3480156101e757600080fd5b5061020e600480360360208110156101fe57600080fd5b50356001600160a01b0316610396565b005b34801561021c57600080fd5b506102436004803603602081101561023357600080fd5b50356001600160a01b0316610404565b60408051918252519081900360200190f35b34801561026157600080fd5b50610243610448565b34801561027657600080fd5b506101c76004803603604081101561028d57600080fd5b506001600160a01b03813516906020013561044e565b3480156102af57600080fd5b506101c7600480360360408110156102c657600080fd5b506001600160a01b038135169060200135610597565b3480156102e857600080fd5b506102f16105a4565b604080516001600160a01b039092168252519081900360200190f35b6000806001600160a01b03831661032857600091505061032f565b5050803b15155b919050565b600080546001600160a01b0316331461038157604051600160e51b62461bcd02815260040180806020018281038252602b8152602001806107db602b913960400191505060405180910390fd5b61038c8484846105b3565b90505b9392505050565b6000546001600160a01b031633146103e257604051600160e51b62461bcd02815260040180806020018281038252602b8152602001806107db602b913960400191505060405180910390fd5b600080546001600160a01b0319166001600160a01b0392909216919091179055565b6001600160a01b0381166000908152600160205260408120546104295750600061032f565b506001600160a01b03811660009081526001602052604090205461032f565b60025481565b600080546001600160a01b0316331461049b57604051600160e51b62461bcd02815260040180806020018281038252602b8152602001806107db602b913960400191505060405180910390fd5b6002548281018111156104e257604051600160e51b62461bcd0281526004018080602001828103825260278152602001806107686027913960400191505060405180910390fd5b60006104ed85610404565b905080848201101561053357604051600160e51b62461bcd0281526004018080602001828103825260298152602001806107b26029913960400191505060405180910390fd5b8184016002556001600160a01b03851660008181526001602090815260409182902084880190558151878152915183927f21425341546d2023146851fb583db9b7c6be5fed0d287293c85a8ede5193c6ea92908290030190a3506001949350505050565b600061038f3384846105b3565b6000546001600160a01b031681565b6000816105c25750600161038f565b6001600160a01b038316158015906105e357506001600160a01b0383163014155b61062157604051600160e51b62461bcd02815260040180806020018281038252602381526020018061078f6023913960400191505060405180910390fd5b600061062c85610404565b90508281101561064057600091505061038f565b6001600160a01b03851660009081526001602052604081208054859003905561066885610404565b90508084820110156106ae57604051600160e51b62461bcd0281526004018080602001828103825260338152602001806107116033913960400191505060405180910390fd5b6001600160a01b038086166000818152600160209081526040918290208054890190558151888152915192938a16927f21425341546d2023146851fb583db9b7c6be5fed0d287293c85a8ede5193c6ea9281900390910190a35050939250505056fe4552524f523a20546869732056616c75652070726f766f71756573204f766572666c6f7720746f2074686520616464726573734552524f523a20546865207061796d656e7420636f756c64206e6f74206265206d6164654552524f523a20546f6b656e7320537570706c7920686173206265656e2065786365656465642e4552524f523a206164647265737320616e6420746f6b656e20646f6e277420626520304552524f523a204f776e657220546f6b656e7320697420686173206265656e2065786365656465642e204552524f523a2073656e64657220697320646966666572656e74207468616e20636f6e74726f6c6c65724552524f523a20436f6e74726f6c6c6572206d757374206265206120636f6e747261637420a165627a7a723058209b96c11e0e98f2c682c4673578743fa9e6c6dfa07b6279d1206d1b0c33ffba210029",
  "source": "pragma solidity >0.4.99 <0.6.0;\n\nimport \"./Controlled.sol\";\nimport \"./Controller.sol\";\n\ncontract Token is Controlled { //El contrato token está controlado por alguien, en este caso por ICO\n//Cada vez que se pida comprar Tokens este contrato se lo debe consultar a la ICO si se puede comprar.\n    mapping (address => uint256) balances; //cantidad de tokens por dirección (compradores),\n    uint256 public totalTokensSupply; //contador total de todos los tokens generados (ERC20)\n\n    constructor() public { // el que llame será el controlador (debeía ser ICO ico.address).\n        controller = msg.sender;\n    }\n\n    //LOG para transfers\n    event TransferLog (address indexed _from, address indexed _to, uint256 _value);\n\n    //(ERC20) saber balance de todos los owner\n    function balanceOf(address _owner) public view returns (uint256 balance) { //saber para un owner su balance (ERC20)\n        if (balances[_owner] == 0) {\n            return 0;\n        } else {\n            return balances[_owner];\n      }\n    }\n\n\n    //(ERC20)transfiere  al ICO des de cuenta que llama al método (message sender es _from)  (ERC20)\n    function transfer(address _to, uint256 _value) public returns (bool success) {\n        return doTransfer(msg.sender, _to, _value);  //se llama al método que realmente hace transfer\n    }\n\n    //(ERC20)transfiere  al ICO des de una cuenta _from que es enviada al ICO  (ERC20)\n    function transferFrom(address _from, address _to, uint256 _value) public  onlyController returns (bool success) {  //(ERC20)\n        return doTransfer(_from, _to, _value); //se llama al método que realmente hace transfer\n    }\n\n    function doTransfer (address _from, address _to, uint256 _value) internal returns (bool) {\n        if (_value == 0) { //No hay nada que transferir\n            return true;\n        }\n        require ((_to != address(0x0)) && (_to != address(this)),\"ERROR: address and token don't be 0\");\n        //destinatario no puede ser 0, ni el contrato Token\n        uint previousBalanceFrom = balanceOf(_from); //recuperamos balance inicial del _from\n        if (previousBalanceFrom < _value) { //comprobamos que el balance del from sea mayor que value, si es menor cancelamos transfer\n            return false;\n        }\n        balances[_from] = balances[_from] - _value; //restamos al balance de _from el valor que se quiere transferir\n\n        uint previousBalanceTo = balanceOf(_to); //recuperamos balance de _to\n        require(previousBalanceTo + _value >= previousBalanceTo,\"ERROR: This Value provoques Overflow to the address\");\n         //No queremos overflow, si ocurre se empieza de 0, lo comprobamos\n                                                                  //comprobamos que el balance del _to + value no reinicie el int256\n        balances[_to] = balances[_to] + _value; //sumamos al balance el valor de  _to\n        emit TransferLog(_from, _to, _value); //sólo para saber quien lo ha realizado, log en event\n    }\n\n    function isContract(address _addr) internal view  returns (bool) { //helper para comprobar si una address es un contrato.\n        uint size;\n        if (_addr == address(0x0)) return false;\n        assembly {  //lenguaje ensamblador: lenguaje cercano al lenguaje de la máquina virtual\n            size := extcodesize(_addr)  // recupera el tamaño del código - esto necesita ensamblador\n        }\n        return size>0;\n    }\n\n    //Método fallback, método vacío y payable que va cualquier transacción hacia una signature que no es ningún método existente\n    function () external payable { //método fallback, va cualquier transacción que vaya a una signature inexistente\n        require(isContract(controller), \"ERROR: Controller must be a contract \"); // comprobamos que sea un contrato\n        Controller c = Controller(controller); // llamamos constructor de controller con dirección controller nueva\n        require(c.proxyPayment.value(msg.value)(msg.sender),\"ERROR: The payment could not be made\");\n                //llamamos método payable proxyPayment con value y contrato:\n              //Fijarse que reenviamos el msg.value con '.value' aunque no esté como param del método, también contrato.\n    }\n\n    //genera los tokens necesarios, dependiendo del pago\n    function generateTokens(address _owner, uint _tokensGenerated) public onlyController returns (bool) {\n        uint previousTotalTokensSupply = totalTokensSupply; //cogemos los tokens totales hasta el momento\n        require(previousTotalTokensSupply + _tokensGenerated >= previousTotalTokensSupply,\"ERROR: Tokens Supply has been exceeded.\");\n            //validamos que no haya overflow int256, si ocurre se empieza de 0\n        uint previousBalanceTo = balanceOf(_owner); //cogemos los tokens totales del Owner hasta el momento\n        require(previousBalanceTo + _tokensGenerated >= previousBalanceTo,\"ERROR: Owner Tokens it has been exceeded.\");\n            //validamos que no haya overflow int256, si ocurre se empieza de 0\n        totalTokensSupply = previousTotalTokensSupply + _tokensGenerated;\n        balances[_owner] = previousBalanceTo + _tokensGenerated;\n        emit TransferLog(_owner, _owner, _tokensGenerated); //sólo para saber quien lo ha realizado, log en event\n        return true;\n    }\n}\n",
  "sourcePath": "C:\\Users\\Oriol\\Downloads\\ethereum\\projects\\ICO\\contracts\\Token.sol",
  "compiler": {
    "name": "solc",
    "version": "0.5.8+commit.23d335f2.Emscripten.clang"
  },
  "schemaVersion": "3.0.17",
  "updatedAt": "2019-11-05T15:01:47.193Z",
  "devdoc": {
    "methods": {}
  },
  "userdoc": {
    "methods": {}
  }
}