{
  "contractName": "Token",
  "abi": [
    {
      "inputs": [],
      "payable": false,
      "stateMutability": "nonpayable",
      "type": "constructor"
    },
    {
      "anonymous": false,
      "inputs": [
        {
          "indexed": true,
          "internalType": "address",
          "name": "_from",
          "type": "address"
        },
        {
          "indexed": true,
          "internalType": "address",
          "name": "_to",
          "type": "address"
        },
        {
          "indexed": false,
          "internalType": "uint256",
          "name": "_value",
          "type": "uint256"
        }
      ],
      "name": "TransferLog",
      "type": "event"
    },
    {
      "payable": true,
      "stateMutability": "payable",
      "type": "fallback"
    },
    {
      "constant": false,
      "inputs": [
        {
          "internalType": "address payable",
          "name": "_newController",
          "type": "address"
        }
      ],
      "name": "changeController",
      "outputs": [],
      "payable": false,
      "stateMutability": "nonpayable",
      "type": "function"
    },
    {
      "constant": true,
      "inputs": [],
      "name": "controller",
      "outputs": [
        {
          "internalType": "address payable",
          "name": "",
          "type": "address"
        }
      ],
      "payable": false,
      "stateMutability": "view",
      "type": "function"
    },
    {
      "constant": true,
      "inputs": [],
      "name": "totalTokensSupply",
      "outputs": [
        {
          "internalType": "uint256",
          "name": "",
          "type": "uint256"
        }
      ],
      "payable": false,
      "stateMutability": "view",
      "type": "function"
    },
    {
      "constant": true,
      "inputs": [
        {
          "internalType": "address",
          "name": "_owner",
          "type": "address"
        }
      ],
      "name": "balanceOf",
      "outputs": [
        {
          "internalType": "uint256",
          "name": "balance",
          "type": "uint256"
        }
      ],
      "payable": false,
      "stateMutability": "view",
      "type": "function"
    },
    {
      "constant": false,
      "inputs": [
        {
          "internalType": "address",
          "name": "_to",
          "type": "address"
        },
        {
          "internalType": "uint256",
          "name": "_value",
          "type": "uint256"
        }
      ],
      "name": "transfer",
      "outputs": [
        {
          "internalType": "bool",
          "name": "success",
          "type": "bool"
        }
      ],
      "payable": false,
      "stateMutability": "nonpayable",
      "type": "function"
    },
    {
      "constant": false,
      "inputs": [
        {
          "internalType": "address",
          "name": "_from",
          "type": "address"
        },
        {
          "internalType": "address",
          "name": "_to",
          "type": "address"
        },
        {
          "internalType": "uint256",
          "name": "_value",
          "type": "uint256"
        }
      ],
      "name": "transferFrom",
      "outputs": [
        {
          "internalType": "bool",
          "name": "success",
          "type": "bool"
        }
      ],
      "payable": false,
      "stateMutability": "nonpayable",
      "type": "function"
    },
    {
      "constant": false,
      "inputs": [
        {
          "internalType": "address",
          "name": "_owner",
          "type": "address"
        },
        {
          "internalType": "uint256",
          "name": "_tokensGenerated",
          "type": "uint256"
        }
      ],
      "name": "generateTokens",
      "outputs": [
        {
          "internalType": "bool",
          "name": "",
          "type": "bool"
        }
      ],
      "payable": false,
      "stateMutability": "nonpayable",
      "type": "function"
    }
  ],
  "bytecode": "0x608060405234801561001057600080fd5b50600080546001600160a01b0319908116339081179091161790556108ea8061003a6000396000f3fe6080604052600436106100705760003560e01c806379d541841161004e57806379d541841461024c578063827f32c014610261578063a9059cbb1461029a578063f77c4791146102d357610070565b806323b872dd1461017b5780633cebb823146101d257806370a0823114610207575b600054610085906001600160a01b0316610304565b6100c05760405162461bcd60e51b81526004018080602001828103825260258152602001806108916025913960400191505060405180910390fd5b60005460408051633d230c1560e21b815233600482015290516001600160a01b0390921691829163f48c305491349160248082019260209290919082900301818588803b15801561011057600080fd5b505af1158015610124573d6000803e3d6000fd5b50505050506040513d602081101561013b57600080fd5b50516101785760405162461bcd60e51b81526004018080602001828103825260248152602001806107cf6024913960400191505060405180910390fd5b50005b34801561018757600080fd5b506101be6004803603606081101561019e57600080fd5b506001600160a01b0381358116916020810135909116906040013561032b565b604080519115158252519081900360200190f35b3480156101de57600080fd5b50610205600480360360208110156101f557600080fd5b50356001600160a01b0316610388565b005b34801561021357600080fd5b5061023a6004803603602081101561022a57600080fd5b50356001600160a01b03166103f3565b60408051918252519081900360200190f35b34801561025857600080fd5b5061023a610437565b34801561026d57600080fd5b506101be6004803603604081101561028457600080fd5b506001600160a01b03813516906020013561043d565b3480156102a657600080fd5b506101be600480360360408110156102bd57600080fd5b506001600160a01b03813516906020013561057d565b3480156102df57600080fd5b506102e8610591565b604080516001600160a01b039092168252519081900360200190f35b6000806001600160a01b03831661031f576000915050610326565b5050803b15155b919050565b600080546001600160a01b031633146103755760405162461bcd60e51b815260040180806020018281038252602b815260200180610866602b913960400191505060405180910390fd5b6103808484846105a0565b949350505050565b6000546001600160a01b031633146103d15760405162461bcd60e51b815260040180806020018281038252602b815260200180610866602b913960400191505060405180910390fd5b600080546001600160a01b0319166001600160a01b0392909216919091179055565b6001600160a01b03811660009081526001602052604081205461041857506000610326565b506001600160a01b038116600090815260016020526040902054610326565b60025481565b600080546001600160a01b031633146104875760405162461bcd60e51b815260040180806020018281038252602b815260200180610866602b913960400191505060405180910390fd5b6002548281018111156104cb5760405162461bcd60e51b81526004018080602001828103825260278152602001806107f36027913960400191505060405180910390fd5b60006104d6856103f3565b90508084820110156105195760405162461bcd60e51b815260040180806020018281038252602981526020018061083d6029913960400191505060405180910390fd5b8184016002556001600160a01b03851660008181526001602090815260409182902084880190558151878152915183927f21425341546d2023146851fb583db9b7c6be5fed0d287293c85a8ede5193c6ea92908290030190a3506001949350505050565b600061058a3384846105a0565b9392505050565b6000546001600160a01b031681565b6000816105f4576040805162461bcd60e51b815260206004820152601a60248201527f4552524f523a2076616c75652063616e6e6f7420626520302e20000000000000604482015290519081900360640190fd5b6001600160a01b0383161580159061061557506001600160a01b0383163014155b6106505760405162461bcd60e51b815260040180806020018281038252602381526020018061081a6023913960400191505060405180910390fd5b600061065b856103f3565b905082811061069b5760405162461bcd60e51b815260040180806020018281038252603381526020018061079c6033913960400191505060405180910390fd5b6001600160a01b0385166000908152600160205260408120805485900390556106c3856103f3565b90508084820110156107065760405162461bcd60e51b81526004018080602001828103825260338152602001806107696033913960400191505060405180910390fd5b6001600160a01b038086166000818152600160209081526040918290208054890190558151888152915192938a16927f21425341546d2023146851fb583db9b7c6be5fed0d287293c85a8ede5193c6ea9281900390910190a35050939250505056fe4552524f523a20546869732056616c75652070726f766f71756573204f766572666c6f7720746f2074686520616464726573734552524f523a2062616c616e63652066726f6d206e6565647320746f2062652067726561746572207468616e2076616c75652e4552524f523a20546865207061796d656e7420636f756c64206e6f74206265206d6164654552524f523a20546f6b656e7320537570706c7920686173206265656e2065786365656465642e4552524f523a206164647265737320616e6420746f6b656e20646f6e277420626520304552524f523a204f776e657220546f6b656e7320697420686173206265656e2065786365656465642e204552524f523a2073656e64657220697320646966666572656e74207468616e20636f6e74726f6c6c65724552524f523a20436f6e74726f6c6c6572206d757374206265206120636f6e747261637420a265627a7a72315820e4a957826ccb02fdb1da9efd0de2e6b014f65ef159ece1a533ee6cd027c6150e64736f6c634300050c0032",
  "source": "pragma solidity >0.4.99 <0.6.0;\n\nimport \"./Controlled.sol\";\nimport \"./Controller.sol\";\n\ncontract Token is Controlled { //El contrato token está controlado por alguien, en este caso por ICO\n//Cada vez que se pida comprar Tokens este contrato se lo debe consultar a la ICO si se puede comprar.\n    mapping (address => uint256) balances; //cantidad de tokens por dirección (compradores),\n    uint256 public totalTokensSupply; //contador total de todos los tokens generados (ERC20)\n\n    constructor() public { // el que llame será el controlador (debeía ser ICO ico.address).\n        controller = msg.sender;\n    }\n\n    //LOG para transfers\n    event TransferLog (address indexed _from, address indexed _to, uint256 _value);\n\n    //(ERC20) saber balance de todos los owner\n    function balanceOf(address _owner) public view returns (uint256 balance) { //saber para un owner su balance (ERC20)\n        if (balances[_owner] == 0) {\n            return 0;\n        } else {\n            return balances[_owner];\n      }\n    }\n\n\n    //(ERC20)transfiere  al ICO des de cuenta que llama al método (message sender es _from)  (ERC20)\n    function transfer(address _to, uint256 _value) public returns (bool success) {\n        return doTransfer(msg.sender, _to, _value);  //se llama al método que realmente hace transfer\n    }\n\n    //(ERC20)transfiere  al ICO des de una cuenta _from que es enviada al ICO  (ERC20)\n    function transferFrom(address _from, address _to, uint256 _value) public  onlyController returns (bool success) {  //(ERC20)\n        return doTransfer(_from, _to, _value); //se llama al método que realmente hace transfer\n    }\n\n    function doTransfer (address _from, address _to, uint256 _value) internal returns (bool) {\n        require (_value != 0,\"ERROR: value cannot be 0. \");\n        require ((_to != address(0x0)) && (_to != address(this)),\"ERROR: address and token don't be 0\");\n        //destinatario no puede ser 0, ni el contrato Token\n        uint previousBalanceFrom = balanceOf(_from); //recuperamos balance inicial del _from\n        require (previousBalanceFrom < _value,\"ERROR: balance from needs to be greater than value.\");\n        balances[_from] = balances[_from] - _value; //restamos al balance de _from el valor que se quiere transferir\n\n        uint previousBalanceTo = balanceOf(_to); //recuperamos balance de _to\n        require(previousBalanceTo + _value >= previousBalanceTo,\"ERROR: This Value provoques Overflow to the address\");\n         //No queremos overflow, si ocurre se empieza de 0, lo comprobamos\n                                                                  //comprobamos que el balance del _to + value no reinicie el int256\n        balances[_to] = balances[_to] + _value; //sumamos al balance el valor de  _to\n        emit TransferLog(_from, _to, _value); //sólo para saber quien lo ha realizado, log en event\n    }\n\n    function isContract(address _addr) internal view  returns (bool) { //helper para comprobar si una address es un contrato.\n        uint size;\n        if (_addr == address(0x0)) return false;\n        assembly {  //lenguaje ensamblador: lenguaje cercano al lenguaje de la máquina virtual\n            size := extcodesize(_addr)  // recupera el tamaño del código - esto necesita ensamblador\n        }\n        return size>0;\n    }\n\n    //Método fallback, método vacío y payable que va cualquier transacción hacia una signature que no es ningún método existente\n    function () external payable { //método fallback, va cualquier transacción que vaya a una signature inexistente\n        require(isContract(controller), \"ERROR: Controller must be a contract \"); // comprobamos que sea un contrato\n        Controller c = Controller(controller); // llamamos constructor de controller con dirección controller nueva\n        require(c.proxyPayment.value(msg.value)(msg.sender),\"ERROR: The payment could not be made\");\n                //llamamos método payable proxyPayment con value y contrato:\n              //Fijarse que reenviamos el msg.value con '.value' aunque no esté como param del método, también contrato.\n    }\n\n    //genera los tokens necesarios, dependiendo del pago\n    function generateTokens(address _owner, uint _tokensGenerated) public onlyController returns (bool) {\n        uint previousTotalTokensSupply = totalTokensSupply; //cogemos los tokens totales hasta el momento\n        require(previousTotalTokensSupply + _tokensGenerated >= previousTotalTokensSupply,\"ERROR: Tokens Supply has been exceeded.\");\n            //validamos que no haya overflow int256, si ocurre se empieza de 0\n        uint previousBalanceTo = balanceOf(_owner); //cogemos los tokens totales del Owner hasta el momento\n        require(previousBalanceTo + _tokensGenerated >= previousBalanceTo,\"ERROR: Owner Tokens it has been exceeded.\");\n            //validamos que no haya overflow int256, si ocurre se empieza de 0\n        totalTokensSupply = previousTotalTokensSupply + _tokensGenerated;\n        balances[_owner] = previousBalanceTo + _tokensGenerated;\n        emit TransferLog(_owner, _owner, _tokensGenerated); //sólo para saber quien lo ha realizado, log en event\n        return true;\n    }\n}\n",
  "sourcePath": "C:\\Users\\Oriol\\Downloads\\ethereum\\projects\\ICO\\contracts\\Token.sol",
  "compiler": {
    "name": "solc",
    "version": "0.5.12+commit.7709ece9.Emscripten.clang"
  },
  "schemaVersion": "3.0.18",
  "updatedAt": "2019-11-11T11:20:32.890Z",
  "devdoc": {
    "methods": {}
  },
  "userdoc": {
    "methods": {}
  }
}