{
  "contractName": "Voting",
  "abi": [
    {
      "constant": true,
      "inputs": [
        {
          "name": "",
          "type": "bytes32"
        }
      ],
      "name": "votesReceived",
      "outputs": [
        {
          "name": "",
          "type": "uint8"
        }
      ],
      "payable": false,
      "stateMutability": "view",
      "type": "function"
    },
    {
      "constant": true,
      "inputs": [
        {
          "name": "",
          "type": "uint256"
        }
      ],
      "name": "candidateList",
      "outputs": [
        {
          "name": "",
          "type": "bytes32"
        }
      ],
      "payable": false,
      "stateMutability": "view",
      "type": "function"
    },
    {
      "inputs": [
        {
          "name": "candidateNames",
          "type": "bytes32[]"
        }
      ],
      "payable": false,
      "stateMutability": "nonpayable",
      "type": "constructor"
    },
    {
      "anonymous": false,
      "inputs": [
        {
          "indexed": false,
          "name": "_value",
          "type": "bytes32"
        }
      ],
      "name": "logBytes",
      "type": "event"
    },
    {
      "anonymous": false,
      "inputs": [
        {
          "indexed": false,
          "name": "_value",
          "type": "string"
        }
      ],
      "name": "logString",
      "type": "event"
    },
    {
      "constant": true,
      "inputs": [
        {
          "name": "candidate",
          "type": "bytes32"
        }
      ],
      "name": "totalVotesFor",
      "outputs": [
        {
          "name": "",
          "type": "uint8"
        }
      ],
      "payable": false,
      "stateMutability": "view",
      "type": "function"
    },
    {
      "constant": false,
      "inputs": [
        {
          "name": "candidate",
          "type": "bytes32"
        }
      ],
      "name": "voteForCandidate",
      "outputs": [],
      "payable": false,
      "stateMutability": "nonpayable",
      "type": "function"
    },
    {
      "constant": true,
      "inputs": [
        {
          "name": "candidate",
          "type": "bytes32"
        }
      ],
      "name": "validCandidate",
      "outputs": [
        {
          "name": "",
          "type": "bool"
        }
      ],
      "payable": false,
      "stateMutability": "view",
      "type": "function"
    },
    {
      "constant": true,
      "inputs": [],
      "name": "obtenerDireccionContrato",
      "outputs": [
        {
          "name": "",
          "type": "address"
        }
      ],
      "payable": false,
      "stateMutability": "view",
      "type": "function"
    }
  ],
  "bytecode": "0x608060405234801561001057600080fd5b50604051610523380380610523833981018060405281019080805182019291905050508060019080519060200190610049929190610050565b50506100c8565b828054828255906000526020600020908101928215610092579160200282015b82811115610091578251829060001916905591602001919060010190610070565b5b50905061009f91906100a3565b5090565b6100c591905b808211156100c15760008160009055506001016100a9565b5090565b90565b61044c806100d76000396000f300608060405260043610610078576000357c0100000000000000000000000000000000000000000000000000000000900463ffffffff1680632f265cf71461007d578063392e6678146100c8578063597c60da146101115780637021939f14610168578063b13c744b146101b3578063cc9ab267146101fc575b600080fd5b34801561008957600080fd5b506100ac600480360381019080803560001916906020019092919050505061022d565b604051808260ff1660ff16815260200191505060405180910390f35b3480156100d457600080fd5b506100f76004803603810190808035600019169060200190929190505050610272565b604051808215151515815260200191505060405180910390f35b34801561011d57600080fd5b506101266102d1565b604051808273ffffffffffffffffffffffffffffffffffffffff1673ffffffffffffffffffffffffffffffffffffffff16815260200191505060405180910390f35b34801561017457600080fd5b5061019760048036038101908080356000191690602001909291905050506102d9565b604051808260ff1660ff16815260200191505060405180910390f35b3480156101bf57600080fd5b506101de600480360381019080803590602001909291905050506102f9565b60405180826000191660001916815260200191505060405180910390f35b34801561020857600080fd5b5061022b600480360381019080803560001916906020019092919050505061031c565b005b600061023882610272565b151561024357600080fd5b600080836000191660001916815260200190815260200160002060009054906101000a900460ff169050919050565b600080600090505b6001805490508110156102c657826000191660018281548110151561029b57fe5b90600052602060002001546000191614156102b957600191506102cb565b808060010191505061027a565b600091505b50919050565b600030905090565b60006020528060005260406000206000915054906101000a900460ff1681565b60018181548110151561030857fe5b906000526020600020016000915090505481565b7f0bb563d6789cea5d754d1b7f85bfebdfe7a1a86e2e0ffccfb8a6bbdb07826ae26040518080602001828103825260108152602001807f766f7465466f7243616e6469646174650000000000000000000000000000000081525060200191505060405180910390a17ff4a6ef996bddc85ef98d807752cac51be6c8e091bcad1d27c5a2fd6e9542964a8160405180826000191660001916815260200191505060405180910390a16103cc81610272565b15156103d757600080fd5b6001600080836000191660001916815260200190815260200160002060008282829054906101000a900460ff160192506101000a81548160ff021916908360ff160217905550505600a165627a7a72305820591a99ea2a2420e49b2c913a9e053c4dd26eea2193375d8ccc31ae4bf05ed33d0029",
  "source": "pragma solidity ^0.4.13;\n// We have to specify what version of compiler this code will compile with\n\ncontract Voting {\n  /* mapping field below is equivalent to an associative array or hash.\n  The key of the mapping is candidate name stored as type bytes32 and value is\n  an unsigned integer to store the vote count\n  */\n\n  mapping (bytes32 => uint8) public votesReceived;  //Array con Votos recibidos para cada candidado en indices integer. \n\n  /* Solidity doesn't let you pass in an array of strings in the constructor (yet).\n  We will use an array of bytes32 instead to store the list of candidates\n  */\n\n  bytes32[] public candidateList; //lista de candidatos que cargaremos en método constructor\n\n  /* This is the constructor which will be called once when you\n  deploy the contract to the blockchain. When we deploy the contract,\n  we will pass an array of candidates who will be contesting in the election\n  */\n  constructor (bytes32[] candidateNames) public {  //constructor que enviamos los candidatos\n    candidateList = candidateNames;\n  }\n\n  // This function returns the total votes a candidate has received so far\n  function totalVotesFor(bytes32 candidate) public view returns (uint8) {  //devuelve votos de un candidato\n    require(validCandidate(candidate));\n    return votesReceived[candidate];\n  }\n\n  // This function increments the vote count for the specified candidate. This\n  // is equivalent to casting a vote\n  function voteForCandidate(bytes32 candidate) public {  //Votar un candidato\n    emit logString(\"voteForCandidate\");\n    emit logBytes(candidate);\n    require(validCandidate(candidate));\n    votesReceived[candidate] += 1;\n  } \n\n  // This function validates a candidate exists  \n\n  function validCandidate(bytes32 candidate) public view returns (bool) {  //validar que un candidato existe.\n    for(uint i = 0; i < candidateList.length; i++) {\n      if (candidateList[i] == candidate) {\n        return true;\n      }\n    }\n    return false;\n  }\n\n  /** FUNCIONES INFORMATIVAS, NO RELEVANTES */\n\n    event logBytes(bytes32 _value);  //para escribir logs\n    event logString(string _value);  //para escribir logs\n\n    function obtenerDireccionContrato() public view returns (address) {\n        return address(this);\n        \n    }\n\n\n}\n",
  "sourcePath": "C:\\Users\\Oriol\\Downloads\\solidity\\BlockChainEthereumVoting\\contracts\\Voting.sol",
  "compiler": {
    "name": "solc",
    "version": "0.4.23+commit.124ca40d.Emscripten.clang"
  },
  "schemaVersion": "2.0.0",
  "updatedAt": "2018-05-23T08:23:45.509Z"
}