{
  "contractName": "PayableContract",
  "abi": [
    {
      "inputs": [],
      "payable": false,
      "stateMutability": "nonpayable",
      "type": "constructor"
    },
    {
      "anonymous": false,
      "inputs": [
        {
          "indexed": false,
          "internalType": "uint256",
          "name": "value",
          "type": "uint256"
        },
        {
          "indexed": false,
          "internalType": "address",
          "name": "sender",
          "type": "address"
        },
        {
          "indexed": false,
          "internalType": "address",
          "name": "coinbase",
          "type": "address"
        },
        {
          "indexed": false,
          "internalType": "uint256",
          "name": "difficulty",
          "type": "uint256"
        },
        {
          "indexed": false,
          "internalType": "uint256",
          "name": "gaslimit",
          "type": "uint256"
        },
        {
          "indexed": false,
          "internalType": "uint256",
          "name": "number",
          "type": "uint256"
        },
        {
          "indexed": false,
          "internalType": "uint256",
          "name": "gasLeft",
          "type": "uint256"
        },
        {
          "indexed": false,
          "internalType": "bytes",
          "name": "data",
          "type": "bytes"
        },
        {
          "indexed": false,
          "internalType": "bytes4",
          "name": "sig",
          "type": "bytes4"
        },
        {
          "indexed": false,
          "internalType": "uint256",
          "name": "rightNow",
          "type": "uint256"
        },
        {
          "indexed": false,
          "internalType": "uint256",
          "name": "gasprice",
          "type": "uint256"
        }
      ],
      "name": "PayableFunctionEvent",
      "type": "event"
    },
    {
      "constant": false,
      "inputs": [],
      "name": "payableFunction",
      "outputs": [],
      "payable": true,
      "stateMutability": "payable",
      "type": "function"
    },
    {
      "constant": false,
      "inputs": [
        {
          "internalType": "string",
          "name": "_message",
          "type": "string"
        }
      ],
      "name": "setGreetings",
      "outputs": [],
      "payable": false,
      "stateMutability": "nonpayable",
      "type": "function"
    },
    {
      "constant": true,
      "inputs": [],
      "name": "getGreetings",
      "outputs": [
        {
          "internalType": "string",
          "name": "",
          "type": "string"
        }
      ],
      "payable": false,
      "stateMutability": "view",
      "type": "function"
    },
    {
      "constant": true,
      "inputs": [],
      "name": "getBalance",
      "outputs": [
        {
          "internalType": "uint256",
          "name": "",
          "type": "uint256"
        }
      ],
      "payable": false,
      "stateMutability": "view",
      "type": "function"
    },
    {
      "constant": true,
      "inputs": [],
      "name": "getAddress",
      "outputs": [
        {
          "internalType": "address",
          "name": "",
          "type": "address"
        }
      ],
      "payable": false,
      "stateMutability": "view",
      "type": "function"
    }
  ],
  "bytecode": "0x608060405234801561001057600080fd5b5060408051808201909152600e8082527f41726520796f752072656164793f00000000000000000000000000000000000060209092019182526100559160009161005b565b506100f6565b828054600181600116156101000203166002900490600052602060002090601f016020900481019282601f1061009c57805160ff19168380011785556100c9565b828001600101855582156100c9579182015b828111156100c95782518255916020019190600101906100ae565b506100d59291506100d9565b5090565b6100f391905b808211156100d557600081556001016100df565b90565b610594806101056000396000f3fe60806040526004361061004a5760003560e01c806312065fe01461004f57806338cc48311461007657806349da5de4146100a75780634a6a74071461015c578063ca4c3a4114610164575b600080fd5b34801561005b57600080fd5b506100646101ee565b60408051918252519081900360200190f35b34801561008257600080fd5b5061008b6101f4565b604080516001600160a01b039092168252519081900360200190f35b3480156100b357600080fd5b5061015a600480360360208110156100ca57600080fd5b8101906020810181356401000000008111156100e557600080fd5b8201836020820111156100f757600080fd5b8035906020019184600183028401116401000000008311171561011957600080fd5b91908080601f0160208091040260200160405190810160405280939291908181526020018383808284376000920191909152509295506101f8945050505050565b005b61015a61020f565b34801561017057600080fd5b506101796103c3565b6040805160208082528351818301528351919283929083019185019080838360005b838110156101b357818101518382015260200161019b565b50505050905090810190601f1680156101e05780820380516001836020036101000a031916815260200191505b509250505060405180910390f35b30315b90565b3090565b805161020b906000906020840190610459565b5050565b34600155600280546001600160a01b0319908116331790915560038054909116411790554460045545600555436006555a60075561025060086000366104d7565b506009805460003560e090811c63ffffffff19909216919091179182905542600a8190553a600b8190556001805460028054600354600454600554600654600754604080518981526001600160a01b039788166020820181905296909716908701819052606087018590526080870184905260a0870183905260c087018290529c8c1b6001600160e01b031981166101008881019190915261012088018d905261014088018c90526101609d88018e8152600880549c8d161590920260001901909b16989098049c87018d90527f3792afe79981411694699ed80b855cba61081064664ef04c3363b7c20751eb699d989c959b989a949993989297919691959094929390610180830190879080156103a95780601f1061037e576101008083540402835291602001916103a9565b820191906000526020600020905b81548152906001019060200180831161038c57829003601f168201915b50509c5050505050505050505050505060405180910390a1565b60008054604080516020601f600260001961010060018816150201909516949094049384018190048102820181019092528281526060939092909183018282801561044f5780601f106104245761010080835404028352916020019161044f565b820191906000526020600020905b81548152906001019060200180831161043257829003601f168201915b5050505050905090565b828054600181600116156101000203166002900490600052602060002090601f016020900481019282601f1061049a57805160ff19168380011785556104c7565b828001600101855582156104c7579182015b828111156104c75782518255916020019190600101906104ac565b506104d3929150610545565b5090565b828054600181600116156101000203166002900490600052602060002090601f016020900481019282601f106105185782800160ff198235161785556104c7565b828001600101855582156104c7579182015b828111156104c757823582559160200191906001019061052a565b6101f191905b808211156104d3576000815560010161054b56fea265627a7a72315820a68af274f924640f5ef5621c6d7c7e2674f91291788e8f9b068b781902d0df9e64736f6c634300050c0032",
  "source": "pragma solidity >0.4.99 <0.6.0;\n\ncontract PayableContract{\n    string message;\n    uint value;\n    address sender;\n    address coinbase;\n    uint difficulty;\n    uint gaslimit;\n    uint number;\n    uint256 gasLeft;\n    bytes data;\n    bytes4 sig;\n    uint rightNow;\n    uint gasprice;\n\n\n    constructor() public {\n        message = \"Are you ready?\";\n    }\n\n    event PayableFunctionEvent(uint value, address sender, address coinbase, uint difficulty, uint gaslimit, uint number,\n    uint256 gasLeft, bytes data, bytes4 sig, uint rightNow, uint gasprice );  //para escribir logs\n\n    function payableFunction() public payable{ //this is the playable function, always need \n        value = msg.value;\n        sender = msg.sender;\n        coinbase = block.coinbase;\n        difficulty = block.difficulty;\n        gaslimit = block.gaslimit;\n        number = block.number;\n        gasLeft = gasleft();\n        data = msg.data;\n        sig = msg.sig;\n        rightNow = block.timestamp;\n        gasprice = tx.gasprice;\n\n        emit PayableFunctionEvent(value,  sender, coinbase, difficulty, gaslimit, number, gasLeft, data, sig, rightNow, gasprice);\n    }\n\n    function setGreetings(string memory _message) public {\n        message = _message;\n    }\n\n    function getGreetings() public view returns (string memory) {\n        return message;\n    }\n\n    function getBalance() public view returns (uint) {\n        return address(this).balance;\n    }\n\n    function getAddress() public view returns (address) {\n        return address(this);\n    }\n}\n",
  "sourcePath": "C:/Users/Oriol/Downloads/ethereum/projects/OPCodes/contracts/PayableContract.sol",
  "compiler": {
    "name": "solc",
    "version": "0.5.12+commit.7709ece9.Emscripten.clang"
  },
  "schemaVersion": "3.0.18",
  "updatedAt": "2019-11-11T16:47:06.850Z",
  "devdoc": {
    "methods": {}
  },
  "userdoc": {
    "methods": {}
  }
}