{
  "contractName": "PayableContract",
  "abi": [
    {
      "inputs": [],
      "payable": false,
      "stateMutability": "nonpayable",
      "type": "constructor"
    },
    {
      "anonymous": false,
      "inputs": [
        {
          "indexed": false,
          "name": "value",
          "type": "uint256"
        },
        {
          "indexed": false,
          "name": "sender",
          "type": "address"
        },
        {
          "indexed": false,
          "name": "coinbase",
          "type": "address"
        },
        {
          "indexed": false,
          "name": "difficulty",
          "type": "uint256"
        },
        {
          "indexed": false,
          "name": "gaslimit",
          "type": "uint256"
        },
        {
          "indexed": false,
          "name": "number",
          "type": "uint256"
        },
        {
          "indexed": false,
          "name": "gasLeft",
          "type": "uint256"
        },
        {
          "indexed": false,
          "name": "data",
          "type": "bytes"
        },
        {
          "indexed": false,
          "name": "sig",
          "type": "bytes4"
        },
        {
          "indexed": false,
          "name": "rightNow",
          "type": "uint256"
        },
        {
          "indexed": false,
          "name": "gasprice",
          "type": "uint256"
        }
      ],
      "name": "log",
      "type": "event"
    },
    {
      "constant": false,
      "inputs": [],
      "name": "payableFunction",
      "outputs": [],
      "payable": true,
      "stateMutability": "payable",
      "type": "function"
    },
    {
      "constant": false,
      "inputs": [
        {
          "name": "_message",
          "type": "string"
        }
      ],
      "name": "setGreetings",
      "outputs": [],
      "payable": false,
      "stateMutability": "nonpayable",
      "type": "function"
    },
    {
      "constant": true,
      "inputs": [],
      "name": "getGreetings",
      "outputs": [
        {
          "name": "",
          "type": "string"
        }
      ],
      "payable": false,
      "stateMutability": "view",
      "type": "function"
    }
  ],
  "bytecode": "0x608060405234801561001057600080fd5b5060408051808201909152600e8082527f41726520796f752072656164793f00000000000000000000000000000000000060209092019182526100559160009161005b565b506100f6565b828054600181600116156101000203166002900490600052602060002090601f016020900481019282601f1061009c57805160ff19168380011785556100c9565b828001600101855582156100c9579182015b828111156100c95782518255916020019190600101906100ae565b506100d59291506100d9565b5090565b6100f391905b808211156100d557600081556001016100df565b90565b610514806101056000396000f3fe6080604052600436106100345760003560e01c806349da5de4146100395780634a6a7407146100ee578063ca4c3a41146100f6575b600080fd5b34801561004557600080fd5b506100ec6004803603602081101561005c57600080fd5b81019060208101813564010000000081111561007757600080fd5b82018360208201111561008957600080fd5b803590602001918460018302840111640100000000831117156100ab57600080fd5b91908080601f016020809104026020016040519081016040528093929190818152602001838380828437600092019190915250929550610180945050505050565b005b6100ec610197565b34801561010257600080fd5b5061010b61034b565b6040805160208082528351818301528351919283929083019185019080838360005b8381101561014557818101518382015260200161012d565b50505050905090810190601f1680156101725780820380516001836020036101000a031916815260200191505b509250505060405180910390f35b80516101939060009060208401906103e2565b5050565b34600155600280546001600160a01b0319908116331790915560038054909116411790554460045545600555436006555a6007556101d86008600036610460565b506009805463ffffffff19166000356001600160e01b031990811660e090811c929092179283905542600a8190553a600b8190556001805460028054600354600454600554600654600754604080518981526001600160a01b039788166020820181905297909616908601819052606086018590526080860184905260a0860183905260c086018290529d8d1b9b8c166101008087019190915261012086018c905261014086018b90526101609d86018e8152600880549b8c161590920260001901909a16979097049c85018d90527f4bc5a16e80cbeee0f810f041e81647375b04cd5be5bc19a09fcc3f73f131d9e99d979c959b979a93999298919790969590949190610180830190879080156103315780601f1061030657610100808354040283529160200191610331565b820191906000526020600020905b81548152906001019060200180831161031457829003601f168201915b50509c5050505050505050505050505060405180910390a1565b60008054604080516020601f60026000196101006001881615020190951694909404938401819004810282018101909252828152606093909290918301828280156103d75780601f106103ac576101008083540402835291602001916103d7565b820191906000526020600020905b8154815290600101906020018083116103ba57829003601f168201915b505050505090505b90565b828054600181600116156101000203166002900490600052602060002090601f016020900481019282601f1061042357805160ff1916838001178555610450565b82800160010185558215610450579182015b82811115610450578251825591602001919060010190610435565b5061045c9291506104ce565b5090565b828054600181600116156101000203166002900490600052602060002090601f016020900481019282601f106104a15782800160ff19823516178555610450565b82800160010185558215610450579182015b828111156104505782358255916020019190600101906104b3565b6103df91905b8082111561045c57600081556001016104d456fea165627a7a72305820615970944dfb618573fdbd332867645f31346c90287890ffc78275c4763b47ba0029",
  "source": "pragma solidity >0.4.99 <0.6.0;\n\ncontract PayableContract{\n    string message;\n    uint value;\n    address sender;\n    address coinbase;\n    uint difficulty;\n    uint gaslimit;\n    uint number;\n    uint256 gasLeft;\n    bytes data;\n    bytes4 sig;\n    uint rightNow;\n    uint gasprice;\n\n\n    constructor() public {\n        message = \"Are you ready?\";\n    }\n\n    event log(uint value, address sender, address coinbase, uint difficulty, uint gaslimit, uint number,\n    uint256 gasLeft, bytes data, bytes4 sig, uint rightNow, uint gasprice );  //para escribir logs\n\n    function payableFunction() public payable{\n        value = msg.value;\n        sender = msg.sender;\n        coinbase = block.coinbase;\n        difficulty = block.difficulty;\n        gaslimit = block.gaslimit;\n        number = block.number;\n        gasLeft = gasleft();\n        data = msg.data;\n        sig = msg.sig;\n        rightNow = block.timestamp;\n        gasprice = tx.gasprice;\n\n        emit log(value,  sender, coinbase, difficulty, gaslimit, number, gasLeft, data, sig, rightNow, gasprice);\n    }\n\n    function setGreetings(string memory _message) public {\n        message = _message;\n    }\n\n    function getGreetings() public view returns (string memory) {\n        return message;\n    }\n}\n",
  "sourcePath": "C:/Users/Oriol/Downloads/ethereum/projects/OPCodes/contracts/PayableContract.sol",
  "compiler": {
    "name": "solc",
    "version": "0.5.8+commit.23d335f2.Emscripten.clang"
  },
  "schemaVersion": "3.0.17",
  "updatedAt": "2019-11-06T08:54:56.100Z",
  "networkType": "ethereum",
  "devdoc": {
    "methods": {}
  },
  "userdoc": {
    "methods": {}
  }
}