{
  "contractName": "PayableContract",
  "abi": [
    {
      "inputs": [],
      "payable": false,
      "stateMutability": "nonpayable",
      "type": "constructor"
    },
    {
      "anonymous": false,
      "inputs": [
        {
          "indexed": false,
          "name": "value",
          "type": "uint256"
        },
        {
          "indexed": false,
          "name": "sender",
          "type": "address"
        },
        {
          "indexed": false,
          "name": "coinbase",
          "type": "address"
        },
        {
          "indexed": false,
          "name": "difficulty",
          "type": "uint256"
        },
        {
          "indexed": false,
          "name": "gaslimit",
          "type": "uint256"
        },
        {
          "indexed": false,
          "name": "number",
          "type": "uint256"
        },
        {
          "indexed": false,
          "name": "gasLeft",
          "type": "uint256"
        },
        {
          "indexed": false,
          "name": "data",
          "type": "bytes"
        },
        {
          "indexed": false,
          "name": "sig",
          "type": "bytes4"
        },
        {
          "indexed": false,
          "name": "rightNow",
          "type": "uint256"
        },
        {
          "indexed": false,
          "name": "gasprice",
          "type": "uint256"
        }
      ],
      "name": "log",
      "type": "event"
    },
    {
      "constant": false,
      "inputs": [],
      "name": "payableFunction",
      "outputs": [],
      "payable": true,
      "stateMutability": "payable",
      "type": "function"
    },
    {
      "constant": false,
      "inputs": [
        {
          "name": "_message",
          "type": "string"
        }
      ],
      "name": "setGreetings",
      "outputs": [],
      "payable": false,
      "stateMutability": "nonpayable",
      "type": "function"
    },
    {
      "constant": true,
      "inputs": [],
      "name": "getGreetings",
      "outputs": [
        {
          "name": "",
          "type": "string"
        }
      ],
      "payable": false,
      "stateMutability": "view",
      "type": "function"
    }
  ],
  "bytecode": "0x608060405234801561001057600080fd5b506040805190810160405280600e81526020017f41726520796f752072656164793f0000000000000000000000000000000000008152506000908051906020019061005c929190610062565b50610107565b828054600181600116156101000203166002900490600052602060002090601f016020900481019282601f106100a357805160ff19168380011785556100d1565b828001600101855582156100d1579182015b828111156100d05782518255916020019190600101906100b5565b5b5090506100de91906100e2565b5090565b61010491905b808211156101005760008160009055506001016100e8565b5090565b90565b6106b0806101166000396000f300608060405260043610610057576000357c0100000000000000000000000000000000000000000000000000000000900463ffffffff16806349da5de41461005c5780634a6a7407146100c5578063ca4c3a41146100cf575b600080fd5b34801561006857600080fd5b506100c3600480360381019080803590602001908201803590602001908080601f016020809104026020016040519081016040528093929190818152602001838380828437820191505050505050919291929050505061015f565b005b6100cd610179565b005b3480156100db57600080fd5b506100e46104bd565b6040518080602001828103825283818151815260200191508051906020019080838360005b83811015610124578082015181840152602081019050610109565b50505050905090810190601f1680156101515780820380516001836020036101000a031916815260200191505b509250505060405180910390f35b806000908051906020019061017592919061055f565b5050565b3460018190555033600260006101000a81548173ffffffffffffffffffffffffffffffffffffffff021916908373ffffffffffffffffffffffffffffffffffffffff16021790555041600360006101000a81548173ffffffffffffffffffffffffffffffffffffffff021916908373ffffffffffffffffffffffffffffffffffffffff1602179055504460048190555045600581905550436006819055505a600781905550600036600891906102309291906105df565b506000357fffffffff0000000000000000000000000000000000000000000000000000000016600960006101000a81548163ffffffff02191690837c01000000000000000000000000000000000000000000000000000000009004021790555042600a819055503a600b819055507f4bc5a16e80cbeee0f810f041e81647375b04cd5be5bc19a09fcc3f73f131d9e9600154600260009054906101000a900473ffffffffffffffffffffffffffffffffffffffff16600360009054906101000a900473ffffffffffffffffffffffffffffffffffffffff166004546005546006546007546008600960009054906101000a90047c010000000000000000000000000000000000000000000000000000000002600a54600b54604051808c81526020018b73ffffffffffffffffffffffffffffffffffffffff1673ffffffffffffffffffffffffffffffffffffffff1681526020018a73ffffffffffffffffffffffffffffffffffffffff1673ffffffffffffffffffffffffffffffffffffffff16815260200189815260200188815260200187815260200186815260200180602001857bffffffffffffffffffffffffffffffffffffffffffffffffffffffff19167bffffffffffffffffffffffffffffffffffffffffffffffffffffffff191681526020018481526020018381526020018281038252868181546001816001161561010002031660029004815260200191508054600181600116156101000203166002900480156104a35780601f10610478576101008083540402835291602001916104a3565b820191906000526020600020905b81548152906001019060200180831161048657829003601f168201915b50509c5050505050505050505050505060405180910390a1565b606060008054600181600116156101000203166002900480601f0160208091040260200160405190810160405280929190818152602001828054600181600116156101000203166002900480156105555780601f1061052a57610100808354040283529160200191610555565b820191906000526020600020905b81548152906001019060200180831161053857829003601f168201915b5050505050905090565b828054600181600116156101000203166002900490600052602060002090601f016020900481019282601f106105a057805160ff19168380011785556105ce565b828001600101855582156105ce579182015b828111156105cd5782518255916020019190600101906105b2565b5b5090506105db919061065f565b5090565b828054600181600116156101000203166002900490600052602060002090601f016020900481019282601f1061062057803560ff191683800117855561064e565b8280016001018555821561064e579182015b8281111561064d578235825591602001919060010190610632565b5b50905061065b919061065f565b5090565b61068191905b8082111561067d576000816000905550600101610665565b5090565b905600a165627a7a723058208becbedd496520a46055c667ffbdb7a177b86bc6f4c8e4da6ac6ff36c26a25e00029",
  "source": "pragma solidity ^0.4.18;\r\n\r\ncontract PayableContract{\r\n    string message;\r\n    uint value;\r\n    address sender;\r\n    address coinbase;\r\n    uint difficulty;\r\n    uint gaslimit;\r\n    uint number;\r\n    uint256 gasLeft;\r\n    bytes data;\r\n    bytes4 sig;\r\n    uint rightNow;\r\n    uint gasprice;\r\n\r\n\r\n    constructor() public {\r\n        message = \"Are you ready?\";        \r\n    }\r\n\r\n    event log(uint value, address sender, address coinbase, uint difficulty, uint gaslimit, uint number, \r\n    uint256 gasLeft, bytes data, bytes4 sig, uint rightNow, uint gasprice );  //para escribir logs\r\n\r\n    function payableFunction() public payable{\r\n        value = msg.value;\r\n        sender = msg.sender;\r\n        coinbase = block.coinbase;     \r\n        difficulty = block.difficulty;\r\n        gaslimit = block.gaslimit;\r\n        number = block.number;\r\n        gasLeft = gasleft();\r\n        data = msg.data;\r\n        sig = msg.sig;\r\n        rightNow = block.timestamp;\r\n        gasprice = tx.gasprice;   \r\n\r\n        emit log(value,  sender, coinbase, difficulty, gaslimit, number, gasLeft, data, sig, rightNow, gasprice);\r\n    }\r\n\r\n \r\n    function setGreetings(string _message) public {\r\n        message = _message;\r\n    }\r\n\r\n    function getGreetings() public view returns (string) {\r\n        return message;\r\n    }\r\n}\r\n",
  "sourcePath": "C:\\Users\\Oriol\\Downloads\\solidity\\BlockChainOPCodes\\contracts\\PayableContract.sol",
  "compiler": {
    "name": "solc",
    "version": "0.4.23+commit.124ca40d.Emscripten.clang"
  },
  "schemaVersion": "2.0.0",
  "updatedAt": "2018-05-31T15:59:23.651Z"
}